{
	"data": {
		"bytecode": {
			"linkReferences": {},
			"object": "608060405234801561001057600080fd5b506040516108b13803806108b183398101604081905261002f91610037565b60005561004f565b600060208284031215610048578081fd5b5051919050565b6108538061005e6000396000f3fe608060405234801561001057600080fd5b50600436106100625760003560e01c8063059dbb301461006757806316ecc0e61461008f5780632d36de7a146100a257806342cbb15c146100b9578063812adbd8146100cd578063d2b210a1146100e0575b600080fd5b61007a61007536600461062c565b6100f8565b60405190151581526020015b60405180910390f35b61007a61009d366004610596565b610378565b6100ab60005481565b604051908152602001610086565b60405163ffffffff43168152602001610086565b61007a6100db3660046106a6565b6104e6565b6100ab6100ee3660046106c7565b63ffffffff164090565b600080805b61010860028561074c565b8163ffffffff16101561036b57600285856101238484610760565b63ffffffff1681811061014657634e487b7160e01b600052603260045260246000fd5b90506020020135868684600261015c9190610760565b610167906001610724565b63ffffffff1681811061018a57634e487b7160e01b600052603260045260246000fd5b905060200201356040516020016101ab929190918252602082015260400190565b60408051601f19818403018152908290526101c5916106eb565b602060405180830381855afa1580156101e2573d6000803e3d6000fd5b5050506040513d601f19601f820116820180604052508101906102059190610614565b9150610212816002610760565b61021d906003610724565b63ffffffff1661022e60018661078c565b11156102d957818585610242846002610760565b61024d906002610724565b63ffffffff1681811061027057634e487b7160e01b600052603260045260246000fd5b905060200201351480156102c4575081858561028d846002610760565b610298906003610724565b63ffffffff168181106102bb57634e487b7160e01b600052603260045260246000fd5b90506020020135145b156102d457600092505050610371565b610359565b6102e4816002610760565b6102ef906002610724565b63ffffffff1661030060018661078c565b111561035957818585610314846002610760565b61031f906002610724565b63ffffffff1681811061034257634e487b7160e01b600052603260045260246000fd5b905060200201351461035957600092505050610371565b80610363816107a3565b9150506100fd565b50841490505b9392505050565b6000806000808451604114156103a25750505060208201516040830151606084015160001a61041c565b8451604014156103d05750505060408201516020830151906001600160ff1b0381169060ff1c601b0161041c565b60405162461bcd60e51b815260206004820152601f60248201527f45434453413a20696e76616c6964207369676e6174757265206c656e67746800604482015260640160405180910390fd5b600160028760405161042e91906106eb565b602060405180830381855afa15801561044b573d6000803e3d6000fd5b5050506040513d601f19601f8201168201806040525081019061046e9190610614565b6040805160008152602081018083529290925260ff841690820152606081018590526080810184905260a0016020604051602081039080840390855afa1580156104bc573d6000803e3d6000fd5b505050602060405103516001600160a01b0316876001600160a01b03161493505050509392505050565b600081600054846104f791906107c7565b101561050557506001610509565b5060005b92915050565b600082601f83011261051f578081fd5b813567ffffffffffffffff8082111561053a5761053a610807565b604051601f8301601f19908116603f0116810190828211818310171561056257610562610807565b8160405283815286602085880101111561057a578485fd5b8360208701602083013792830160200193909352509392505050565b6000806000606084860312156105aa578283fd5b83356001600160a01b03811681146105c0578384fd5b9250602084013567ffffffffffffffff808211156105dc578384fd5b6105e88783880161050f565b935060408601359150808211156105fd578283fd5b5061060a8682870161050f565b9150509250925092565b600060208284031215610625578081fd5b5051919050565b600080600060408486031215610640578283fd5b83359250602084013567ffffffffffffffff8082111561065e578384fd5b818601915086601f830112610671578384fd5b81358181111561067f578485fd5b8760208260051b8501011115610693578485fd5b6020830194508093505050509250925092565b600080604083850312156106b8578182fd5b50508035926020909101359150565b6000602082840312156106d8578081fd5b813563ffffffff81168114610371578182fd5b60008251815b8181101561070b57602081860181015185830152016106f1565b818111156107195782828501525b509190910192915050565b600063ffffffff808316818516808303821115610743576107436107db565b01949350505050565b60008261075b5761075b6107f1565b500490565b600063ffffffff80831681851681830481118215151615610783576107836107db565b02949350505050565b60008282101561079e5761079e6107db565b500390565b600063ffffffff808316818114156107bd576107bd6107db565b6001019392505050565b6000826107d6576107d66107f1565b500690565b634e487b7160e01b600052601160045260246000fd5b634e487b7160e01b600052601260045260246000fd5b634e487b7160e01b600052604160045260246000fdfea26469706673582212202cca61162fc3e22e8fdad13755d51af7e2f9499385c6bacd85564d616c625ba664736f6c63430008040033",
			"opcodes": "PUSH1 0x80 PUSH1 0x40 MSTORE CALLVALUE DUP1 ISZERO PUSH2 0x10 JUMPI PUSH1 0x0 DUP1 REVERT JUMPDEST POP PUSH1 0x40 MLOAD PUSH2 0x8B1 CODESIZE SUB DUP1 PUSH2 0x8B1 DUP4 CODECOPY DUP2 ADD PUSH1 0x40 DUP2 SWAP1 MSTORE PUSH2 0x2F SWAP2 PUSH2 0x37 JUMP JUMPDEST PUSH1 0x0 SSTORE PUSH2 0x4F JUMP JUMPDEST PUSH1 0x0 PUSH1 0x20 DUP3 DUP5 SUB SLT ISZERO PUSH2 0x48 JUMPI DUP1 DUP2 REVERT JUMPDEST POP MLOAD SWAP2 SWAP1 POP JUMP JUMPDEST PUSH2 0x853 DUP1 PUSH2 0x5E PUSH1 0x0 CODECOPY PUSH1 0x0 RETURN INVALID PUSH1 0x80 PUSH1 0x40 MSTORE CALLVALUE DUP1 ISZERO PUSH2 0x10 JUMPI PUSH1 0x0 DUP1 REVERT JUMPDEST POP PUSH1 0x4 CALLDATASIZE LT PUSH2 0x62 JUMPI PUSH1 0x0 CALLDATALOAD PUSH1 0xE0 SHR DUP1 PUSH4 0x59DBB30 EQ PUSH2 0x67 JUMPI DUP1 PUSH4 0x16ECC0E6 EQ PUSH2 0x8F JUMPI DUP1 PUSH4 0x2D36DE7A EQ PUSH2 0xA2 JUMPI DUP1 PUSH4 0x42CBB15C EQ PUSH2 0xB9 JUMPI DUP1 PUSH4 0x812ADBD8 EQ PUSH2 0xCD JUMPI DUP1 PUSH4 0xD2B210A1 EQ PUSH2 0xE0 JUMPI JUMPDEST PUSH1 0x0 DUP1 REVERT JUMPDEST PUSH2 0x7A PUSH2 0x75 CALLDATASIZE PUSH1 0x4 PUSH2 0x62C JUMP JUMPDEST PUSH2 0xF8 JUMP JUMPDEST PUSH1 0x40 MLOAD SWAP1 ISZERO ISZERO DUP2 MSTORE PUSH1 0x20 ADD JUMPDEST PUSH1 0x40 MLOAD DUP1 SWAP2 SUB SWAP1 RETURN JUMPDEST PUSH2 0x7A PUSH2 0x9D CALLDATASIZE PUSH1 0x4 PUSH2 0x596 JUMP JUMPDEST PUSH2 0x378 JUMP JUMPDEST PUSH2 0xAB PUSH1 0x0 SLOAD DUP2 JUMP JUMPDEST PUSH1 0x40 MLOAD SWAP1 DUP2 MSTORE PUSH1 0x20 ADD PUSH2 0x86 JUMP JUMPDEST PUSH1 0x40 MLOAD PUSH4 0xFFFFFFFF NUMBER AND DUP2 MSTORE PUSH1 0x20 ADD PUSH2 0x86 JUMP JUMPDEST PUSH2 0x7A PUSH2 0xDB CALLDATASIZE PUSH1 0x4 PUSH2 0x6A6 JUMP JUMPDEST PUSH2 0x4E6 JUMP JUMPDEST PUSH2 0xAB PUSH2 0xEE CALLDATASIZE PUSH1 0x4 PUSH2 0x6C7 JUMP JUMPDEST PUSH4 0xFFFFFFFF AND BLOCKHASH SWAP1 JUMP JUMPDEST PUSH1 0x0 DUP1 DUP1 JUMPDEST PUSH2 0x108 PUSH1 0x2 DUP6 PUSH2 0x74C JUMP JUMPDEST DUP2 PUSH4 0xFFFFFFFF AND LT ISZERO PUSH2 0x36B JUMPI PUSH1 0x2 DUP6 DUP6 PUSH2 0x123 DUP5 DUP5 PUSH2 0x760 JUMP JUMPDEST PUSH4 0xFFFFFFFF AND DUP2 DUP2 LT PUSH2 0x146 JUMPI PUSH4 0x4E487B71 PUSH1 0xE0 SHL PUSH1 0x0 MSTORE PUSH1 0x32 PUSH1 0x4 MSTORE PUSH1 0x24 PUSH1 0x0 REVERT JUMPDEST SWAP1 POP PUSH1 0x20 MUL ADD CALLDATALOAD DUP7 DUP7 DUP5 PUSH1 0x2 PUSH2 0x15C SWAP2 SWAP1 PUSH2 0x760 JUMP JUMPDEST PUSH2 0x167 SWAP1 PUSH1 0x1 PUSH2 0x724 JUMP JUMPDEST PUSH4 0xFFFFFFFF AND DUP2 DUP2 LT PUSH2 0x18A JUMPI PUSH4 0x4E487B71 PUSH1 0xE0 SHL PUSH1 0x0 MSTORE PUSH1 0x32 PUSH1 0x4 MSTORE PUSH1 0x24 PUSH1 0x0 REVERT JUMPDEST SWAP1 POP PUSH1 0x20 MUL ADD CALLDATALOAD PUSH1 0x40 MLOAD PUSH1 0x20 ADD PUSH2 0x1AB SWAP3 SWAP2 SWAP1 SWAP2 DUP3 MSTORE PUSH1 0x20 DUP3 ADD MSTORE PUSH1 0x40 ADD SWAP1 JUMP JUMPDEST PUSH1 0x40 DUP1 MLOAD PUSH1 0x1F NOT DUP2 DUP5 SUB ADD DUP2 MSTORE SWAP1 DUP3 SWAP1 MSTORE PUSH2 0x1C5 SWAP2 PUSH2 0x6EB JUMP JUMPDEST PUSH1 0x20 PUSH1 0x40 MLOAD DUP1 DUP4 SUB DUP2 DUP6 GAS STATICCALL ISZERO DUP1 ISZERO PUSH2 0x1E2 JUMPI RETURNDATASIZE PUSH1 0x0 DUP1 RETURNDATACOPY RETURNDATASIZE PUSH1 0x0 REVERT JUMPDEST POP POP POP PUSH1 0x40 MLOAD RETURNDATASIZE PUSH1 0x1F NOT PUSH1 0x1F DUP3 ADD AND DUP3 ADD DUP1 PUSH1 0x40 MSTORE POP DUP2 ADD SWAP1 PUSH2 0x205 SWAP2 SWAP1 PUSH2 0x614 JUMP JUMPDEST SWAP2 POP PUSH2 0x212 DUP2 PUSH1 0x2 PUSH2 0x760 JUMP JUMPDEST PUSH2 0x21D SWAP1 PUSH1 0x3 PUSH2 0x724 JUMP JUMPDEST PUSH4 0xFFFFFFFF AND PUSH2 0x22E PUSH1 0x1 DUP7 PUSH2 0x78C JUMP JUMPDEST GT ISZERO PUSH2 0x2D9 JUMPI DUP2 DUP6 DUP6 PUSH2 0x242 DUP5 PUSH1 0x2 PUSH2 0x760 JUMP JUMPDEST PUSH2 0x24D SWAP1 PUSH1 0x2 PUSH2 0x724 JUMP JUMPDEST PUSH4 0xFFFFFFFF AND DUP2 DUP2 LT PUSH2 0x270 JUMPI PUSH4 0x4E487B71 PUSH1 0xE0 SHL PUSH1 0x0 MSTORE PUSH1 0x32 PUSH1 0x4 MSTORE PUSH1 0x24 PUSH1 0x0 REVERT JUMPDEST SWAP1 POP PUSH1 0x20 MUL ADD CALLDATALOAD EQ DUP1 ISZERO PUSH2 0x2C4 JUMPI POP DUP2 DUP6 DUP6 PUSH2 0x28D DUP5 PUSH1 0x2 PUSH2 0x760 JUMP JUMPDEST PUSH2 0x298 SWAP1 PUSH1 0x3 PUSH2 0x724 JUMP JUMPDEST PUSH4 0xFFFFFFFF AND DUP2 DUP2 LT PUSH2 0x2BB JUMPI PUSH4 0x4E487B71 PUSH1 0xE0 SHL PUSH1 0x0 MSTORE PUSH1 0x32 PUSH1 0x4 MSTORE PUSH1 0x24 PUSH1 0x0 REVERT JUMPDEST SWAP1 POP PUSH1 0x20 MUL ADD CALLDATALOAD EQ JUMPDEST ISZERO PUSH2 0x2D4 JUMPI PUSH1 0x0 SWAP3 POP POP POP PUSH2 0x371 JUMP JUMPDEST PUSH2 0x359 JUMP JUMPDEST PUSH2 0x2E4 DUP2 PUSH1 0x2 PUSH2 0x760 JUMP JUMPDEST PUSH2 0x2EF SWAP1 PUSH1 0x2 PUSH2 0x724 JUMP JUMPDEST PUSH4 0xFFFFFFFF AND PUSH2 0x300 PUSH1 0x1 DUP7 PUSH2 0x78C JUMP JUMPDEST GT ISZERO PUSH2 0x359 JUMPI DUP2 DUP6 DUP6 PUSH2 0x314 DUP5 PUSH1 0x2 PUSH2 0x760 JUMP JUMPDEST PUSH2 0x31F SWAP1 PUSH1 0x2 PUSH2 0x724 JUMP JUMPDEST PUSH4 0xFFFFFFFF AND DUP2 DUP2 LT PUSH2 0x342 JUMPI PUSH4 0x4E487B71 PUSH1 0xE0 SHL PUSH1 0x0 MSTORE PUSH1 0x32 PUSH1 0x4 MSTORE PUSH1 0x24 PUSH1 0x0 REVERT JUMPDEST SWAP1 POP PUSH1 0x20 MUL ADD CALLDATALOAD EQ PUSH2 0x359 JUMPI PUSH1 0x0 SWAP3 POP POP POP PUSH2 0x371 JUMP JUMPDEST DUP1 PUSH2 0x363 DUP2 PUSH2 0x7A3 JUMP JUMPDEST SWAP2 POP POP PUSH2 0xFD JUMP JUMPDEST POP DUP5 EQ SWAP1 POP JUMPDEST SWAP4 SWAP3 POP POP POP JUMP JUMPDEST PUSH1 0x0 DUP1 PUSH1 0x0 DUP1 DUP5 MLOAD PUSH1 0x41 EQ ISZERO PUSH2 0x3A2 JUMPI POP POP POP PUSH1 0x20 DUP3 ADD MLOAD PUSH1 0x40 DUP4 ADD MLOAD PUSH1 0x60 DUP5 ADD MLOAD PUSH1 0x0 BYTE PUSH2 0x41C JUMP JUMPDEST DUP5 MLOAD PUSH1 0x40 EQ ISZERO PUSH2 0x3D0 JUMPI POP POP POP PUSH1 0x40 DUP3 ADD MLOAD PUSH1 0x20 DUP4 ADD MLOAD SWAP1 PUSH1 0x1 PUSH1 0x1 PUSH1 0xFF SHL SUB DUP2 AND SWAP1 PUSH1 0xFF SHR PUSH1 0x1B ADD PUSH2 0x41C JUMP JUMPDEST PUSH1 0x40 MLOAD PUSH3 0x461BCD PUSH1 0xE5 SHL DUP2 MSTORE PUSH1 0x20 PUSH1 0x4 DUP3 ADD MSTORE PUSH1 0x1F PUSH1 0x24 DUP3 ADD MSTORE PUSH32 0x45434453413A20696E76616C6964207369676E6174757265206C656E67746800 PUSH1 0x44 DUP3 ADD MSTORE PUSH1 0x64 ADD PUSH1 0x40 MLOAD DUP1 SWAP2 SUB SWAP1 REVERT JUMPDEST PUSH1 0x1 PUSH1 0x2 DUP8 PUSH1 0x40 MLOAD PUSH2 0x42E SWAP2 SWAP1 PUSH2 0x6EB JUMP JUMPDEST PUSH1 0x20 PUSH1 0x40 MLOAD DUP1 DUP4 SUB DUP2 DUP6 GAS STATICCALL ISZERO DUP1 ISZERO PUSH2 0x44B JUMPI RETURNDATASIZE PUSH1 0x0 DUP1 RETURNDATACOPY RETURNDATASIZE PUSH1 0x0 REVERT JUMPDEST POP POP POP PUSH1 0x40 MLOAD RETURNDATASIZE PUSH1 0x1F NOT PUSH1 0x1F DUP3 ADD AND DUP3 ADD DUP1 PUSH1 0x40 MSTORE POP DUP2 ADD SWAP1 PUSH2 0x46E SWAP2 SWAP1 PUSH2 0x614 JUMP JUMPDEST PUSH1 0x40 DUP1 MLOAD PUSH1 0x0 DUP2 MSTORE PUSH1 0x20 DUP2 ADD DUP1 DUP4 MSTORE SWAP3 SWAP1 SWAP3 MSTORE PUSH1 0xFF DUP5 AND SWAP1 DUP3 ADD MSTORE PUSH1 0x60 DUP2 ADD DUP6 SWAP1 MSTORE PUSH1 0x80 DUP2 ADD DUP5 SWAP1 MSTORE PUSH1 0xA0 ADD PUSH1 0x20 PUSH1 0x40 MLOAD PUSH1 0x20 DUP2 SUB SWAP1 DUP1 DUP5 SUB SWAP1 DUP6 GAS STATICCALL ISZERO DUP1 ISZERO PUSH2 0x4BC JUMPI RETURNDATASIZE PUSH1 0x0 DUP1 RETURNDATACOPY RETURNDATASIZE PUSH1 0x0 REVERT JUMPDEST POP POP POP PUSH1 0x20 PUSH1 0x40 MLOAD SUB MLOAD PUSH1 0x1 PUSH1 0x1 PUSH1 0xA0 SHL SUB AND DUP8 PUSH1 0x1 PUSH1 0x1 PUSH1 0xA0 SHL SUB AND EQ SWAP4 POP POP POP POP SWAP4 SWAP3 POP POP POP JUMP JUMPDEST PUSH1 0x0 DUP2 PUSH1 0x0 SLOAD DUP5 PUSH2 0x4F7 SWAP2 SWAP1 PUSH2 0x7C7 JUMP JUMPDEST LT ISZERO PUSH2 0x505 JUMPI POP PUSH1 0x1 PUSH2 0x509 JUMP JUMPDEST POP PUSH1 0x0 JUMPDEST SWAP3 SWAP2 POP POP JUMP JUMPDEST PUSH1 0x0 DUP3 PUSH1 0x1F DUP4 ADD SLT PUSH2 0x51F JUMPI DUP1 DUP2 REVERT JUMPDEST DUP2 CALLDATALOAD PUSH8 0xFFFFFFFFFFFFFFFF DUP1 DUP3 GT ISZERO PUSH2 0x53A JUMPI PUSH2 0x53A PUSH2 0x807 JUMP JUMPDEST PUSH1 0x40 MLOAD PUSH1 0x1F DUP4 ADD PUSH1 0x1F NOT SWAP1 DUP2 AND PUSH1 0x3F ADD AND DUP2 ADD SWAP1 DUP3 DUP3 GT DUP2 DUP4 LT OR ISZERO PUSH2 0x562 JUMPI PUSH2 0x562 PUSH2 0x807 JUMP JUMPDEST DUP2 PUSH1 0x40 MSTORE DUP4 DUP2 MSTORE DUP7 PUSH1 0x20 DUP6 DUP9 ADD ADD GT ISZERO PUSH2 0x57A JUMPI DUP5 DUP6 REVERT JUMPDEST DUP4 PUSH1 0x20 DUP8 ADD PUSH1 0x20 DUP4 ADD CALLDATACOPY SWAP3 DUP4 ADD PUSH1 0x20 ADD SWAP4 SWAP1 SWAP4 MSTORE POP SWAP4 SWAP3 POP POP POP JUMP JUMPDEST PUSH1 0x0 DUP1 PUSH1 0x0 PUSH1 0x60 DUP5 DUP7 SUB SLT ISZERO PUSH2 0x5AA JUMPI DUP3 DUP4 REVERT JUMPDEST DUP4 CALLDATALOAD PUSH1 0x1 PUSH1 0x1 PUSH1 0xA0 SHL SUB DUP2 AND DUP2 EQ PUSH2 0x5C0 JUMPI DUP4 DUP5 REVERT JUMPDEST SWAP3 POP PUSH1 0x20 DUP5 ADD CALLDATALOAD PUSH8 0xFFFFFFFFFFFFFFFF DUP1 DUP3 GT ISZERO PUSH2 0x5DC JUMPI DUP4 DUP5 REVERT JUMPDEST PUSH2 0x5E8 DUP8 DUP4 DUP9 ADD PUSH2 0x50F JUMP JUMPDEST SWAP4 POP PUSH1 0x40 DUP7 ADD CALLDATALOAD SWAP2 POP DUP1 DUP3 GT ISZERO PUSH2 0x5FD JUMPI DUP3 DUP4 REVERT JUMPDEST POP PUSH2 0x60A DUP7 DUP3 DUP8 ADD PUSH2 0x50F JUMP JUMPDEST SWAP2 POP POP SWAP3 POP SWAP3 POP SWAP3 JUMP JUMPDEST PUSH1 0x0 PUSH1 0x20 DUP3 DUP5 SUB SLT ISZERO PUSH2 0x625 JUMPI DUP1 DUP2 REVERT JUMPDEST POP MLOAD SWAP2 SWAP1 POP JUMP JUMPDEST PUSH1 0x0 DUP1 PUSH1 0x0 PUSH1 0x40 DUP5 DUP7 SUB SLT ISZERO PUSH2 0x640 JUMPI DUP3 DUP4 REVERT JUMPDEST DUP4 CALLDATALOAD SWAP3 POP PUSH1 0x20 DUP5 ADD CALLDATALOAD PUSH8 0xFFFFFFFFFFFFFFFF DUP1 DUP3 GT ISZERO PUSH2 0x65E JUMPI DUP4 DUP5 REVERT JUMPDEST DUP2 DUP7 ADD SWAP2 POP DUP7 PUSH1 0x1F DUP4 ADD SLT PUSH2 0x671 JUMPI DUP4 DUP5 REVERT JUMPDEST DUP2 CALLDATALOAD DUP2 DUP2 GT ISZERO PUSH2 0x67F JUMPI DUP5 DUP6 REVERT JUMPDEST DUP8 PUSH1 0x20 DUP3 PUSH1 0x5 SHL DUP6 ADD ADD GT ISZERO PUSH2 0x693 JUMPI DUP5 DUP6 REVERT JUMPDEST PUSH1 0x20 DUP4 ADD SWAP5 POP DUP1 SWAP4 POP POP POP POP SWAP3 POP SWAP3 POP SWAP3 JUMP JUMPDEST PUSH1 0x0 DUP1 PUSH1 0x40 DUP4 DUP6 SUB SLT ISZERO PUSH2 0x6B8 JUMPI DUP2 DUP3 REVERT JUMPDEST POP POP DUP1 CALLDATALOAD SWAP3 PUSH1 0x20 SWAP1 SWAP2 ADD CALLDATALOAD SWAP2 POP JUMP JUMPDEST PUSH1 0x0 PUSH1 0x20 DUP3 DUP5 SUB SLT ISZERO PUSH2 0x6D8 JUMPI DUP1 DUP2 REVERT JUMPDEST DUP2 CALLDATALOAD PUSH4 0xFFFFFFFF DUP2 AND DUP2 EQ PUSH2 0x371 JUMPI DUP2 DUP3 REVERT JUMPDEST PUSH1 0x0 DUP3 MLOAD DUP2 JUMPDEST DUP2 DUP2 LT ISZERO PUSH2 0x70B JUMPI PUSH1 0x20 DUP2 DUP7 ADD DUP2 ADD MLOAD DUP6 DUP4 ADD MSTORE ADD PUSH2 0x6F1 JUMP JUMPDEST DUP2 DUP2 GT ISZERO PUSH2 0x719 JUMPI DUP3 DUP3 DUP6 ADD MSTORE JUMPDEST POP SWAP2 SWAP1 SWAP2 ADD SWAP3 SWAP2 POP POP JUMP JUMPDEST PUSH1 0x0 PUSH4 0xFFFFFFFF DUP1 DUP4 AND DUP2 DUP6 AND DUP1 DUP4 SUB DUP3 GT ISZERO PUSH2 0x743 JUMPI PUSH2 0x743 PUSH2 0x7DB JUMP JUMPDEST ADD SWAP5 SWAP4 POP POP POP POP JUMP JUMPDEST PUSH1 0x0 DUP3 PUSH2 0x75B JUMPI PUSH2 0x75B PUSH2 0x7F1 JUMP JUMPDEST POP DIV SWAP1 JUMP JUMPDEST PUSH1 0x0 PUSH4 0xFFFFFFFF DUP1 DUP4 AND DUP2 DUP6 AND DUP2 DUP4 DIV DUP2 GT DUP3 ISZERO ISZERO AND ISZERO PUSH2 0x783 JUMPI PUSH2 0x783 PUSH2 0x7DB JUMP JUMPDEST MUL SWAP5 SWAP4 POP POP POP POP JUMP JUMPDEST PUSH1 0x0 DUP3 DUP3 LT ISZERO PUSH2 0x79E JUMPI PUSH2 0x79E PUSH2 0x7DB JUMP JUMPDEST POP SUB SWAP1 JUMP JUMPDEST PUSH1 0x0 PUSH4 0xFFFFFFFF DUP1 DUP4 AND DUP2 DUP2 EQ ISZERO PUSH2 0x7BD JUMPI PUSH2 0x7BD PUSH2 0x7DB JUMP JUMPDEST PUSH1 0x1 ADD SWAP4 SWAP3 POP POP POP JUMP JUMPDEST PUSH1 0x0 DUP3 PUSH2 0x7D6 JUMPI PUSH2 0x7D6 PUSH2 0x7F1 JUMP JUMPDEST POP MOD SWAP1 JUMP JUMPDEST PUSH4 0x4E487B71 PUSH1 0xE0 SHL PUSH1 0x0 MSTORE PUSH1 0x11 PUSH1 0x4 MSTORE PUSH1 0x24 PUSH1 0x0 REVERT JUMPDEST PUSH4 0x4E487B71 PUSH1 0xE0 SHL PUSH1 0x0 MSTORE PUSH1 0x12 PUSH1 0x4 MSTORE PUSH1 0x24 PUSH1 0x0 REVERT JUMPDEST PUSH4 0x4E487B71 PUSH1 0xE0 SHL PUSH1 0x0 MSTORE PUSH1 0x41 PUSH1 0x4 MSTORE PUSH1 0x24 PUSH1 0x0 REVERT INVALID LOG2 PUSH5 0x6970667358 0x22 SLT KECCAK256 0x2C 0xCA PUSH2 0x162F 0xC3 0xE2 0x2E DUP16 0xDA 0xD1 CALLDATACOPY SSTORE 0xD5 BYTE 0xF7 0xE2 0xF9 0x49 SWAP4 DUP6 0xC6 0xBA 0xCD DUP6 JUMP 0x4D PUSH2 0x6C62 JUMPDEST 0xA6 PUSH5 0x736F6C6343 STOP ADDMOD DIV STOP CALLER "
		},
		"gasEstimates": {
			"creation": {
				"codeDepositCost": "426200",
				"executionCost": "infinite",
				"totalCost": "infinite"
			},
			"external": {
				"base_difficulty()": "1017",
				"getBlockHash(uint32)": "417",
				"getBlockNumber()": "226",
				"isMatchDifficulty(uint256,uint256)": "1280",
				"isValidMerkleTreeProof(bytes32,bytes32[])": "infinite",
				"isValidSign(address,bytes,bytes)": "infinite"
			}
		},
		"methodIdentifiers": {
			"base_difficulty()": "2d36de7a",
			"getBlockHash(uint32)": "d2b210a1",
			"getBlockNumber()": "42cbb15c",
			"isMatchDifficulty(uint256,uint256)": "812adbd8",
			"isValidMerkleTreeProof(bytes32,bytes32[])": "059dbb30",
			"isValidSign(address,bytes,bytes)": "16ecc0e6"
		}
	},
	"abi": [
		{
			"inputs": [
				{
					"internalType": "uint256",
					"name": "_baseDifficulty",
					"type": "uint256"
				}
			],
			"stateMutability": "nonpayable",
			"type": "constructor"
		},
		{
			"anonymous": false,
			"inputs": [
				{
					"indexed": false,
					"internalType": "bytes32",
					"name": "wrong_hash",
					"type": "bytes32"
				}
			],
			"name": "wrongError",
			"type": "event"
		},
		{
			"inputs": [],
			"name": "base_difficulty",
			"outputs": [
				{
					"internalType": "uint256",
					"name": "",
					"type": "uint256"
				}
			],
			"stateMutability": "view",
			"type": "function"
		},
		{
			"inputs": [
				{
					"internalType": "uint32",
					"name": "_n",
					"type": "uint32"
				}
			],
			"name": "getBlockHash",
			"outputs": [
				{
					"internalType": "bytes32",
					"name": "",
					"type": "bytes32"
				}
			],
			"stateMutability": "view",
			"type": "function"
		},
		{
			"inputs": [],
			"name": "getBlockNumber",
			"outputs": [
				{
					"internalType": "uint32",
					"name": "",
					"type": "uint32"
				}
			],
			"stateMutability": "view",
			"type": "function"
		},
		{
			"inputs": [
				{
					"internalType": "uint256",
					"name": "_proof",
					"type": "uint256"
				},
				{
					"internalType": "uint256",
					"name": "_targetDifficulty",
					"type": "uint256"
				}
			],
			"name": "isMatchDifficulty",
			"outputs": [
				{
					"internalType": "bool",
					"name": "",
					"type": "bool"
				}
			],
			"stateMutability": "view",
			"type": "function"
		},
		{
			"inputs": [
				{
					"internalType": "bytes32",
					"name": "_root_hash",
					"type": "bytes32"
				},
				{
					"internalType": "bytes32[]",
					"name": "proof",
					"type": "bytes32[]"
				}
			],
			"name": "isValidMerkleTreeProof",
			"outputs": [
				{
					"internalType": "bool",
					"name": "",
					"type": "bool"
				}
			],
			"stateMutability": "pure",
			"type": "function"
		},
		{
			"inputs": [
				{
					"internalType": "address",
					"name": "_signer",
					"type": "address"
				},
				{
					"internalType": "bytes",
					"name": "message",
					"type": "bytes"
				},
				{
					"internalType": "bytes",
					"name": "signature",
					"type": "bytes"
				}
			],
			"name": "isValidSign",
			"outputs": [
				{
					"internalType": "bool",
					"name": "",
					"type": "bool"
				}
			],
			"stateMutability": "pure",
			"type": "function"
		}
	]
}