{
	"data": {
		"bytecode": {
			"linkReferences": {},
			"object": "608060405260646004553480156200001657600080fd5b5060405162001a4038038062001a40833981016040819052620000399162000099565b600080546001600160a01b03199081163317909155600191909155600280546001600160a01b0394851690831617905560038054929093169116179055620000d9565b80516001600160a01b03811681146200009457600080fd5b919050565b600080600060608486031215620000ae578283fd5b620000b9846200007c565b9250620000c9602085016200007c565b9150604084015190509250925092565b61195780620000e96000396000f3fe608060405234801561001057600080fd5b506004361061012c5760003560e01c80638da5cb5b116100ad578063dc8d0a4011610071578063dc8d0a40146102ac578063e067ae4c146102bf578063eb5439dc146102d2578063f2fde38b146102e5578063f9a76fde146102f857600080fd5b80638da5cb5b14610248578063957476781461025b578063b5c6da271461026e578063bf5d0a0014610281578063d2b210a11461029457600080fd5b806342cbb15c116100f457806342cbb15c146101c157806346f03dd5146101d557806369517310146101ea57806374556ca914610222578063812adbd81461023557600080fd5b8063059dbb30146101315780631079a3261461015957806316ecc0e6146101845780631d285f0a146101975780632d36de7a146101aa575b600080fd5b61014461013f366004611689565b610320565b60405190151581526020015b60405180910390f35b60025461016c906001600160a01b031681565b6040516001600160a01b039091168152602001610150565b6101446101923660046114fd565b6105a0565b6101446101a5366004611490565b61070f565b6101b360015481565b604051908152602001610150565b60405163ffffffff43168152602001610150565b6101e86101e33660046113a8565b6107a3565b005b6101fd6101f8366004611338565b610888565b604080516001600160a01b039094168452602084019290925290820152606001610150565b6101e861023036600461159a565b610a6d565b61014461024336600461170d565b610b0f565b60005461016c906001600160a01b031681565b60035461016c906001600160a01b031681565b6101e861027c3660046116f5565b610b38565b6101e861028f36600461156f565b610b54565b6101b36102a236600461172e565b63ffffffff164090565b6101e86102ba366004611338565b610bc8565b6101e86102cd366004611338565b610c34565b6101e86102e0366004611370565b610c6e565b6101e86102f3366004611338565b610cb3565b61030b610306366004611338565b610d38565b60408051928352602083019190915201610150565b600080805b610330600285611807565b8163ffffffff161015610593576002858561034b848461183a565b63ffffffff1681811061036e57634e487b7160e01b600052603260045260246000fd5b905060200201358686846002610384919061183a565b61038f9060016117df565b63ffffffff168181106103b257634e487b7160e01b600052603260045260246000fd5b905060200201356040516020016103d3929190918252602082015260400190565b60408051601f19818403018152908290526103ed916117a6565b602060405180830381855afa15801561040a573d6000803e3d6000fd5b5050506040513d601f19601f8201168201806040525081019061042d9190611671565b915061043a81600261183a565b6104459060036117df565b63ffffffff16610456600186611866565b11156105015781858561046a84600261183a565b6104759060026117df565b63ffffffff1681811061049857634e487b7160e01b600052603260045260246000fd5b905060200201351480156104ec57508185856104b584600261183a565b6104c09060036117df565b63ffffffff168181106104e357634e487b7160e01b600052603260045260246000fd5b90506020020135145b156104fc57600092505050610599565b610581565b61050c81600261183a565b6105179060026117df565b63ffffffff16610528600186611866565b11156105815781858561053c84600261183a565b6105479060026117df565b63ffffffff1681811061056a57634e487b7160e01b600052603260045260246000fd5b905060200201351461058157600092505050610599565b8061058b8161187d565b915050610325565b50841490505b9392505050565b6000806000808451604114156105ca5750505060208201516040830151606084015160001a610645565b8451604014156105f85750505060408201516020830151906001600160ff1b0381169060ff1c601b01610645565b60405162461bcd60e51b815260206004820152601f60248201527f45434453413a20696e76616c6964207369676e6174757265206c656e6774680060448201526064015b60405180910390fd5b600160028760405161065791906117a6565b602060405180830381855afa158015610674573d6000803e3d6000fd5b5050506040513d601f19601f820116820180604052508101906106979190611671565b6040805160008152602081018083529290925260ff841690820152606081018590526080810184905260a0016020604051602081039080840390855afa1580156106e5573d6000803e3d6000fd5b505050602060405103516001600160a01b0316876001600160a01b03161493505050509392505050565b60008060028686898763ffffffff16406040516020016107329493929190611776565b60408051601f198184030181529082905261074c916117a6565b602060405180830381855afa158015610769573d6000803e3d6000fd5b5050506040513d601f19601f8201168201806040525081019061078c9190611671565b90506107988184610b0f565b979650505050505050565b6040805180820182526001600160a01b038d811682528c1660208083019190915282519081018b90526001600160401b038a16928101929092529061082c908c906060015b60408051601f198184030181526020601f8c018190048102840181019092528a835291908b908b90819084018382808284376000920191909152506105a092505050565b61086a5760405162461bcd60e51b815260206004820152600f60248201526e77726f6e67207369676e617475726560881b604482015260640161063c565b61087a818b8b8b89898989610dc4565b505050505050505050505050565b60035460025460405163b819097760e01b81526001600160a01b038481166004830152600093849384939183169216908390829063b81909779060240160206040518083038186803b1580156108dd57600080fd5b505afa1580156108f1573d6000803e3d6000fd5b505050506040513d601f19601f820116820180604052508101906109159190611354565b60405163d4fac45d60e01b81526001600160a01b038083166004830152898116602483015291925060009185169063d4fac45d9060440160206040518083038186803b15801561096457600080fd5b505afa158015610978573d6000803e3d6000fd5b505050506040513d601f19601f8201168201806040525081019061099c9190611671565b905060006109ad6220148083611807565b604051631098e0d760e31b81526001600160a01b038b811660048301529192506000918616906384c706b89060240160206040518083038186803b1580156109f457600080fd5b505afa158015610a08573d6000803e3d6000fd5b505050506040513d601f19601f82011682018060405250810190610a2c919061174a565b90506000610a4063ffffffff831643611866565b90506000610a548463ffffffff841661181b565b959c959b505063ffffffff169850929650505050505050565b6040805180820182523381526001600160a01b038c1660208083019190915282519081018b90526001600160401b038a169281019290925290610ab4908c906060016107e8565b610af25760405162461bcd60e51b815260206004820152600f60248201526e77726f6e67207369676e617475726560881b604482015260640161063c565b610b02818b8b8b89898989610dc4565b5050505050505050505050565b60008160015484610b2091906118a1565b1015610b2e57506001610b32565b5060005b92915050565b6000546001600160a01b03163314610b4f57600080fd5b600155565b600354604051630ece7f5360e31b81523360048201526001600160a01b03848116602483015260448201849052909116908190637673fa98906064015b600060405180830381600087803b158015610bab57600080fd5b505af1158015610bbf573d6000803e3d6000fd5b50505050505050565b60035460405163e19ae7c360e01b81523360048201526001600160a01b03838116602483015290911690819063e19ae7c3906044015b600060405180830381600087803b158015610c1857600080fd5b505af1158015610c2c573d6000803e3d6000fd5b505050505050565b6002546040516375623b1b60e11b81523360048201526001600160a01b03838116602483015290911690819063eac4763690604401610bfe565b6000546001600160a01b03163314610c8557600080fd5b600280546001600160a01b039384166001600160a01b03199182161790915560038054929093169116179055565b6000546001600160a01b03163314610cca57600080fd5b6001600160a01b038116610cdd57600080fd5b600080546040516001600160a01b03808516939216917f8be0079c531659141344cd1fd0a4f28419497f9722a3daafe3b4186f6b6457e091a3600080546001600160a01b0319166001600160a01b0392909216919091179055565b600254604051635e73192d60e11b81526001600160a01b0383811660048301526000928392911690819063bce6325a90602401604080518083038186803b158015610d8257600080fd5b505afa158015610d96573d6000803e3d6000fd5b505050506040513d601f19601f82011682018060405250810190610dba91906116d2565b9250925050915091565b87516001600160a01b031615801590610de9575060208801516001600160a01b031615155b610e2d5760405162461bcd60e51b8152602060048201526015602482015274616464726573732063616e2774206265207a65726f60581b604482015260640161063c565b60208801518851610e4091908888611075565b60008060008060028888604051610e58929190611766565b602060405180830381855afa158015610e75573d6000803e3d6000fd5b5050506040513d601f19601f82011682018060405250810190610e989190611671565b9050610eaa8c60016020020151610888565b6004549296509094509250610ebf9043611866565b8b63ffffffff1611610f035760405162461bcd60e51b815260206004820152600d60248201526c2a37b79037b63210383937b7b360991b604482015260640161063c565b610f0e8a8787610320565b610f4e5760405162461bcd60e51b81526020600482015260116024820152702bb937b7339036b2b935b632a83937b7b360791b604482015260640161063c565b8b51610f5d9089898e8661070f565b610fa05760405162461bcd60e51b81526020600482015260146024820152734e6f74206d6174636820646966666963756c747960601b604482015260640161063c565b85856000818110610fc157634e487b7160e01b600052603260045260246000fd5b90506020020135811480610ffb575085856001818110610ff157634e487b7160e01b600052603260045260246000fd5b9050602002013581145b6110535760405162461bcd60e51b815260206004820152602360248201527f6e6f7420666f756e64205f66696c655f6861736820696e206d65726b6c65507260448201526237b7b360e91b606482015260840161063c565b60208c01518c51611066918691866110e6565b60208c015161087a9043611166565b60008061108186610d38565b90925090506001600160401b0383168111156110d35760405162461bcd60e51b81526020600482015260116024820152700a8dede40ded8c840e4dedee840d0c2e6d607b1b604482015260640161063c565b818414610c2c57610c2c868585886111a6565b60035460405163d8add41b60e01b81526001600160a01b038681166004830152858116602483015284811660448301526064820184905290911690819063d8add41b906084015b600060405180830381600087803b15801561114757600080fd5b505af115801561115b573d6000803e3d6000fd5b505050505050505050565b60025460405163c9254f6f60e01b81526001600160a01b03848116600483015263ffffffff8416602483015290911690819063c9254f6f90604401610b91565b600254604051630d79cf7d60e21b81526001600160a01b038681166004830152602482018690526001600160401b038516604483015283811660648301529091169081906335e73df49060840161112d565b8035611203816118f7565b919050565b60008083601f840112611219578081fd5b5081356001600160401b0381111561122f578182fd5b6020830191508360208260051b850101111561124a57600080fd5b9250929050565b60008083601f840112611262578182fd5b5081356001600160401b03811115611278578182fd5b60208301915083602082850101111561124a57600080fd5b600082601f8301126112a0578081fd5b81356001600160401b03808211156112ba576112ba6118e1565b604051601f8301601f19908116603f011681019082821181831017156112e2576112e26118e1565b816040528381528660208588010111156112fa578485fd5b8360208701602083013792830160200193909352509392505050565b80356112038161190f565b80356001600160401b038116811461120357600080fd5b600060208284031215611349578081fd5b8135610599816118f7565b600060208284031215611365578081fd5b8151610599816118f7565b60008060408385031215611382578081fd5b823561138d816118f7565b9150602083013561139d816118f7565b809150509250929050565b60008060008060008060008060008060006101008c8e0312156113c9578687fd5b6113d28c6111f8565b9a506113e060208d016111f8565b99506113ee60408d01611316565b985060608c0135975061140360808d01611321565b96506001600160401b038060a08e0135111561141d578687fd5b61142d8e60a08f01358f01611251565b909750955060c08d0135811015611442578485fd5b6114528e60c08f01358f01611251565b909550935060e08d0135811015611467578283fd5b506114788d60e08e01358e01611208565b81935080925050509295989b509295989b9093969950565b6000806000806000608086880312156114a7578081fd5b85356114b2816118f7565b945060208601356001600160401b038111156114cc578182fd5b6114d888828901611251565b90955093505060408601356114ec8161190f565b949793965091946060013592915050565b600080600060608486031215611511578283fd5b833561151c816118f7565b925060208401356001600160401b0380821115611537578384fd5b61154387838801611290565b93506040860135915080821115611558578283fd5b5061156586828701611290565b9150509250925092565b60008060408385031215611581578182fd5b823561158c816118f7565b946020939093013593505050565b60008060008060008060008060008060e08b8d0312156115b8578586fd5b8a356115c3816118f7565b995060208b01356115d38161190f565b985060408b013597506115e860608c01611321565b965060808b01356001600160401b0380821115611603578788fd5b61160f8e838f01611251565b909850965060a08d0135915080821115611627578586fd5b6116338e838f01611251565b909650945060c08d013591508082111561164b578384fd5b506116588d828e01611208565b915080935050809150509295989b9194979a5092959850565b600060208284031215611682578081fd5b5051919050565b60008060006040848603121561169d578081fd5b8335925060208401356001600160401b038111156116b9578182fd5b6116c586828701611208565b9497909650939450505050565b600080604083850312156116e4578182fd5b505080516020909101519092909150565b600060208284031215611706578081fd5b5035919050565b6000806040838503121561171f578182fd5b50508035926020909101359150565b60006020828403121561173f578081fd5b81356105998161190f565b60006020828403121561175b578081fd5b81516105998161190f565b8183823760009101908152919050565b8385823760609290921b6bffffffffffffffffffffffff1916919092019081526014810191909152603401919050565b60008251815b818110156117c657602081860181015185830152016117ac565b818111156117d45782828501525b509190910192915050565b600063ffffffff8083168185168083038211156117fe576117fe6118b5565b01949350505050565b600082611816576118166118cb565b500490565b6000816000190483118215151615611835576118356118b5565b500290565b600063ffffffff8083168185168183048111821515161561185d5761185d6118b5565b02949350505050565b600082821015611878576118786118b5565b500390565b600063ffffffff80831681811415611897576118976118b5565b6001019392505050565b6000826118b0576118b06118cb565b500690565b634e487b7160e01b600052601160045260246000fd5b634e487b7160e01b600052601260045260246000fd5b634e487b7160e01b600052604160045260246000fd5b6001600160a01b038116811461190c57600080fd5b50565b63ffffffff8116811461190c57600080fdfea2646970667358221220a02634662687e31e2434ab0386b3c16eb65e33cc47db29dff2ed2435d2678aff64736f6c63430008040033",
			"opcodes": "PUSH1 0x80 PUSH1 0x40 MSTORE PUSH1 0x64 PUSH1 0x4 SSTORE CALLVALUE DUP1 ISZERO PUSH3 0x16 JUMPI PUSH1 0x0 DUP1 REVERT JUMPDEST POP PUSH1 0x40 MLOAD PUSH3 0x1A40 CODESIZE SUB DUP1 PUSH3 0x1A40 DUP4 CODECOPY DUP2 ADD PUSH1 0x40 DUP2 SWAP1 MSTORE PUSH3 0x39 SWAP2 PUSH3 0x99 JUMP JUMPDEST PUSH1 0x0 DUP1 SLOAD PUSH1 0x1 PUSH1 0x1 PUSH1 0xA0 SHL SUB NOT SWAP1 DUP2 AND CALLER OR SWAP1 SWAP2 SSTORE PUSH1 0x1 SWAP2 SWAP1 SWAP2 SSTORE PUSH1 0x2 DUP1 SLOAD PUSH1 0x1 PUSH1 0x1 PUSH1 0xA0 SHL SUB SWAP5 DUP6 AND SWAP1 DUP4 AND OR SWAP1 SSTORE PUSH1 0x3 DUP1 SLOAD SWAP3 SWAP1 SWAP4 AND SWAP2 AND OR SWAP1 SSTORE PUSH3 0xD9 JUMP JUMPDEST DUP1 MLOAD PUSH1 0x1 PUSH1 0x1 PUSH1 0xA0 SHL SUB DUP2 AND DUP2 EQ PUSH3 0x94 JUMPI PUSH1 0x0 DUP1 REVERT JUMPDEST SWAP2 SWAP1 POP JUMP JUMPDEST PUSH1 0x0 DUP1 PUSH1 0x0 PUSH1 0x60 DUP5 DUP7 SUB SLT ISZERO PUSH3 0xAE JUMPI DUP3 DUP4 REVERT JUMPDEST PUSH3 0xB9 DUP5 PUSH3 0x7C JUMP JUMPDEST SWAP3 POP PUSH3 0xC9 PUSH1 0x20 DUP6 ADD PUSH3 0x7C JUMP JUMPDEST SWAP2 POP PUSH1 0x40 DUP5 ADD MLOAD SWAP1 POP SWAP3 POP SWAP3 POP SWAP3 JUMP JUMPDEST PUSH2 0x1957 DUP1 PUSH3 0xE9 PUSH1 0x0 CODECOPY PUSH1 0x0 RETURN INVALID PUSH1 0x80 PUSH1 0x40 MSTORE CALLVALUE DUP1 ISZERO PUSH2 0x10 JUMPI PUSH1 0x0 DUP1 REVERT JUMPDEST POP PUSH1 0x4 CALLDATASIZE LT PUSH2 0x12C JUMPI PUSH1 0x0 CALLDATALOAD PUSH1 0xE0 SHR DUP1 PUSH4 0x8DA5CB5B GT PUSH2 0xAD JUMPI DUP1 PUSH4 0xDC8D0A40 GT PUSH2 0x71 JUMPI DUP1 PUSH4 0xDC8D0A40 EQ PUSH2 0x2AC JUMPI DUP1 PUSH4 0xE067AE4C EQ PUSH2 0x2BF JUMPI DUP1 PUSH4 0xEB5439DC EQ PUSH2 0x2D2 JUMPI DUP1 PUSH4 0xF2FDE38B EQ PUSH2 0x2E5 JUMPI DUP1 PUSH4 0xF9A76FDE EQ PUSH2 0x2F8 JUMPI PUSH1 0x0 DUP1 REVERT JUMPDEST DUP1 PUSH4 0x8DA5CB5B EQ PUSH2 0x248 JUMPI DUP1 PUSH4 0x95747678 EQ PUSH2 0x25B JUMPI DUP1 PUSH4 0xB5C6DA27 EQ PUSH2 0x26E JUMPI DUP1 PUSH4 0xBF5D0A00 EQ PUSH2 0x281 JUMPI DUP1 PUSH4 0xD2B210A1 EQ PUSH2 0x294 JUMPI PUSH1 0x0 DUP1 REVERT JUMPDEST DUP1 PUSH4 0x42CBB15C GT PUSH2 0xF4 JUMPI DUP1 PUSH4 0x42CBB15C EQ PUSH2 0x1C1 JUMPI DUP1 PUSH4 0x46F03DD5 EQ PUSH2 0x1D5 JUMPI DUP1 PUSH4 0x69517310 EQ PUSH2 0x1EA JUMPI DUP1 PUSH4 0x74556CA9 EQ PUSH2 0x222 JUMPI DUP1 PUSH4 0x812ADBD8 EQ PUSH2 0x235 JUMPI PUSH1 0x0 DUP1 REVERT JUMPDEST DUP1 PUSH4 0x59DBB30 EQ PUSH2 0x131 JUMPI DUP1 PUSH4 0x1079A326 EQ PUSH2 0x159 JUMPI DUP1 PUSH4 0x16ECC0E6 EQ PUSH2 0x184 JUMPI DUP1 PUSH4 0x1D285F0A EQ PUSH2 0x197 JUMPI DUP1 PUSH4 0x2D36DE7A EQ PUSH2 0x1AA JUMPI JUMPDEST PUSH1 0x0 DUP1 REVERT JUMPDEST PUSH2 0x144 PUSH2 0x13F CALLDATASIZE PUSH1 0x4 PUSH2 0x1689 JUMP JUMPDEST PUSH2 0x320 JUMP JUMPDEST PUSH1 0x40 MLOAD SWAP1 ISZERO ISZERO DUP2 MSTORE PUSH1 0x20 ADD JUMPDEST PUSH1 0x40 MLOAD DUP1 SWAP2 SUB SWAP1 RETURN JUMPDEST PUSH1 0x2 SLOAD PUSH2 0x16C SWAP1 PUSH1 0x1 PUSH1 0x1 PUSH1 0xA0 SHL SUB AND DUP2 JUMP JUMPDEST PUSH1 0x40 MLOAD PUSH1 0x1 PUSH1 0x1 PUSH1 0xA0 SHL SUB SWAP1 SWAP2 AND DUP2 MSTORE PUSH1 0x20 ADD PUSH2 0x150 JUMP JUMPDEST PUSH2 0x144 PUSH2 0x192 CALLDATASIZE PUSH1 0x4 PUSH2 0x14FD JUMP JUMPDEST PUSH2 0x5A0 JUMP JUMPDEST PUSH2 0x144 PUSH2 0x1A5 CALLDATASIZE PUSH1 0x4 PUSH2 0x1490 JUMP JUMPDEST PUSH2 0x70F JUMP JUMPDEST PUSH2 0x1B3 PUSH1 0x1 SLOAD DUP2 JUMP JUMPDEST PUSH1 0x40 MLOAD SWAP1 DUP2 MSTORE PUSH1 0x20 ADD PUSH2 0x150 JUMP JUMPDEST PUSH1 0x40 MLOAD PUSH4 0xFFFFFFFF NUMBER AND DUP2 MSTORE PUSH1 0x20 ADD PUSH2 0x150 JUMP JUMPDEST PUSH2 0x1E8 PUSH2 0x1E3 CALLDATASIZE PUSH1 0x4 PUSH2 0x13A8 JUMP JUMPDEST PUSH2 0x7A3 JUMP JUMPDEST STOP JUMPDEST PUSH2 0x1FD PUSH2 0x1F8 CALLDATASIZE PUSH1 0x4 PUSH2 0x1338 JUMP JUMPDEST PUSH2 0x888 JUMP JUMPDEST PUSH1 0x40 DUP1 MLOAD PUSH1 0x1 PUSH1 0x1 PUSH1 0xA0 SHL SUB SWAP1 SWAP5 AND DUP5 MSTORE PUSH1 0x20 DUP5 ADD SWAP3 SWAP1 SWAP3 MSTORE SWAP1 DUP3 ADD MSTORE PUSH1 0x60 ADD PUSH2 0x150 JUMP JUMPDEST PUSH2 0x1E8 PUSH2 0x230 CALLDATASIZE PUSH1 0x4 PUSH2 0x159A JUMP JUMPDEST PUSH2 0xA6D JUMP JUMPDEST PUSH2 0x144 PUSH2 0x243 CALLDATASIZE PUSH1 0x4 PUSH2 0x170D JUMP JUMPDEST PUSH2 0xB0F JUMP JUMPDEST PUSH1 0x0 SLOAD PUSH2 0x16C SWAP1 PUSH1 0x1 PUSH1 0x1 PUSH1 0xA0 SHL SUB AND DUP2 JUMP JUMPDEST PUSH1 0x3 SLOAD PUSH2 0x16C SWAP1 PUSH1 0x1 PUSH1 0x1 PUSH1 0xA0 SHL SUB AND DUP2 JUMP JUMPDEST PUSH2 0x1E8 PUSH2 0x27C CALLDATASIZE PUSH1 0x4 PUSH2 0x16F5 JUMP JUMPDEST PUSH2 0xB38 JUMP JUMPDEST PUSH2 0x1E8 PUSH2 0x28F CALLDATASIZE PUSH1 0x4 PUSH2 0x156F JUMP JUMPDEST PUSH2 0xB54 JUMP JUMPDEST PUSH2 0x1B3 PUSH2 0x2A2 CALLDATASIZE PUSH1 0x4 PUSH2 0x172E JUMP JUMPDEST PUSH4 0xFFFFFFFF AND BLOCKHASH SWAP1 JUMP JUMPDEST PUSH2 0x1E8 PUSH2 0x2BA CALLDATASIZE PUSH1 0x4 PUSH2 0x1338 JUMP JUMPDEST PUSH2 0xBC8 JUMP JUMPDEST PUSH2 0x1E8 PUSH2 0x2CD CALLDATASIZE PUSH1 0x4 PUSH2 0x1338 JUMP JUMPDEST PUSH2 0xC34 JUMP JUMPDEST PUSH2 0x1E8 PUSH2 0x2E0 CALLDATASIZE PUSH1 0x4 PUSH2 0x1370 JUMP JUMPDEST PUSH2 0xC6E JUMP JUMPDEST PUSH2 0x1E8 PUSH2 0x2F3 CALLDATASIZE PUSH1 0x4 PUSH2 0x1338 JUMP JUMPDEST PUSH2 0xCB3 JUMP JUMPDEST PUSH2 0x30B PUSH2 0x306 CALLDATASIZE PUSH1 0x4 PUSH2 0x1338 JUMP JUMPDEST PUSH2 0xD38 JUMP JUMPDEST PUSH1 0x40 DUP1 MLOAD SWAP3 DUP4 MSTORE PUSH1 0x20 DUP4 ADD SWAP2 SWAP1 SWAP2 MSTORE ADD PUSH2 0x150 JUMP JUMPDEST PUSH1 0x0 DUP1 DUP1 JUMPDEST PUSH2 0x330 PUSH1 0x2 DUP6 PUSH2 0x1807 JUMP JUMPDEST DUP2 PUSH4 0xFFFFFFFF AND LT ISZERO PUSH2 0x593 JUMPI PUSH1 0x2 DUP6 DUP6 PUSH2 0x34B DUP5 DUP5 PUSH2 0x183A JUMP JUMPDEST PUSH4 0xFFFFFFFF AND DUP2 DUP2 LT PUSH2 0x36E JUMPI PUSH4 0x4E487B71 PUSH1 0xE0 SHL PUSH1 0x0 MSTORE PUSH1 0x32 PUSH1 0x4 MSTORE PUSH1 0x24 PUSH1 0x0 REVERT JUMPDEST SWAP1 POP PUSH1 0x20 MUL ADD CALLDATALOAD DUP7 DUP7 DUP5 PUSH1 0x2 PUSH2 0x384 SWAP2 SWAP1 PUSH2 0x183A JUMP JUMPDEST PUSH2 0x38F SWAP1 PUSH1 0x1 PUSH2 0x17DF JUMP JUMPDEST PUSH4 0xFFFFFFFF AND DUP2 DUP2 LT PUSH2 0x3B2 JUMPI PUSH4 0x4E487B71 PUSH1 0xE0 SHL PUSH1 0x0 MSTORE PUSH1 0x32 PUSH1 0x4 MSTORE PUSH1 0x24 PUSH1 0x0 REVERT JUMPDEST SWAP1 POP PUSH1 0x20 MUL ADD CALLDATALOAD PUSH1 0x40 MLOAD PUSH1 0x20 ADD PUSH2 0x3D3 SWAP3 SWAP2 SWAP1 SWAP2 DUP3 MSTORE PUSH1 0x20 DUP3 ADD MSTORE PUSH1 0x40 ADD SWAP1 JUMP JUMPDEST PUSH1 0x40 DUP1 MLOAD PUSH1 0x1F NOT DUP2 DUP5 SUB ADD DUP2 MSTORE SWAP1 DUP3 SWAP1 MSTORE PUSH2 0x3ED SWAP2 PUSH2 0x17A6 JUMP JUMPDEST PUSH1 0x20 PUSH1 0x40 MLOAD DUP1 DUP4 SUB DUP2 DUP6 GAS STATICCALL ISZERO DUP1 ISZERO PUSH2 0x40A JUMPI RETURNDATASIZE PUSH1 0x0 DUP1 RETURNDATACOPY RETURNDATASIZE PUSH1 0x0 REVERT JUMPDEST POP POP POP PUSH1 0x40 MLOAD RETURNDATASIZE PUSH1 0x1F NOT PUSH1 0x1F DUP3 ADD AND DUP3 ADD DUP1 PUSH1 0x40 MSTORE POP DUP2 ADD SWAP1 PUSH2 0x42D SWAP2 SWAP1 PUSH2 0x1671 JUMP JUMPDEST SWAP2 POP PUSH2 0x43A DUP2 PUSH1 0x2 PUSH2 0x183A JUMP JUMPDEST PUSH2 0x445 SWAP1 PUSH1 0x3 PUSH2 0x17DF JUMP JUMPDEST PUSH4 0xFFFFFFFF AND PUSH2 0x456 PUSH1 0x1 DUP7 PUSH2 0x1866 JUMP JUMPDEST GT ISZERO PUSH2 0x501 JUMPI DUP2 DUP6 DUP6 PUSH2 0x46A DUP5 PUSH1 0x2 PUSH2 0x183A JUMP JUMPDEST PUSH2 0x475 SWAP1 PUSH1 0x2 PUSH2 0x17DF JUMP JUMPDEST PUSH4 0xFFFFFFFF AND DUP2 DUP2 LT PUSH2 0x498 JUMPI PUSH4 0x4E487B71 PUSH1 0xE0 SHL PUSH1 0x0 MSTORE PUSH1 0x32 PUSH1 0x4 MSTORE PUSH1 0x24 PUSH1 0x0 REVERT JUMPDEST SWAP1 POP PUSH1 0x20 MUL ADD CALLDATALOAD EQ DUP1 ISZERO PUSH2 0x4EC JUMPI POP DUP2 DUP6 DUP6 PUSH2 0x4B5 DUP5 PUSH1 0x2 PUSH2 0x183A JUMP JUMPDEST PUSH2 0x4C0 SWAP1 PUSH1 0x3 PUSH2 0x17DF JUMP JUMPDEST PUSH4 0xFFFFFFFF AND DUP2 DUP2 LT PUSH2 0x4E3 JUMPI PUSH4 0x4E487B71 PUSH1 0xE0 SHL PUSH1 0x0 MSTORE PUSH1 0x32 PUSH1 0x4 MSTORE PUSH1 0x24 PUSH1 0x0 REVERT JUMPDEST SWAP1 POP PUSH1 0x20 MUL ADD CALLDATALOAD EQ JUMPDEST ISZERO PUSH2 0x4FC JUMPI PUSH1 0x0 SWAP3 POP POP POP PUSH2 0x599 JUMP JUMPDEST PUSH2 0x581 JUMP JUMPDEST PUSH2 0x50C DUP2 PUSH1 0x2 PUSH2 0x183A JUMP JUMPDEST PUSH2 0x517 SWAP1 PUSH1 0x2 PUSH2 0x17DF JUMP JUMPDEST PUSH4 0xFFFFFFFF AND PUSH2 0x528 PUSH1 0x1 DUP7 PUSH2 0x1866 JUMP JUMPDEST GT ISZERO PUSH2 0x581 JUMPI DUP2 DUP6 DUP6 PUSH2 0x53C DUP5 PUSH1 0x2 PUSH2 0x183A JUMP JUMPDEST PUSH2 0x547 SWAP1 PUSH1 0x2 PUSH2 0x17DF JUMP JUMPDEST PUSH4 0xFFFFFFFF AND DUP2 DUP2 LT PUSH2 0x56A JUMPI PUSH4 0x4E487B71 PUSH1 0xE0 SHL PUSH1 0x0 MSTORE PUSH1 0x32 PUSH1 0x4 MSTORE PUSH1 0x24 PUSH1 0x0 REVERT JUMPDEST SWAP1 POP PUSH1 0x20 MUL ADD CALLDATALOAD EQ PUSH2 0x581 JUMPI PUSH1 0x0 SWAP3 POP POP POP PUSH2 0x599 JUMP JUMPDEST DUP1 PUSH2 0x58B DUP2 PUSH2 0x187D JUMP JUMPDEST SWAP2 POP POP PUSH2 0x325 JUMP JUMPDEST POP DUP5 EQ SWAP1 POP JUMPDEST SWAP4 SWAP3 POP POP POP JUMP JUMPDEST PUSH1 0x0 DUP1 PUSH1 0x0 DUP1 DUP5 MLOAD PUSH1 0x41 EQ ISZERO PUSH2 0x5CA JUMPI POP POP POP PUSH1 0x20 DUP3 ADD MLOAD PUSH1 0x40 DUP4 ADD MLOAD PUSH1 0x60 DUP5 ADD MLOAD PUSH1 0x0 BYTE PUSH2 0x645 JUMP JUMPDEST DUP5 MLOAD PUSH1 0x40 EQ ISZERO PUSH2 0x5F8 JUMPI POP POP POP PUSH1 0x40 DUP3 ADD MLOAD PUSH1 0x20 DUP4 ADD MLOAD SWAP1 PUSH1 0x1 PUSH1 0x1 PUSH1 0xFF SHL SUB DUP2 AND SWAP1 PUSH1 0xFF SHR PUSH1 0x1B ADD PUSH2 0x645 JUMP JUMPDEST PUSH1 0x40 MLOAD PUSH3 0x461BCD PUSH1 0xE5 SHL DUP2 MSTORE PUSH1 0x20 PUSH1 0x4 DUP3 ADD MSTORE PUSH1 0x1F PUSH1 0x24 DUP3 ADD MSTORE PUSH32 0x45434453413A20696E76616C6964207369676E6174757265206C656E67746800 PUSH1 0x44 DUP3 ADD MSTORE PUSH1 0x64 ADD JUMPDEST PUSH1 0x40 MLOAD DUP1 SWAP2 SUB SWAP1 REVERT JUMPDEST PUSH1 0x1 PUSH1 0x2 DUP8 PUSH1 0x40 MLOAD PUSH2 0x657 SWAP2 SWAP1 PUSH2 0x17A6 JUMP JUMPDEST PUSH1 0x20 PUSH1 0x40 MLOAD DUP1 DUP4 SUB DUP2 DUP6 GAS STATICCALL ISZERO DUP1 ISZERO PUSH2 0x674 JUMPI RETURNDATASIZE PUSH1 0x0 DUP1 RETURNDATACOPY RETURNDATASIZE PUSH1 0x0 REVERT JUMPDEST POP POP POP PUSH1 0x40 MLOAD RETURNDATASIZE PUSH1 0x1F NOT PUSH1 0x1F DUP3 ADD AND DUP3 ADD DUP1 PUSH1 0x40 MSTORE POP DUP2 ADD SWAP1 PUSH2 0x697 SWAP2 SWAP1 PUSH2 0x1671 JUMP JUMPDEST PUSH1 0x40 DUP1 MLOAD PUSH1 0x0 DUP2 MSTORE PUSH1 0x20 DUP2 ADD DUP1 DUP4 MSTORE SWAP3 SWAP1 SWAP3 MSTORE PUSH1 0xFF DUP5 AND SWAP1 DUP3 ADD MSTORE PUSH1 0x60 DUP2 ADD DUP6 SWAP1 MSTORE PUSH1 0x80 DUP2 ADD DUP5 SWAP1 MSTORE PUSH1 0xA0 ADD PUSH1 0x20 PUSH1 0x40 MLOAD PUSH1 0x20 DUP2 SUB SWAP1 DUP1 DUP5 SUB SWAP1 DUP6 GAS STATICCALL ISZERO DUP1 ISZERO PUSH2 0x6E5 JUMPI RETURNDATASIZE PUSH1 0x0 DUP1 RETURNDATACOPY RETURNDATASIZE PUSH1 0x0 REVERT JUMPDEST POP POP POP PUSH1 0x20 PUSH1 0x40 MLOAD SUB MLOAD PUSH1 0x1 PUSH1 0x1 PUSH1 0xA0 SHL SUB AND DUP8 PUSH1 0x1 PUSH1 0x1 PUSH1 0xA0 SHL SUB AND EQ SWAP4 POP POP POP POP SWAP4 SWAP3 POP POP POP JUMP JUMPDEST PUSH1 0x0 DUP1 PUSH1 0x2 DUP7 DUP7 DUP10 DUP8 PUSH4 0xFFFFFFFF AND BLOCKHASH PUSH1 0x40 MLOAD PUSH1 0x20 ADD PUSH2 0x732 SWAP5 SWAP4 SWAP3 SWAP2 SWAP1 PUSH2 0x1776 JUMP JUMPDEST PUSH1 0x40 DUP1 MLOAD PUSH1 0x1F NOT DUP2 DUP5 SUB ADD DUP2 MSTORE SWAP1 DUP3 SWAP1 MSTORE PUSH2 0x74C SWAP2 PUSH2 0x17A6 JUMP JUMPDEST PUSH1 0x20 PUSH1 0x40 MLOAD DUP1 DUP4 SUB DUP2 DUP6 GAS STATICCALL ISZERO DUP1 ISZERO PUSH2 0x769 JUMPI RETURNDATASIZE PUSH1 0x0 DUP1 RETURNDATACOPY RETURNDATASIZE PUSH1 0x0 REVERT JUMPDEST POP POP POP PUSH1 0x40 MLOAD RETURNDATASIZE PUSH1 0x1F NOT PUSH1 0x1F DUP3 ADD AND DUP3 ADD DUP1 PUSH1 0x40 MSTORE POP DUP2 ADD SWAP1 PUSH2 0x78C SWAP2 SWAP1 PUSH2 0x1671 JUMP JUMPDEST SWAP1 POP PUSH2 0x798 DUP2 DUP5 PUSH2 0xB0F JUMP JUMPDEST SWAP8 SWAP7 POP POP POP POP POP POP POP JUMP JUMPDEST PUSH1 0x40 DUP1 MLOAD DUP1 DUP3 ADD DUP3 MSTORE PUSH1 0x1 PUSH1 0x1 PUSH1 0xA0 SHL SUB DUP14 DUP2 AND DUP3 MSTORE DUP13 AND PUSH1 0x20 DUP1 DUP4 ADD SWAP2 SWAP1 SWAP2 MSTORE DUP3 MLOAD SWAP1 DUP2 ADD DUP12 SWAP1 MSTORE PUSH1 0x1 PUSH1 0x1 PUSH1 0x40 SHL SUB DUP11 AND SWAP3 DUP2 ADD SWAP3 SWAP1 SWAP3 MSTORE SWAP1 PUSH2 0x82C SWAP1 DUP13 SWAP1 PUSH1 0x60 ADD JUMPDEST PUSH1 0x40 DUP1 MLOAD PUSH1 0x1F NOT DUP2 DUP5 SUB ADD DUP2 MSTORE PUSH1 0x20 PUSH1 0x1F DUP13 ADD DUP2 SWAP1 DIV DUP2 MUL DUP5 ADD DUP2 ADD SWAP1 SWAP3 MSTORE DUP11 DUP4 MSTORE SWAP2 SWAP1 DUP12 SWAP1 DUP12 SWAP1 DUP2 SWAP1 DUP5 ADD DUP4 DUP3 DUP1 DUP3 DUP5 CALLDATACOPY PUSH1 0x0 SWAP3 ADD SWAP2 SWAP1 SWAP2 MSTORE POP PUSH2 0x5A0 SWAP3 POP POP POP JUMP JUMPDEST PUSH2 0x86A JUMPI PUSH1 0x40 MLOAD PUSH3 0x461BCD PUSH1 0xE5 SHL DUP2 MSTORE PUSH1 0x20 PUSH1 0x4 DUP3 ADD MSTORE PUSH1 0xF PUSH1 0x24 DUP3 ADD MSTORE PUSH15 0x77726F6E67207369676E6174757265 PUSH1 0x88 SHL PUSH1 0x44 DUP3 ADD MSTORE PUSH1 0x64 ADD PUSH2 0x63C JUMP JUMPDEST PUSH2 0x87A DUP2 DUP12 DUP12 DUP12 DUP10 DUP10 DUP10 DUP10 PUSH2 0xDC4 JUMP JUMPDEST POP POP POP POP POP POP POP POP POP POP POP POP JUMP JUMPDEST PUSH1 0x3 SLOAD PUSH1 0x2 SLOAD PUSH1 0x40 MLOAD PUSH4 0xB8190977 PUSH1 0xE0 SHL DUP2 MSTORE PUSH1 0x1 PUSH1 0x1 PUSH1 0xA0 SHL SUB DUP5 DUP2 AND PUSH1 0x4 DUP4 ADD MSTORE PUSH1 0x0 SWAP4 DUP5 SWAP4 DUP5 SWAP4 SWAP2 DUP4 AND SWAP3 AND SWAP1 DUP4 SWAP1 DUP3 SWAP1 PUSH4 0xB8190977 SWAP1 PUSH1 0x24 ADD PUSH1 0x20 PUSH1 0x40 MLOAD DUP1 DUP4 SUB DUP2 DUP7 DUP1 EXTCODESIZE ISZERO DUP1 ISZERO PUSH2 0x8DD JUMPI PUSH1 0x0 DUP1 REVERT JUMPDEST POP GAS STATICCALL ISZERO DUP1 ISZERO PUSH2 0x8F1 JUMPI RETURNDATASIZE PUSH1 0x0 DUP1 RETURNDATACOPY RETURNDATASIZE PUSH1 0x0 REVERT JUMPDEST POP POP POP POP PUSH1 0x40 MLOAD RETURNDATASIZE PUSH1 0x1F NOT PUSH1 0x1F DUP3 ADD AND DUP3 ADD DUP1 PUSH1 0x40 MSTORE POP DUP2 ADD SWAP1 PUSH2 0x915 SWAP2 SWAP1 PUSH2 0x1354 JUMP JUMPDEST PUSH1 0x40 MLOAD PUSH4 0xD4FAC45D PUSH1 0xE0 SHL DUP2 MSTORE PUSH1 0x1 PUSH1 0x1 PUSH1 0xA0 SHL SUB DUP1 DUP4 AND PUSH1 0x4 DUP4 ADD MSTORE DUP10 DUP2 AND PUSH1 0x24 DUP4 ADD MSTORE SWAP2 SWAP3 POP PUSH1 0x0 SWAP2 DUP6 AND SWAP1 PUSH4 0xD4FAC45D SWAP1 PUSH1 0x44 ADD PUSH1 0x20 PUSH1 0x40 MLOAD DUP1 DUP4 SUB DUP2 DUP7 DUP1 EXTCODESIZE ISZERO DUP1 ISZERO PUSH2 0x964 JUMPI PUSH1 0x0 DUP1 REVERT JUMPDEST POP GAS STATICCALL ISZERO DUP1 ISZERO PUSH2 0x978 JUMPI RETURNDATASIZE PUSH1 0x0 DUP1 RETURNDATACOPY RETURNDATASIZE PUSH1 0x0 REVERT JUMPDEST POP POP POP POP PUSH1 0x40 MLOAD RETURNDATASIZE PUSH1 0x1F NOT PUSH1 0x1F DUP3 ADD AND DUP3 ADD DUP1 PUSH1 0x40 MSTORE POP DUP2 ADD SWAP1 PUSH2 0x99C SWAP2 SWAP1 PUSH2 0x1671 JUMP JUMPDEST SWAP1 POP PUSH1 0x0 PUSH2 0x9AD PUSH3 0x201480 DUP4 PUSH2 0x1807 JUMP JUMPDEST PUSH1 0x40 MLOAD PUSH4 0x1098E0D7 PUSH1 0xE3 SHL DUP2 MSTORE PUSH1 0x1 PUSH1 0x1 PUSH1 0xA0 SHL SUB DUP12 DUP2 AND PUSH1 0x4 DUP4 ADD MSTORE SWAP2 SWAP3 POP PUSH1 0x0 SWAP2 DUP7 AND SWAP1 PUSH4 0x84C706B8 SWAP1 PUSH1 0x24 ADD PUSH1 0x20 PUSH1 0x40 MLOAD DUP1 DUP4 SUB DUP2 DUP7 DUP1 EXTCODESIZE ISZERO DUP1 ISZERO PUSH2 0x9F4 JUMPI PUSH1 0x0 DUP1 REVERT JUMPDEST POP GAS STATICCALL ISZERO DUP1 ISZERO PUSH2 0xA08 JUMPI RETURNDATASIZE PUSH1 0x0 DUP1 RETURNDATACOPY RETURNDATASIZE PUSH1 0x0 REVERT JUMPDEST POP POP POP POP PUSH1 0x40 MLOAD RETURNDATASIZE PUSH1 0x1F NOT PUSH1 0x1F DUP3 ADD AND DUP3 ADD DUP1 PUSH1 0x40 MSTORE POP DUP2 ADD SWAP1 PUSH2 0xA2C SWAP2 SWAP1 PUSH2 0x174A JUMP JUMPDEST SWAP1 POP PUSH1 0x0 PUSH2 0xA40 PUSH4 0xFFFFFFFF DUP4 AND NUMBER PUSH2 0x1866 JUMP JUMPDEST SWAP1 POP PUSH1 0x0 PUSH2 0xA54 DUP5 PUSH4 0xFFFFFFFF DUP5 AND PUSH2 0x181B JUMP JUMPDEST SWAP6 SWAP13 SWAP6 SWAP12 POP POP PUSH4 0xFFFFFFFF AND SWAP9 POP SWAP3 SWAP7 POP POP POP POP POP POP POP JUMP JUMPDEST PUSH1 0x40 DUP1 MLOAD DUP1 DUP3 ADD DUP3 MSTORE CALLER DUP2 MSTORE PUSH1 0x1 PUSH1 0x1 PUSH1 0xA0 SHL SUB DUP13 AND PUSH1 0x20 DUP1 DUP4 ADD SWAP2 SWAP1 SWAP2 MSTORE DUP3 MLOAD SWAP1 DUP2 ADD DUP12 SWAP1 MSTORE PUSH1 0x1 PUSH1 0x1 PUSH1 0x40 SHL SUB DUP11 AND SWAP3 DUP2 ADD SWAP3 SWAP1 SWAP3 MSTORE SWAP1 PUSH2 0xAB4 SWAP1 DUP13 SWAP1 PUSH1 0x60 ADD PUSH2 0x7E8 JUMP JUMPDEST PUSH2 0xAF2 JUMPI PUSH1 0x40 MLOAD PUSH3 0x461BCD PUSH1 0xE5 SHL DUP2 MSTORE PUSH1 0x20 PUSH1 0x4 DUP3 ADD MSTORE PUSH1 0xF PUSH1 0x24 DUP3 ADD MSTORE PUSH15 0x77726F6E67207369676E6174757265 PUSH1 0x88 SHL PUSH1 0x44 DUP3 ADD MSTORE PUSH1 0x64 ADD PUSH2 0x63C JUMP JUMPDEST PUSH2 0xB02 DUP2 DUP12 DUP12 DUP12 DUP10 DUP10 DUP10 DUP10 PUSH2 0xDC4 JUMP JUMPDEST POP POP POP POP POP POP POP POP POP POP POP JUMP JUMPDEST PUSH1 0x0 DUP2 PUSH1 0x1 SLOAD DUP5 PUSH2 0xB20 SWAP2 SWAP1 PUSH2 0x18A1 JUMP JUMPDEST LT ISZERO PUSH2 0xB2E JUMPI POP PUSH1 0x1 PUSH2 0xB32 JUMP JUMPDEST POP PUSH1 0x0 JUMPDEST SWAP3 SWAP2 POP POP JUMP JUMPDEST PUSH1 0x0 SLOAD PUSH1 0x1 PUSH1 0x1 PUSH1 0xA0 SHL SUB AND CALLER EQ PUSH2 0xB4F JUMPI PUSH1 0x0 DUP1 REVERT JUMPDEST PUSH1 0x1 SSTORE JUMP JUMPDEST PUSH1 0x3 SLOAD PUSH1 0x40 MLOAD PUSH4 0xECE7F53 PUSH1 0xE3 SHL DUP2 MSTORE CALLER PUSH1 0x4 DUP3 ADD MSTORE PUSH1 0x1 PUSH1 0x1 PUSH1 0xA0 SHL SUB DUP5 DUP2 AND PUSH1 0x24 DUP4 ADD MSTORE PUSH1 0x44 DUP3 ADD DUP5 SWAP1 MSTORE SWAP1 SWAP2 AND SWAP1 DUP2 SWAP1 PUSH4 0x7673FA98 SWAP1 PUSH1 0x64 ADD JUMPDEST PUSH1 0x0 PUSH1 0x40 MLOAD DUP1 DUP4 SUB DUP2 PUSH1 0x0 DUP8 DUP1 EXTCODESIZE ISZERO DUP1 ISZERO PUSH2 0xBAB JUMPI PUSH1 0x0 DUP1 REVERT JUMPDEST POP GAS CALL ISZERO DUP1 ISZERO PUSH2 0xBBF JUMPI RETURNDATASIZE PUSH1 0x0 DUP1 RETURNDATACOPY RETURNDATASIZE PUSH1 0x0 REVERT JUMPDEST POP POP POP POP POP POP POP JUMP JUMPDEST PUSH1 0x3 SLOAD PUSH1 0x40 MLOAD PUSH4 0xE19AE7C3 PUSH1 0xE0 SHL DUP2 MSTORE CALLER PUSH1 0x4 DUP3 ADD MSTORE PUSH1 0x1 PUSH1 0x1 PUSH1 0xA0 SHL SUB DUP4 DUP2 AND PUSH1 0x24 DUP4 ADD MSTORE SWAP1 SWAP2 AND SWAP1 DUP2 SWAP1 PUSH4 0xE19AE7C3 SWAP1 PUSH1 0x44 ADD JUMPDEST PUSH1 0x0 PUSH1 0x40 MLOAD DUP1 DUP4 SUB DUP2 PUSH1 0x0 DUP8 DUP1 EXTCODESIZE ISZERO DUP1 ISZERO PUSH2 0xC18 JUMPI PUSH1 0x0 DUP1 REVERT JUMPDEST POP GAS CALL ISZERO DUP1 ISZERO PUSH2 0xC2C JUMPI RETURNDATASIZE PUSH1 0x0 DUP1 RETURNDATACOPY RETURNDATASIZE PUSH1 0x0 REVERT JUMPDEST POP POP POP POP POP POP JUMP JUMPDEST PUSH1 0x2 SLOAD PUSH1 0x40 MLOAD PUSH4 0x75623B1B PUSH1 0xE1 SHL DUP2 MSTORE CALLER PUSH1 0x4 DUP3 ADD MSTORE PUSH1 0x1 PUSH1 0x1 PUSH1 0xA0 SHL SUB DUP4 DUP2 AND PUSH1 0x24 DUP4 ADD MSTORE SWAP1 SWAP2 AND SWAP1 DUP2 SWAP1 PUSH4 0xEAC47636 SWAP1 PUSH1 0x44 ADD PUSH2 0xBFE JUMP JUMPDEST PUSH1 0x0 SLOAD PUSH1 0x1 PUSH1 0x1 PUSH1 0xA0 SHL SUB AND CALLER EQ PUSH2 0xC85 JUMPI PUSH1 0x0 DUP1 REVERT JUMPDEST PUSH1 0x2 DUP1 SLOAD PUSH1 0x1 PUSH1 0x1 PUSH1 0xA0 SHL SUB SWAP4 DUP5 AND PUSH1 0x1 PUSH1 0x1 PUSH1 0xA0 SHL SUB NOT SWAP2 DUP3 AND OR SWAP1 SWAP2 SSTORE PUSH1 0x3 DUP1 SLOAD SWAP3 SWAP1 SWAP4 AND SWAP2 AND OR SWAP1 SSTORE JUMP JUMPDEST PUSH1 0x0 SLOAD PUSH1 0x1 PUSH1 0x1 PUSH1 0xA0 SHL SUB AND CALLER EQ PUSH2 0xCCA JUMPI PUSH1 0x0 DUP1 REVERT JUMPDEST PUSH1 0x1 PUSH1 0x1 PUSH1 0xA0 SHL SUB DUP2 AND PUSH2 0xCDD JUMPI PUSH1 0x0 DUP1 REVERT JUMPDEST PUSH1 0x0 DUP1 SLOAD PUSH1 0x40 MLOAD PUSH1 0x1 PUSH1 0x1 PUSH1 0xA0 SHL SUB DUP1 DUP6 AND SWAP4 SWAP3 AND SWAP2 PUSH32 0x8BE0079C531659141344CD1FD0A4F28419497F9722A3DAAFE3B4186F6B6457E0 SWAP2 LOG3 PUSH1 0x0 DUP1 SLOAD PUSH1 0x1 PUSH1 0x1 PUSH1 0xA0 SHL SUB NOT AND PUSH1 0x1 PUSH1 0x1 PUSH1 0xA0 SHL SUB SWAP3 SWAP1 SWAP3 AND SWAP2 SWAP1 SWAP2 OR SWAP1 SSTORE JUMP JUMPDEST PUSH1 0x2 SLOAD PUSH1 0x40 MLOAD PUSH4 0x5E73192D PUSH1 0xE1 SHL DUP2 MSTORE PUSH1 0x1 PUSH1 0x1 PUSH1 0xA0 SHL SUB DUP4 DUP2 AND PUSH1 0x4 DUP4 ADD MSTORE PUSH1 0x0 SWAP3 DUP4 SWAP3 SWAP2 AND SWAP1 DUP2 SWAP1 PUSH4 0xBCE6325A SWAP1 PUSH1 0x24 ADD PUSH1 0x40 DUP1 MLOAD DUP1 DUP4 SUB DUP2 DUP7 DUP1 EXTCODESIZE ISZERO DUP1 ISZERO PUSH2 0xD82 JUMPI PUSH1 0x0 DUP1 REVERT JUMPDEST POP GAS STATICCALL ISZERO DUP1 ISZERO PUSH2 0xD96 JUMPI RETURNDATASIZE PUSH1 0x0 DUP1 RETURNDATACOPY RETURNDATASIZE PUSH1 0x0 REVERT JUMPDEST POP POP POP POP PUSH1 0x40 MLOAD RETURNDATASIZE PUSH1 0x1F NOT PUSH1 0x1F DUP3 ADD AND DUP3 ADD DUP1 PUSH1 0x40 MSTORE POP DUP2 ADD SWAP1 PUSH2 0xDBA SWAP2 SWAP1 PUSH2 0x16D2 JUMP JUMPDEST SWAP3 POP SWAP3 POP POP SWAP2 POP SWAP2 JUMP JUMPDEST DUP8 MLOAD PUSH1 0x1 PUSH1 0x1 PUSH1 0xA0 SHL SUB AND ISZERO DUP1 ISZERO SWAP1 PUSH2 0xDE9 JUMPI POP PUSH1 0x20 DUP9 ADD MLOAD PUSH1 0x1 PUSH1 0x1 PUSH1 0xA0 SHL SUB AND ISZERO ISZERO JUMPDEST PUSH2 0xE2D JUMPI PUSH1 0x40 MLOAD PUSH3 0x461BCD PUSH1 0xE5 SHL DUP2 MSTORE PUSH1 0x20 PUSH1 0x4 DUP3 ADD MSTORE PUSH1 0x15 PUSH1 0x24 DUP3 ADD MSTORE PUSH21 0x616464726573732063616E2774206265207A65726F PUSH1 0x58 SHL PUSH1 0x44 DUP3 ADD MSTORE PUSH1 0x64 ADD PUSH2 0x63C JUMP JUMPDEST PUSH1 0x20 DUP9 ADD MLOAD DUP9 MLOAD PUSH2 0xE40 SWAP2 SWAP1 DUP9 DUP9 PUSH2 0x1075 JUMP JUMPDEST PUSH1 0x0 DUP1 PUSH1 0x0 DUP1 PUSH1 0x2 DUP9 DUP9 PUSH1 0x40 MLOAD PUSH2 0xE58 SWAP3 SWAP2 SWAP1 PUSH2 0x1766 JUMP JUMPDEST PUSH1 0x20 PUSH1 0x40 MLOAD DUP1 DUP4 SUB DUP2 DUP6 GAS STATICCALL ISZERO DUP1 ISZERO PUSH2 0xE75 JUMPI RETURNDATASIZE PUSH1 0x0 DUP1 RETURNDATACOPY RETURNDATASIZE PUSH1 0x0 REVERT JUMPDEST POP POP POP PUSH1 0x40 MLOAD RETURNDATASIZE PUSH1 0x1F NOT PUSH1 0x1F DUP3 ADD AND DUP3 ADD DUP1 PUSH1 0x40 MSTORE POP DUP2 ADD SWAP1 PUSH2 0xE98 SWAP2 SWAP1 PUSH2 0x1671 JUMP JUMPDEST SWAP1 POP PUSH2 0xEAA DUP13 PUSH1 0x1 PUSH1 0x20 MUL ADD MLOAD PUSH2 0x888 JUMP JUMPDEST PUSH1 0x4 SLOAD SWAP3 SWAP7 POP SWAP1 SWAP5 POP SWAP3 POP PUSH2 0xEBF SWAP1 NUMBER PUSH2 0x1866 JUMP JUMPDEST DUP12 PUSH4 0xFFFFFFFF AND GT PUSH2 0xF03 JUMPI PUSH1 0x40 MLOAD PUSH3 0x461BCD PUSH1 0xE5 SHL DUP2 MSTORE PUSH1 0x20 PUSH1 0x4 DUP3 ADD MSTORE PUSH1 0xD PUSH1 0x24 DUP3 ADD MSTORE PUSH13 0x2A37B79037B63210383937B7B3 PUSH1 0x99 SHL PUSH1 0x44 DUP3 ADD MSTORE PUSH1 0x64 ADD PUSH2 0x63C JUMP JUMPDEST PUSH2 0xF0E DUP11 DUP8 DUP8 PUSH2 0x320 JUMP JUMPDEST PUSH2 0xF4E JUMPI PUSH1 0x40 MLOAD PUSH3 0x461BCD PUSH1 0xE5 SHL DUP2 MSTORE PUSH1 0x20 PUSH1 0x4 DUP3 ADD MSTORE PUSH1 0x11 PUSH1 0x24 DUP3 ADD MSTORE PUSH17 0x2BB937B7339036B2B935B632A83937B7B3 PUSH1 0x79 SHL PUSH1 0x44 DUP3 ADD MSTORE PUSH1 0x64 ADD PUSH2 0x63C JUMP JUMPDEST DUP12 MLOAD PUSH2 0xF5D SWAP1 DUP10 DUP10 DUP15 DUP7 PUSH2 0x70F JUMP JUMPDEST PUSH2 0xFA0 JUMPI PUSH1 0x40 MLOAD PUSH3 0x461BCD PUSH1 0xE5 SHL DUP2 MSTORE PUSH1 0x20 PUSH1 0x4 DUP3 ADD MSTORE PUSH1 0x14 PUSH1 0x24 DUP3 ADD MSTORE PUSH20 0x4E6F74206D6174636820646966666963756C7479 PUSH1 0x60 SHL PUSH1 0x44 DUP3 ADD MSTORE PUSH1 0x64 ADD PUSH2 0x63C JUMP JUMPDEST DUP6 DUP6 PUSH1 0x0 DUP2 DUP2 LT PUSH2 0xFC1 JUMPI PUSH4 0x4E487B71 PUSH1 0xE0 SHL PUSH1 0x0 MSTORE PUSH1 0x32 PUSH1 0x4 MSTORE PUSH1 0x24 PUSH1 0x0 REVERT JUMPDEST SWAP1 POP PUSH1 0x20 MUL ADD CALLDATALOAD DUP2 EQ DUP1 PUSH2 0xFFB JUMPI POP DUP6 DUP6 PUSH1 0x1 DUP2 DUP2 LT PUSH2 0xFF1 JUMPI PUSH4 0x4E487B71 PUSH1 0xE0 SHL PUSH1 0x0 MSTORE PUSH1 0x32 PUSH1 0x4 MSTORE PUSH1 0x24 PUSH1 0x0 REVERT JUMPDEST SWAP1 POP PUSH1 0x20 MUL ADD CALLDATALOAD DUP2 EQ JUMPDEST PUSH2 0x1053 JUMPI PUSH1 0x40 MLOAD PUSH3 0x461BCD PUSH1 0xE5 SHL DUP2 MSTORE PUSH1 0x20 PUSH1 0x4 DUP3 ADD MSTORE PUSH1 0x23 PUSH1 0x24 DUP3 ADD MSTORE PUSH32 0x6E6F7420666F756E64205F66696C655F6861736820696E206D65726B6C655072 PUSH1 0x44 DUP3 ADD MSTORE PUSH3 0x37B7B3 PUSH1 0xE9 SHL PUSH1 0x64 DUP3 ADD MSTORE PUSH1 0x84 ADD PUSH2 0x63C JUMP JUMPDEST PUSH1 0x20 DUP13 ADD MLOAD DUP13 MLOAD PUSH2 0x1066 SWAP2 DUP7 SWAP2 DUP7 PUSH2 0x10E6 JUMP JUMPDEST PUSH1 0x20 DUP13 ADD MLOAD PUSH2 0x87A SWAP1 NUMBER PUSH2 0x1166 JUMP JUMPDEST PUSH1 0x0 DUP1 PUSH2 0x1081 DUP7 PUSH2 0xD38 JUMP JUMPDEST SWAP1 SWAP3 POP SWAP1 POP PUSH1 0x1 PUSH1 0x1 PUSH1 0x40 SHL SUB DUP4 AND DUP2 GT ISZERO PUSH2 0x10D3 JUMPI PUSH1 0x40 MLOAD PUSH3 0x461BCD PUSH1 0xE5 SHL DUP2 MSTORE PUSH1 0x20 PUSH1 0x4 DUP3 ADD MSTORE PUSH1 0x11 PUSH1 0x24 DUP3 ADD MSTORE PUSH17 0xA8DEDE40DED8C840E4DEDEE840D0C2E6D PUSH1 0x7B SHL PUSH1 0x44 DUP3 ADD MSTORE PUSH1 0x64 ADD PUSH2 0x63C JUMP JUMPDEST DUP2 DUP5 EQ PUSH2 0xC2C JUMPI PUSH2 0xC2C DUP7 DUP6 DUP6 DUP9 PUSH2 0x11A6 JUMP JUMPDEST PUSH1 0x3 SLOAD PUSH1 0x40 MLOAD PUSH4 0xD8ADD41B PUSH1 0xE0 SHL DUP2 MSTORE PUSH1 0x1 PUSH1 0x1 PUSH1 0xA0 SHL SUB DUP7 DUP2 AND PUSH1 0x4 DUP4 ADD MSTORE DUP6 DUP2 AND PUSH1 0x24 DUP4 ADD MSTORE DUP5 DUP2 AND PUSH1 0x44 DUP4 ADD MSTORE PUSH1 0x64 DUP3 ADD DUP5 SWAP1 MSTORE SWAP1 SWAP2 AND SWAP1 DUP2 SWAP1 PUSH4 0xD8ADD41B SWAP1 PUSH1 0x84 ADD JUMPDEST PUSH1 0x0 PUSH1 0x40 MLOAD DUP1 DUP4 SUB DUP2 PUSH1 0x0 DUP8 DUP1 EXTCODESIZE ISZERO DUP1 ISZERO PUSH2 0x1147 JUMPI PUSH1 0x0 DUP1 REVERT JUMPDEST POP GAS CALL ISZERO DUP1 ISZERO PUSH2 0x115B JUMPI RETURNDATASIZE PUSH1 0x0 DUP1 RETURNDATACOPY RETURNDATASIZE PUSH1 0x0 REVERT JUMPDEST POP POP POP POP POP POP POP POP POP JUMP JUMPDEST PUSH1 0x2 SLOAD PUSH1 0x40 MLOAD PUSH4 0xC9254F6F PUSH1 0xE0 SHL DUP2 MSTORE PUSH1 0x1 PUSH1 0x1 PUSH1 0xA0 SHL SUB DUP5 DUP2 AND PUSH1 0x4 DUP4 ADD MSTORE PUSH4 0xFFFFFFFF DUP5 AND PUSH1 0x24 DUP4 ADD MSTORE SWAP1 SWAP2 AND SWAP1 DUP2 SWAP1 PUSH4 0xC9254F6F SWAP1 PUSH1 0x44 ADD PUSH2 0xB91 JUMP JUMPDEST PUSH1 0x2 SLOAD PUSH1 0x40 MLOAD PUSH4 0xD79CF7D PUSH1 0xE2 SHL DUP2 MSTORE PUSH1 0x1 PUSH1 0x1 PUSH1 0xA0 SHL SUB DUP7 DUP2 AND PUSH1 0x4 DUP4 ADD MSTORE PUSH1 0x24 DUP3 ADD DUP7 SWAP1 MSTORE PUSH1 0x1 PUSH1 0x1 PUSH1 0x40 SHL SUB DUP6 AND PUSH1 0x44 DUP4 ADD MSTORE DUP4 DUP2 AND PUSH1 0x64 DUP4 ADD MSTORE SWAP1 SWAP2 AND SWAP1 DUP2 SWAP1 PUSH4 0x35E73DF4 SWAP1 PUSH1 0x84 ADD PUSH2 0x112D JUMP JUMPDEST DUP1 CALLDATALOAD PUSH2 0x1203 DUP2 PUSH2 0x18F7 JUMP JUMPDEST SWAP2 SWAP1 POP JUMP JUMPDEST PUSH1 0x0 DUP1 DUP4 PUSH1 0x1F DUP5 ADD SLT PUSH2 0x1219 JUMPI DUP1 DUP2 REVERT JUMPDEST POP DUP2 CALLDATALOAD PUSH1 0x1 PUSH1 0x1 PUSH1 0x40 SHL SUB DUP2 GT ISZERO PUSH2 0x122F JUMPI DUP2 DUP3 REVERT JUMPDEST PUSH1 0x20 DUP4 ADD SWAP2 POP DUP4 PUSH1 0x20 DUP3 PUSH1 0x5 SHL DUP6 ADD ADD GT ISZERO PUSH2 0x124A JUMPI PUSH1 0x0 DUP1 REVERT JUMPDEST SWAP3 POP SWAP3 SWAP1 POP JUMP JUMPDEST PUSH1 0x0 DUP1 DUP4 PUSH1 0x1F DUP5 ADD SLT PUSH2 0x1262 JUMPI DUP2 DUP3 REVERT JUMPDEST POP DUP2 CALLDATALOAD PUSH1 0x1 PUSH1 0x1 PUSH1 0x40 SHL SUB DUP2 GT ISZERO PUSH2 0x1278 JUMPI DUP2 DUP3 REVERT JUMPDEST PUSH1 0x20 DUP4 ADD SWAP2 POP DUP4 PUSH1 0x20 DUP3 DUP6 ADD ADD GT ISZERO PUSH2 0x124A JUMPI PUSH1 0x0 DUP1 REVERT JUMPDEST PUSH1 0x0 DUP3 PUSH1 0x1F DUP4 ADD SLT PUSH2 0x12A0 JUMPI DUP1 DUP2 REVERT JUMPDEST DUP2 CALLDATALOAD PUSH1 0x1 PUSH1 0x1 PUSH1 0x40 SHL SUB DUP1 DUP3 GT ISZERO PUSH2 0x12BA JUMPI PUSH2 0x12BA PUSH2 0x18E1 JUMP JUMPDEST PUSH1 0x40 MLOAD PUSH1 0x1F DUP4 ADD PUSH1 0x1F NOT SWAP1 DUP2 AND PUSH1 0x3F ADD AND DUP2 ADD SWAP1 DUP3 DUP3 GT DUP2 DUP4 LT OR ISZERO PUSH2 0x12E2 JUMPI PUSH2 0x12E2 PUSH2 0x18E1 JUMP JUMPDEST DUP2 PUSH1 0x40 MSTORE DUP4 DUP2 MSTORE DUP7 PUSH1 0x20 DUP6 DUP9 ADD ADD GT ISZERO PUSH2 0x12FA JUMPI DUP5 DUP6 REVERT JUMPDEST DUP4 PUSH1 0x20 DUP8 ADD PUSH1 0x20 DUP4 ADD CALLDATACOPY SWAP3 DUP4 ADD PUSH1 0x20 ADD SWAP4 SWAP1 SWAP4 MSTORE POP SWAP4 SWAP3 POP POP POP JUMP JUMPDEST DUP1 CALLDATALOAD PUSH2 0x1203 DUP2 PUSH2 0x190F JUMP JUMPDEST DUP1 CALLDATALOAD PUSH1 0x1 PUSH1 0x1 PUSH1 0x40 SHL SUB DUP2 AND DUP2 EQ PUSH2 0x1203 JUMPI PUSH1 0x0 DUP1 REVERT JUMPDEST PUSH1 0x0 PUSH1 0x20 DUP3 DUP5 SUB SLT ISZERO PUSH2 0x1349 JUMPI DUP1 DUP2 REVERT JUMPDEST DUP2 CALLDATALOAD PUSH2 0x599 DUP2 PUSH2 0x18F7 JUMP JUMPDEST PUSH1 0x0 PUSH1 0x20 DUP3 DUP5 SUB SLT ISZERO PUSH2 0x1365 JUMPI DUP1 DUP2 REVERT JUMPDEST DUP2 MLOAD PUSH2 0x599 DUP2 PUSH2 0x18F7 JUMP JUMPDEST PUSH1 0x0 DUP1 PUSH1 0x40 DUP4 DUP6 SUB SLT ISZERO PUSH2 0x1382 JUMPI DUP1 DUP2 REVERT JUMPDEST DUP3 CALLDATALOAD PUSH2 0x138D DUP2 PUSH2 0x18F7 JUMP JUMPDEST SWAP2 POP PUSH1 0x20 DUP4 ADD CALLDATALOAD PUSH2 0x139D DUP2 PUSH2 0x18F7 JUMP JUMPDEST DUP1 SWAP2 POP POP SWAP3 POP SWAP3 SWAP1 POP JUMP JUMPDEST PUSH1 0x0 DUP1 PUSH1 0x0 DUP1 PUSH1 0x0 DUP1 PUSH1 0x0 DUP1 PUSH1 0x0 DUP1 PUSH1 0x0 PUSH2 0x100 DUP13 DUP15 SUB SLT ISZERO PUSH2 0x13C9 JUMPI DUP7 DUP8 REVERT JUMPDEST PUSH2 0x13D2 DUP13 PUSH2 0x11F8 JUMP JUMPDEST SWAP11 POP PUSH2 0x13E0 PUSH1 0x20 DUP14 ADD PUSH2 0x11F8 JUMP JUMPDEST SWAP10 POP PUSH2 0x13EE PUSH1 0x40 DUP14 ADD PUSH2 0x1316 JUMP JUMPDEST SWAP9 POP PUSH1 0x60 DUP13 ADD CALLDATALOAD SWAP8 POP PUSH2 0x1403 PUSH1 0x80 DUP14 ADD PUSH2 0x1321 JUMP JUMPDEST SWAP7 POP PUSH1 0x1 PUSH1 0x1 PUSH1 0x40 SHL SUB DUP1 PUSH1 0xA0 DUP15 ADD CALLDATALOAD GT ISZERO PUSH2 0x141D JUMPI DUP7 DUP8 REVERT JUMPDEST PUSH2 0x142D DUP15 PUSH1 0xA0 DUP16 ADD CALLDATALOAD DUP16 ADD PUSH2 0x1251 JUMP JUMPDEST SWAP1 SWAP8 POP SWAP6 POP PUSH1 0xC0 DUP14 ADD CALLDATALOAD DUP2 LT ISZERO PUSH2 0x1442 JUMPI DUP5 DUP6 REVERT JUMPDEST PUSH2 0x1452 DUP15 PUSH1 0xC0 DUP16 ADD CALLDATALOAD DUP16 ADD PUSH2 0x1251 JUMP JUMPDEST SWAP1 SWAP6 POP SWAP4 POP PUSH1 0xE0 DUP14 ADD CALLDATALOAD DUP2 LT ISZERO PUSH2 0x1467 JUMPI DUP3 DUP4 REVERT JUMPDEST POP PUSH2 0x1478 DUP14 PUSH1 0xE0 DUP15 ADD CALLDATALOAD DUP15 ADD PUSH2 0x1208 JUMP JUMPDEST DUP2 SWAP4 POP DUP1 SWAP3 POP POP POP SWAP3 SWAP6 SWAP9 SWAP12 POP SWAP3 SWAP6 SWAP9 SWAP12 SWAP1 SWAP4 SWAP7 SWAP10 POP JUMP JUMPDEST PUSH1 0x0 DUP1 PUSH1 0x0 DUP1 PUSH1 0x0 PUSH1 0x80 DUP7 DUP9 SUB SLT ISZERO PUSH2 0x14A7 JUMPI DUP1 DUP2 REVERT JUMPDEST DUP6 CALLDATALOAD PUSH2 0x14B2 DUP2 PUSH2 0x18F7 JUMP JUMPDEST SWAP5 POP PUSH1 0x20 DUP7 ADD CALLDATALOAD PUSH1 0x1 PUSH1 0x1 PUSH1 0x40 SHL SUB DUP2 GT ISZERO PUSH2 0x14CC JUMPI DUP2 DUP3 REVERT JUMPDEST PUSH2 0x14D8 DUP9 DUP3 DUP10 ADD PUSH2 0x1251 JUMP JUMPDEST SWAP1 SWAP6 POP SWAP4 POP POP PUSH1 0x40 DUP7 ADD CALLDATALOAD PUSH2 0x14EC DUP2 PUSH2 0x190F JUMP JUMPDEST SWAP5 SWAP8 SWAP4 SWAP7 POP SWAP2 SWAP5 PUSH1 0x60 ADD CALLDATALOAD SWAP3 SWAP2 POP POP JUMP JUMPDEST PUSH1 0x0 DUP1 PUSH1 0x0 PUSH1 0x60 DUP5 DUP7 SUB SLT ISZERO PUSH2 0x1511 JUMPI DUP3 DUP4 REVERT JUMPDEST DUP4 CALLDATALOAD PUSH2 0x151C DUP2 PUSH2 0x18F7 JUMP JUMPDEST SWAP3 POP PUSH1 0x20 DUP5 ADD CALLDATALOAD PUSH1 0x1 PUSH1 0x1 PUSH1 0x40 SHL SUB DUP1 DUP3 GT ISZERO PUSH2 0x1537 JUMPI DUP4 DUP5 REVERT JUMPDEST PUSH2 0x1543 DUP8 DUP4 DUP9 ADD PUSH2 0x1290 JUMP JUMPDEST SWAP4 POP PUSH1 0x40 DUP7 ADD CALLDATALOAD SWAP2 POP DUP1 DUP3 GT ISZERO PUSH2 0x1558 JUMPI DUP3 DUP4 REVERT JUMPDEST POP PUSH2 0x1565 DUP7 DUP3 DUP8 ADD PUSH2 0x1290 JUMP JUMPDEST SWAP2 POP POP SWAP3 POP SWAP3 POP SWAP3 JUMP JUMPDEST PUSH1 0x0 DUP1 PUSH1 0x40 DUP4 DUP6 SUB SLT ISZERO PUSH2 0x1581 JUMPI DUP2 DUP3 REVERT JUMPDEST DUP3 CALLDATALOAD PUSH2 0x158C DUP2 PUSH2 0x18F7 JUMP JUMPDEST SWAP5 PUSH1 0x20 SWAP4 SWAP1 SWAP4 ADD CALLDATALOAD SWAP4 POP POP POP JUMP JUMPDEST PUSH1 0x0 DUP1 PUSH1 0x0 DUP1 PUSH1 0x0 DUP1 PUSH1 0x0 DUP1 PUSH1 0x0 DUP1 PUSH1 0xE0 DUP12 DUP14 SUB SLT ISZERO PUSH2 0x15B8 JUMPI DUP6 DUP7 REVERT JUMPDEST DUP11 CALLDATALOAD PUSH2 0x15C3 DUP2 PUSH2 0x18F7 JUMP JUMPDEST SWAP10 POP PUSH1 0x20 DUP12 ADD CALLDATALOAD PUSH2 0x15D3 DUP2 PUSH2 0x190F JUMP JUMPDEST SWAP9 POP PUSH1 0x40 DUP12 ADD CALLDATALOAD SWAP8 POP PUSH2 0x15E8 PUSH1 0x60 DUP13 ADD PUSH2 0x1321 JUMP JUMPDEST SWAP7 POP PUSH1 0x80 DUP12 ADD CALLDATALOAD PUSH1 0x1 PUSH1 0x1 PUSH1 0x40 SHL SUB DUP1 DUP3 GT ISZERO PUSH2 0x1603 JUMPI DUP8 DUP9 REVERT JUMPDEST PUSH2 0x160F DUP15 DUP4 DUP16 ADD PUSH2 0x1251 JUMP JUMPDEST SWAP1 SWAP9 POP SWAP7 POP PUSH1 0xA0 DUP14 ADD CALLDATALOAD SWAP2 POP DUP1 DUP3 GT ISZERO PUSH2 0x1627 JUMPI DUP6 DUP7 REVERT JUMPDEST PUSH2 0x1633 DUP15 DUP4 DUP16 ADD PUSH2 0x1251 JUMP JUMPDEST SWAP1 SWAP7 POP SWAP5 POP PUSH1 0xC0 DUP14 ADD CALLDATALOAD SWAP2 POP DUP1 DUP3 GT ISZERO PUSH2 0x164B JUMPI DUP4 DUP5 REVERT JUMPDEST POP PUSH2 0x1658 DUP14 DUP3 DUP15 ADD PUSH2 0x1208 JUMP JUMPDEST SWAP2 POP DUP1 SWAP4 POP POP DUP1 SWAP2 POP POP SWAP3 SWAP6 SWAP9 SWAP12 SWAP2 SWAP5 SWAP8 SWAP11 POP SWAP3 SWAP6 SWAP9 POP JUMP JUMPDEST PUSH1 0x0 PUSH1 0x20 DUP3 DUP5 SUB SLT ISZERO PUSH2 0x1682 JUMPI DUP1 DUP2 REVERT JUMPDEST POP MLOAD SWAP2 SWAP1 POP JUMP JUMPDEST PUSH1 0x0 DUP1 PUSH1 0x0 PUSH1 0x40 DUP5 DUP7 SUB SLT ISZERO PUSH2 0x169D JUMPI DUP1 DUP2 REVERT JUMPDEST DUP4 CALLDATALOAD SWAP3 POP PUSH1 0x20 DUP5 ADD CALLDATALOAD PUSH1 0x1 PUSH1 0x1 PUSH1 0x40 SHL SUB DUP2 GT ISZERO PUSH2 0x16B9 JUMPI DUP2 DUP3 REVERT JUMPDEST PUSH2 0x16C5 DUP7 DUP3 DUP8 ADD PUSH2 0x1208 JUMP JUMPDEST SWAP5 SWAP8 SWAP1 SWAP7 POP SWAP4 SWAP5 POP POP POP POP JUMP JUMPDEST PUSH1 0x0 DUP1 PUSH1 0x40 DUP4 DUP6 SUB SLT ISZERO PUSH2 0x16E4 JUMPI DUP2 DUP3 REVERT JUMPDEST POP POP DUP1 MLOAD PUSH1 0x20 SWAP1 SWAP2 ADD MLOAD SWAP1 SWAP3 SWAP1 SWAP2 POP JUMP JUMPDEST PUSH1 0x0 PUSH1 0x20 DUP3 DUP5 SUB SLT ISZERO PUSH2 0x1706 JUMPI DUP1 DUP2 REVERT JUMPDEST POP CALLDATALOAD SWAP2 SWAP1 POP JUMP JUMPDEST PUSH1 0x0 DUP1 PUSH1 0x40 DUP4 DUP6 SUB SLT ISZERO PUSH2 0x171F JUMPI DUP2 DUP3 REVERT JUMPDEST POP POP DUP1 CALLDATALOAD SWAP3 PUSH1 0x20 SWAP1 SWAP2 ADD CALLDATALOAD SWAP2 POP JUMP JUMPDEST PUSH1 0x0 PUSH1 0x20 DUP3 DUP5 SUB SLT ISZERO PUSH2 0x173F JUMPI DUP1 DUP2 REVERT JUMPDEST DUP2 CALLDATALOAD PUSH2 0x599 DUP2 PUSH2 0x190F JUMP JUMPDEST PUSH1 0x0 PUSH1 0x20 DUP3 DUP5 SUB SLT ISZERO PUSH2 0x175B JUMPI DUP1 DUP2 REVERT JUMPDEST DUP2 MLOAD PUSH2 0x599 DUP2 PUSH2 0x190F JUMP JUMPDEST DUP2 DUP4 DUP3 CALLDATACOPY PUSH1 0x0 SWAP2 ADD SWAP1 DUP2 MSTORE SWAP2 SWAP1 POP JUMP JUMPDEST DUP4 DUP6 DUP3 CALLDATACOPY PUSH1 0x60 SWAP3 SWAP1 SWAP3 SHL PUSH12 0xFFFFFFFFFFFFFFFFFFFFFFFF NOT AND SWAP2 SWAP1 SWAP3 ADD SWAP1 DUP2 MSTORE PUSH1 0x14 DUP2 ADD SWAP2 SWAP1 SWAP2 MSTORE PUSH1 0x34 ADD SWAP2 SWAP1 POP JUMP JUMPDEST PUSH1 0x0 DUP3 MLOAD DUP2 JUMPDEST DUP2 DUP2 LT ISZERO PUSH2 0x17C6 JUMPI PUSH1 0x20 DUP2 DUP7 ADD DUP2 ADD MLOAD DUP6 DUP4 ADD MSTORE ADD PUSH2 0x17AC JUMP JUMPDEST DUP2 DUP2 GT ISZERO PUSH2 0x17D4 JUMPI DUP3 DUP3 DUP6 ADD MSTORE JUMPDEST POP SWAP2 SWAP1 SWAP2 ADD SWAP3 SWAP2 POP POP JUMP JUMPDEST PUSH1 0x0 PUSH4 0xFFFFFFFF DUP1 DUP4 AND DUP2 DUP6 AND DUP1 DUP4 SUB DUP3 GT ISZERO PUSH2 0x17FE JUMPI PUSH2 0x17FE PUSH2 0x18B5 JUMP JUMPDEST ADD SWAP5 SWAP4 POP POP POP POP JUMP JUMPDEST PUSH1 0x0 DUP3 PUSH2 0x1816 JUMPI PUSH2 0x1816 PUSH2 0x18CB JUMP JUMPDEST POP DIV SWAP1 JUMP JUMPDEST PUSH1 0x0 DUP2 PUSH1 0x0 NOT DIV DUP4 GT DUP3 ISZERO ISZERO AND ISZERO PUSH2 0x1835 JUMPI PUSH2 0x1835 PUSH2 0x18B5 JUMP JUMPDEST POP MUL SWAP1 JUMP JUMPDEST PUSH1 0x0 PUSH4 0xFFFFFFFF DUP1 DUP4 AND DUP2 DUP6 AND DUP2 DUP4 DIV DUP2 GT DUP3 ISZERO ISZERO AND ISZERO PUSH2 0x185D JUMPI PUSH2 0x185D PUSH2 0x18B5 JUMP JUMPDEST MUL SWAP5 SWAP4 POP POP POP POP JUMP JUMPDEST PUSH1 0x0 DUP3 DUP3 LT ISZERO PUSH2 0x1878 JUMPI PUSH2 0x1878 PUSH2 0x18B5 JUMP JUMPDEST POP SUB SWAP1 JUMP JUMPDEST PUSH1 0x0 PUSH4 0xFFFFFFFF DUP1 DUP4 AND DUP2 DUP2 EQ ISZERO PUSH2 0x1897 JUMPI PUSH2 0x1897 PUSH2 0x18B5 JUMP JUMPDEST PUSH1 0x1 ADD SWAP4 SWAP3 POP POP POP JUMP JUMPDEST PUSH1 0x0 DUP3 PUSH2 0x18B0 JUMPI PUSH2 0x18B0 PUSH2 0x18CB JUMP JUMPDEST POP MOD SWAP1 JUMP JUMPDEST PUSH4 0x4E487B71 PUSH1 0xE0 SHL PUSH1 0x0 MSTORE PUSH1 0x11 PUSH1 0x4 MSTORE PUSH1 0x24 PUSH1 0x0 REVERT JUMPDEST PUSH4 0x4E487B71 PUSH1 0xE0 SHL PUSH1 0x0 MSTORE PUSH1 0x12 PUSH1 0x4 MSTORE PUSH1 0x24 PUSH1 0x0 REVERT JUMPDEST PUSH4 0x4E487B71 PUSH1 0xE0 SHL PUSH1 0x0 MSTORE PUSH1 0x41 PUSH1 0x4 MSTORE PUSH1 0x24 PUSH1 0x0 REVERT JUMPDEST PUSH1 0x1 PUSH1 0x1 PUSH1 0xA0 SHL SUB DUP2 AND DUP2 EQ PUSH2 0x190C JUMPI PUSH1 0x0 DUP1 REVERT JUMPDEST POP JUMP JUMPDEST PUSH4 0xFFFFFFFF DUP2 AND DUP2 EQ PUSH2 0x190C JUMPI PUSH1 0x0 DUP1 REVERT INVALID LOG2 PUSH5 0x6970667358 0x22 SLT KECCAK256 LOG0 0x26 CALLVALUE PUSH7 0x2687E31E2434AB SUB DUP7 0xB3 0xC1 PUSH15 0xB65E33CC47DB29DFF2ED2435D2678A SELFDESTRUCT PUSH5 0x736F6C6343 STOP ADDMOD DIV STOP CALLER "
		},
		"gasEstimates": {
			"creation": {
				"codeDepositCost": "1297400",
				"executionCost": "infinite",
				"totalCost": "infinite"
			},
			"external": {
				"base_difficulty()": "1107",
				"changeSystemAddresses(address,address)": "infinite",
				"closeDeposit(address)": "infinite",
				"getBlockHash(uint32)": "469",
				"getBlockNumber()": "205",
				"getUserRewardInfo(address)": "infinite",
				"getUserRootHash(address)": "infinite",
				"isMatchDifficulty(uint256,uint256)": "1325",
				"isValidMerkleTreeProof(bytes32,bytes32[])": "infinite",
				"isValidSign(address,bytes,bytes)": "infinite",
				"makeDeposit(address,uint256)": "infinite",
				"owner()": "1060",
				"payments_address()": "1082",
				"sendProof(address,uint32,bytes32,uint64,bytes,bytes,bytes32[])": "infinite",
				"sendProofFrom(address,address,uint32,bytes32,uint64,bytes,bytes,bytes32[])": "infinite",
				"setUserPlan(address)": "infinite",
				"transferOwnership(address)": "24482",
				"updateBaseDifficulty(uint256)": "21131",
				"user_storage_address()": "1083",
				"verifyFileProof(address,bytes,uint32,uint256)": "infinite"
			},
			"internal": {
				"UpdateLastBlockNumber(address,uint32)": "infinite",
				"UpdateLastRootHash(address,bytes32,uint64,address)": "infinite",
				"_sendProofFrom(address[2] memory,uint32,bytes32,uint64,bytes calldata,bytes32[] calldata)": "infinite",
				"_updateRootHash(address,address,bytes32,uint64)": "infinite",
				"takePay(address,address,address,uint256)": "infinite"
			}
		},
		"methodIdentifiers": {
			"base_difficulty()": "2d36de7a",
			"changeSystemAddresses(address,address)": "eb5439dc",
			"closeDeposit(address)": "dc8d0a40",
			"getBlockHash(uint32)": "d2b210a1",
			"getBlockNumber()": "42cbb15c",
			"getUserRewardInfo(address)": "69517310",
			"getUserRootHash(address)": "f9a76fde",
			"isMatchDifficulty(uint256,uint256)": "812adbd8",
			"isValidMerkleTreeProof(bytes32,bytes32[])": "059dbb30",
			"isValidSign(address,bytes,bytes)": "16ecc0e6",
			"makeDeposit(address,uint256)": "bf5d0a00",
			"owner()": "8da5cb5b",
			"payments_address()": "95747678",
			"sendProof(address,uint32,bytes32,uint64,bytes,bytes,bytes32[])": "74556ca9",
			"sendProofFrom(address,address,uint32,bytes32,uint64,bytes,bytes,bytes32[])": "46f03dd5",
			"setUserPlan(address)": "e067ae4c",
			"transferOwnership(address)": "f2fde38b",
			"updateBaseDifficulty(uint256)": "b5c6da27",
			"user_storage_address()": "1079a326",
			"verifyFileProof(address,bytes,uint32,uint256)": "1d285f0a"
		}
	},
	"abi": [
		{
			"inputs": [
				{
					"internalType": "address",
					"name": "_storage_address",
					"type": "address"
				},
				{
					"internalType": "address",
					"name": "_payments_address",
					"type": "address"
				},
				{
					"internalType": "uint256",
					"name": "_baseDifficulty",
					"type": "uint256"
				}
			],
			"stateMutability": "nonpayable",
			"type": "constructor"
		},
		{
			"anonymous": false,
			"inputs": [
				{
					"indexed": true,
					"internalType": "address",
					"name": "previousOwner",
					"type": "address"
				},
				{
					"indexed": true,
					"internalType": "address",
					"name": "newOwner",
					"type": "address"
				}
			],
			"name": "OwnershipTransferred",
			"type": "event"
		},
		{
			"anonymous": false,
			"inputs": [
				{
					"indexed": false,
					"internalType": "bytes32",
					"name": "wrong_hash",
					"type": "bytes32"
				}
			],
			"name": "wrongError",
			"type": "event"
		},
		{
			"inputs": [],
			"name": "base_difficulty",
			"outputs": [
				{
					"internalType": "uint256",
					"name": "",
					"type": "uint256"
				}
			],
			"stateMutability": "view",
			"type": "function"
		},
		{
			"inputs": [
				{
					"internalType": "address",
					"name": "_storage_address",
					"type": "address"
				},
				{
					"internalType": "address",
					"name": "_payments_address",
					"type": "address"
				}
			],
			"name": "changeSystemAddresses",
			"outputs": [],
			"stateMutability": "nonpayable",
			"type": "function"
		},
		{
			"inputs": [
				{
					"internalType": "address",
					"name": "_token",
					"type": "address"
				}
			],
			"name": "closeDeposit",
			"outputs": [],
			"stateMutability": "nonpayable",
			"type": "function"
		},
		{
			"inputs": [
				{
					"internalType": "uint32",
					"name": "_n",
					"type": "uint32"
				}
			],
			"name": "getBlockHash",
			"outputs": [
				{
					"internalType": "bytes32",
					"name": "",
					"type": "bytes32"
				}
			],
			"stateMutability": "view",
			"type": "function"
		},
		{
			"inputs": [],
			"name": "getBlockNumber",
			"outputs": [
				{
					"internalType": "uint32",
					"name": "",
					"type": "uint32"
				}
			],
			"stateMutability": "view",
			"type": "function"
		},
		{
			"inputs": [
				{
					"internalType": "address",
					"name": "_user",
					"type": "address"
				}
			],
			"name": "getUserRewardInfo",
			"outputs": [
				{
					"internalType": "address",
					"name": "",
					"type": "address"
				},
				{
					"internalType": "uint256",
					"name": "",
					"type": "uint256"
				},
				{
					"internalType": "uint256",
					"name": "",
					"type": "uint256"
				}
			],
			"stateMutability": "view",
			"type": "function"
		},
		{
			"inputs": [
				{
					"internalType": "address",
					"name": "_user",
					"type": "address"
				}
			],
			"name": "getUserRootHash",
			"outputs": [
				{
					"internalType": "bytes32",
					"name": "",
					"type": "bytes32"
				},
				{
					"internalType": "uint256",
					"name": "",
					"type": "uint256"
				}
			],
			"stateMutability": "view",
			"type": "function"
		},
		{
			"inputs": [
				{
					"internalType": "uint256",
					"name": "_proof",
					"type": "uint256"
				},
				{
					"internalType": "uint256",
					"name": "_targetDifficulty",
					"type": "uint256"
				}
			],
			"name": "isMatchDifficulty",
			"outputs": [
				{
					"internalType": "bool",
					"name": "",
					"type": "bool"
				}
			],
			"stateMutability": "view",
			"type": "function"
		},
		{
			"inputs": [
				{
					"internalType": "bytes32",
					"name": "_root_hash",
					"type": "bytes32"
				},
				{
					"internalType": "bytes32[]",
					"name": "proof",
					"type": "bytes32[]"
				}
			],
			"name": "isValidMerkleTreeProof",
			"outputs": [
				{
					"internalType": "bool",
					"name": "",
					"type": "bool"
				}
			],
			"stateMutability": "pure",
			"type": "function"
		},
		{
			"inputs": [
				{
					"internalType": "address",
					"name": "_signer",
					"type": "address"
				},
				{
					"internalType": "bytes",
					"name": "message",
					"type": "bytes"
				},
				{
					"internalType": "bytes",
					"name": "signature",
					"type": "bytes"
				}
			],
			"name": "isValidSign",
			"outputs": [
				{
					"internalType": "bool",
					"name": "",
					"type": "bool"
				}
			],
			"stateMutability": "pure",
			"type": "function"
		},
		{
			"inputs": [
				{
					"internalType": "address",
					"name": "_token",
					"type": "address"
				},
				{
					"internalType": "uint256",
					"name": "_amount",
					"type": "uint256"
				}
			],
			"name": "makeDeposit",
			"outputs": [],
			"stateMutability": "nonpayable",
			"type": "function"
		},
		{
			"inputs": [],
			"name": "owner",
			"outputs": [
				{
					"internalType": "address",
					"name": "",
					"type": "address"
				}
			],
			"stateMutability": "view",
			"type": "function"
		},
		{
			"inputs": [],
			"name": "payments_address",
			"outputs": [
				{
					"internalType": "address",
					"name": "",
					"type": "address"
				}
			],
			"stateMutability": "view",
			"type": "function"
		},
		{
			"inputs": [
				{
					"internalType": "address",
					"name": "_user_address",
					"type": "address"
				},
				{
					"internalType": "uint32",
					"name": "_block_number",
					"type": "uint32"
				},
				{
					"internalType": "bytes32",
					"name": "_user_root_hash",
					"type": "bytes32"
				},
				{
					"internalType": "uint64",
					"name": "_user_root_hash_nonce",
					"type": "uint64"
				},
				{
					"internalType": "bytes",
					"name": "_user_signature",
					"type": "bytes"
				},
				{
					"internalType": "bytes",
					"name": "_file",
					"type": "bytes"
				},
				{
					"internalType": "bytes32[]",
					"name": "merkleProof",
					"type": "bytes32[]"
				}
			],
			"name": "sendProof",
			"outputs": [],
			"stateMutability": "nonpayable",
			"type": "function"
		},
		{
			"inputs": [
				{
					"internalType": "address",
					"name": "_node_address",
					"type": "address"
				},
				{
					"internalType": "address",
					"name": "_user_address",
					"type": "address"
				},
				{
					"internalType": "uint32",
					"name": "_block_number",
					"type": "uint32"
				},
				{
					"internalType": "bytes32",
					"name": "_user_root_hash",
					"type": "bytes32"
				},
				{
					"internalType": "uint64",
					"name": "_user_root_hash_nonce",
					"type": "uint64"
				},
				{
					"internalType": "bytes",
					"name": "_user_signature",
					"type": "bytes"
				},
				{
					"internalType": "bytes",
					"name": "_file",
					"type": "bytes"
				},
				{
					"internalType": "bytes32[]",
					"name": "merkleProof",
					"type": "bytes32[]"
				}
			],
			"name": "sendProofFrom",
			"outputs": [],
			"stateMutability": "nonpayable",
			"type": "function"
		},
		{
			"inputs": [
				{
					"internalType": "address",
					"name": "_token",
					"type": "address"
				}
			],
			"name": "setUserPlan",
			"outputs": [],
			"stateMutability": "nonpayable",
			"type": "function"
		},
		{
			"inputs": [
				{
					"internalType": "address",
					"name": "newOwner",
					"type": "address"
				}
			],
			"name": "transferOwnership",
			"outputs": [],
			"stateMutability": "nonpayable",
			"type": "function"
		},
		{
			"inputs": [
				{
					"internalType": "uint256",
					"name": "_new_difficulty",
					"type": "uint256"
				}
			],
			"name": "updateBaseDifficulty",
			"outputs": [],
			"stateMutability": "nonpayable",
			"type": "function"
		},
		{
			"inputs": [],
			"name": "user_storage_address",
			"outputs": [
				{
					"internalType": "address",
					"name": "",
					"type": "address"
				}
			],
			"stateMutability": "view",
			"type": "function"
		},
		{
			"inputs": [
				{
					"internalType": "address",
					"name": "_sender",
					"type": "address"
				},
				{
					"internalType": "bytes",
					"name": "_file",
					"type": "bytes"
				},
				{
					"internalType": "uint32",
					"name": "_block_number",
					"type": "uint32"
				},
				{
					"internalType": "uint256",
					"name": "_blocks_complited",
					"type": "uint256"
				}
			],
			"name": "verifyFileProof",
			"outputs": [
				{
					"internalType": "bool",
					"name": "",
					"type": "bool"
				}
			],
			"stateMutability": "view",
			"type": "function"
		}
	]
}