{
	"data": {
		"bytecode": {
			"linkReferences": {},
			"object": "608060405260646004553480156200001657600080fd5b50604051620030cb380380620030cb83398181016040528101906200003c91906200013e565b80336000806101000a81548173ffffffffffffffffffffffffffffffffffffffff021916908373ffffffffffffffffffffffffffffffffffffffff160217905550806001819055505082600260006101000a81548173ffffffffffffffffffffffffffffffffffffffff021916908373ffffffffffffffffffffffffffffffffffffffff16021790555081600360006101000a81548173ffffffffffffffffffffffffffffffffffffffff021916908373ffffffffffffffffffffffffffffffffffffffff16021790555050505062000206565b6000815190506200012181620001d2565b92915050565b6000815190506200013881620001ec565b92915050565b6000806000606084860312156200015457600080fd5b6000620001648682870162000110565b9350506020620001778682870162000110565b92505060406200018a8682870162000127565b9150509250925092565b6000620001a182620001a8565b9050919050565b600073ffffffffffffffffffffffffffffffffffffffff82169050919050565b6000819050919050565b620001dd8162000194565b8114620001e957600080fd5b50565b620001f781620001c8565b81146200020357600080fd5b50565b612eb580620002166000396000f3fe608060405234801561001057600080fd5b506004361061012c5760003560e01c80638da5cb5b116100ad578063dc8d0a4011610071578063dc8d0a4014610359578063e067ae4c14610375578063eb5439dc14610391578063f2fde38b146103ad578063f9a76fde146103c95761012c565b80638da5cb5b146102b557806395747678146102d3578063b5c6da27146102f1578063bf5d0a001461030d578063d2b210a1146103295761012c565b806342cbb15c116100f457806342cbb15c146101fd57806346f03dd51461021b578063695173101461023757806374556ca914610269578063812adbd8146102855761012c565b8063059dbb30146101315780631079a3261461016157806316ecc0e61461017f5780631d285f0a146101af5780632d36de7a146101df575b600080fd5b61014b60048036038101906101469190612121565b6103fa565b60405161015891906126d9565b60405180910390f35b61016961071b565b6040516101769190612574565b60405180910390f35b61019960048036038101906101949190611f4a565b610741565b6040516101a691906126d9565b60405180910390f35b6101c960048036038101906101c49190611eca565b6108cc565b6040516101d691906126d9565b60405180910390f35b6101e7610966565b6040516101f4919061287d565b60405180910390f35b61020561096c565b6040516102129190612898565b60405180910390f35b61023560048036038101906102309190611dc2565b610974565b005b610251600480360381019061024c9190611d34565b610abc565b60405161026093929190612679565b60405180910390f35b610283600480360381019061027e9190612005565b610d17565b005b61029f600480360381019061029a9190612207565b610e5e565b6040516102ac91906126d9565b60405180910390f35b6102bd610e89565b6040516102ca9190612574565b60405180910390f35b6102db610ead565b6040516102e89190612574565b60405180910390f35b61030b600480360381019061030691906121b5565b610ed3565b005b61032760048036038101906103229190611fc9565b610f35565b005b610343600480360381019061033e9190612243565b610fd0565b60405161035091906126f4565b60405180910390f35b610373600480360381019061036e9190611d34565b610fe1565b005b61038f600480360381019061038a9190611d34565b611079565b005b6103ab60048036038101906103a69190611d86565b611111565b005b6103c760048036038101906103c29190611d34565b6111ef565b005b6103e360048036038101906103de9190611d34565b61133e565b6040516103f192919061270f565b60405180910390f35b6000806000801b905060005b600285859050610416919061296a565b8163ffffffff16101561070c576002858560028461043491906129f5565b63ffffffff16818110610470577f4e487b7100000000000000000000000000000000000000000000000000000000600052603260045260246000fd5b905060200201358686600160028661048891906129f5565b6104929190612930565b63ffffffff168181106104ce577f4e487b7100000000000000000000000000000000000000000000000000000000600052603260045260246000fd5b905060200201356040516020016104e69291906124b1565b604051602081830303815290604052604051610502919061255d565b602060405180830381855afa15801561051f573d6000803e3d6000fd5b5050506040513d601f19601f8201168201806040525081019061054291906120f8565b9150600360028261055391906129f5565b61055d9190612930565b63ffffffff166001868690506105739190612a33565b1115610655578185856002808561058a91906129f5565b6105949190612930565b63ffffffff168181106105d0577f4e487b7100000000000000000000000000000000000000000000000000000000600052603260045260246000fd5b90506020020135148015610640575081858560036002856105f191906129f5565b6105fb9190612930565b63ffffffff16818110610637577f4e487b7100000000000000000000000000000000000000000000000000000000600052603260045260246000fd5b90506020020135145b1561065057600092505050610714565b6106f9565b6002808261066391906129f5565b61066d9190612930565b63ffffffff166001868690506106839190612a33565b11156106f8578185856002808561069a91906129f5565b6106a49190612930565b63ffffffff168181106106e0577f4e487b7100000000000000000000000000000000000000000000000000000000600052603260045260246000fd5b90506020020135146106f757600092505050610714565b5b5b808061070490612b5d565b915050610406565b508085149150505b9392505050565b600260009054906101000a900473ffffffffffffffffffffffffffffffffffffffff1681565b60008060008060418551141561076e576020850151925060408501519150606085015160001a90506107f4565b6040855114156107b8576040850151602086015193507f7fffffffffffffffffffffffffffffffffffffffffffffffffffffffffffffff81169250601b8160ff1c019150506107f3565b6040517f08c379a00000000000000000000000000000000000000000000000000000000081526004016107ea9061277d565b60405180910390fd5b5b6001600287604051610806919061255d565b602060405180830381855afa158015610823573d6000803e3d6000fd5b5050506040513d601f19601f8201168201806040525081019061084691906120f8565b828585604051600081526020016040526040516108669493929190612738565b6020604051602081039080840390855afa158015610888573d6000803e3d6000fd5b5050506020604051035173ffffffffffffffffffffffffffffffffffffffff168773ffffffffffffffffffffffffffffffffffffffff161493505050509392505050565b60008060028686898763ffffffff16406040516020016108ef9493929190612522565b60405160208183030381529060405260405161090b919061255d565b602060405180830381855afa158015610928573d6000803e3d6000fd5b5050506040513d601f19601f8201168201806040525081019061094b91906120f8565b905061095a8160001c84610e5e565b91505095945050505050565b60015481565b600043905090565b600060405180604001604052808d73ffffffffffffffffffffffffffffffffffffffff1673ffffffffffffffffffffffffffffffffffffffff1681526020018c73ffffffffffffffffffffffffffffffffffffffff1673ffffffffffffffffffffffffffffffffffffffff168152509050610a5f8b8a8a67ffffffffffffffff16604051602001610a069291906124dd565b60405160208183030381529060405289898080601f016020809104026020016040519081016040528093929190818152602001838380828437600081840152601f19601f82011690508083019250505050505050610741565b610a9e576040517f08c379a0000000000000000000000000000000000000000000000000000000008152600401610a959061285d565b60405180910390fd5b610aae818b8b8b898989896113fa565b505050505050505050505050565b600080600080600360009054906101000a900473ffffffffffffffffffffffffffffffffffffffff1690506000600260009054906101000a900473ffffffffffffffffffffffffffffffffffffffff16905060008173ffffffffffffffffffffffffffffffffffffffff1663b8190977886040518263ffffffff1660e01b8152600401610b499190612574565b60206040518083038186803b158015610b6157600080fd5b505afa158015610b75573d6000803e3d6000fd5b505050506040513d601f19601f82011682018060405250810190610b999190611d5d565b905060008373ffffffffffffffffffffffffffffffffffffffff1663d4fac45d838a6040518363ffffffff1660e01b8152600401610bd892919061258f565b60206040518083038186803b158015610bf057600080fd5b505afa158015610c04573d6000803e3d6000fd5b505050506040513d601f19601f82011682018060405250810190610c2891906121de565b905060006220148082610c3b919061296a565b905060008473ffffffffffffffffffffffffffffffffffffffff166384c706b88b6040518263ffffffff1660e01b8152600401610c789190612574565b60206040518083038186803b158015610c9057600080fd5b505afa158015610ca4573d6000803e3d6000fd5b505050506040513d601f19601f82011682018060405250810190610cc8919061226c565b905060008163ffffffff1643610cde9190612a33565b90506000838263ffffffff16610cf4919061299b565b90508581838063ffffffff1690509a509a509a5050505050505050509193909250565b600060405180604001604052803373ffffffffffffffffffffffffffffffffffffffff1673ffffffffffffffffffffffffffffffffffffffff1681526020018c73ffffffffffffffffffffffffffffffffffffffff1673ffffffffffffffffffffffffffffffffffffffff168152509050610e028b8a8a67ffffffffffffffff16604051602001610da99291906124dd565b60405160208183030381529060405289898080601f016020809104026020016040519081016040528093929190818152602001838380828437600081840152601f19601f82011690508083019250505050505050610741565b610e41576040517f08c379a0000000000000000000000000000000000000000000000000000000008152600401610e389061285d565b60405180910390fd5b610e51818b8b8b898989896113fa565b5050505050505050505050565b60008160015484610e6f9190612bc2565b1015610e7e5760019050610e83565b600090505b92915050565b60008054906101000a900473ffffffffffffffffffffffffffffffffffffffff1681565b600360009054906101000a900473ffffffffffffffffffffffffffffffffffffffff1681565b60008054906101000a900473ffffffffffffffffffffffffffffffffffffffff1673ffffffffffffffffffffffffffffffffffffffff163373ffffffffffffffffffffffffffffffffffffffff1614610f2b57600080fd5b8060018190555050565b6000600360009054906101000a900473ffffffffffffffffffffffffffffffffffffffff1690508073ffffffffffffffffffffffffffffffffffffffff16637673fa983385856040518463ffffffff1660e01b8152600401610f99939291906125fd565b600060405180830381600087803b158015610fb357600080fd5b505af1158015610fc7573d6000803e3d6000fd5b50505050505050565b60008163ffffffff16409050919050565b6000600360009054906101000a900473ffffffffffffffffffffffffffffffffffffffff1690508073ffffffffffffffffffffffffffffffffffffffff1663e19ae7c333846040518363ffffffff1660e01b815260040161104392919061258f565b600060405180830381600087803b15801561105d57600080fd5b505af1158015611071573d6000803e3d6000fd5b505050505050565b6000600260009054906101000a900473ffffffffffffffffffffffffffffffffffffffff1690508073ffffffffffffffffffffffffffffffffffffffff1663eac4763633846040518363ffffffff1660e01b81526004016110db92919061258f565b600060405180830381600087803b1580156110f557600080fd5b505af1158015611109573d6000803e3d6000fd5b505050505050565b60008054906101000a900473ffffffffffffffffffffffffffffffffffffffff1673ffffffffffffffffffffffffffffffffffffffff163373ffffffffffffffffffffffffffffffffffffffff161461116957600080fd5b81600260006101000a81548173ffffffffffffffffffffffffffffffffffffffff021916908373ffffffffffffffffffffffffffffffffffffffff16021790555080600360006101000a81548173ffffffffffffffffffffffffffffffffffffffff021916908373ffffffffffffffffffffffffffffffffffffffff1602179055505050565b60008054906101000a900473ffffffffffffffffffffffffffffffffffffffff1673ffffffffffffffffffffffffffffffffffffffff163373ffffffffffffffffffffffffffffffffffffffff161461124757600080fd5b600073ffffffffffffffffffffffffffffffffffffffff168173ffffffffffffffffffffffffffffffffffffffff16141561128157600080fd5b8073ffffffffffffffffffffffffffffffffffffffff1660008054906101000a900473ffffffffffffffffffffffffffffffffffffffff1673ffffffffffffffffffffffffffffffffffffffff167f8be0079c531659141344cd1fd0a4f28419497f9722a3daafe3b4186f6b6457e060405160405180910390a3806000806101000a81548173ffffffffffffffffffffffffffffffffffffffff021916908373ffffffffffffffffffffffffffffffffffffffff16021790555050565b6000806000600260009054906101000a900473ffffffffffffffffffffffffffffffffffffffff1690508073ffffffffffffffffffffffffffffffffffffffff1663bce6325a856040518263ffffffff1660e01b81526004016113a19190612574565b604080518083038186803b1580156113b857600080fd5b505afa1580156113cc573d6000803e3d6000fd5b505050506040513d601f19601f820116820180604052508101906113f09190612179565b9250925050915091565b600073ffffffffffffffffffffffffffffffffffffffff168860006002811061144c577f4e487b7100000000000000000000000000000000000000000000000000000000600052603260045260246000fd5b602002015173ffffffffffffffffffffffffffffffffffffffff16141580156114e05750600073ffffffffffffffffffffffffffffffffffffffff16886001600281106114c2577f4e487b7100000000000000000000000000000000000000000000000000000000600052603260045260246000fd5b602002015173ffffffffffffffffffffffffffffffffffffffff1614155b61151f576040517f08c379a0000000000000000000000000000000000000000000000000000000008152600401611516906127bd565b60405180910390fd5b6115a78860016002811061155c577f4e487b7100000000000000000000000000000000000000000000000000000000600052603260045260246000fd5b60200201518960006002811061159b577f4e487b7100000000000000000000000000000000000000000000000000000000600052603260045260246000fd5b60200201518888611927565b600080600080600288886040516115bf929190612509565b602060405180830381855afa1580156115dc573d6000803e3d6000fd5b5050506040513d601f19601f820116820180604052508101906115ff91906120f8565b90506116488c60016002811061163e577f4e487b7100000000000000000000000000000000000000000000000000000000600052603260045260246000fd5b6020020151610abc565b809450819550829650505050600454436116629190612a33565b8b63ffffffff16116116a9576040517f08c379a00000000000000000000000000000000000000000000000000000000081526004016116a0906127fd565b60405180910390fd5b6116b48a87876103fa565b6116f3576040517f08c379a00000000000000000000000000000000000000000000000000000000081526004016116ea9061283d565b60405180910390fd5b61173e8c600060028110611730577f4e487b7100000000000000000000000000000000000000000000000000000000600052603260045260246000fd5b602002015189898e866108cc565b61177d576040517f08c379a0000000000000000000000000000000000000000000000000000000008152600401611774906127dd565b60405180910390fd5b858560008181106117b7577f4e487b7100000000000000000000000000000000000000000000000000000000600052603260045260246000fd5b9050602002013581148061180a575085856001818110611800577f4e487b7100000000000000000000000000000000000000000000000000000000600052603260045260246000fd5b9050602002013581145b611849576040517f08c379a00000000000000000000000000000000000000000000000000000000081526004016118409061279d565b60405180910390fd5b6118d1848d600160028110611887577f4e487b7100000000000000000000000000000000000000000000000000000000600052603260045260246000fd5b60200201518e6000600281106118c6577f4e487b7100000000000000000000000000000000000000000000000000000000600052603260045260246000fd5b6020020151866119a4565b6119198c60016002811061190e577f4e487b7100000000000000000000000000000000000000000000000000000000600052603260045260246000fd5b602002015143611a43565b505050505050505050505050565b6000806119338661133e565b8092508193505050808367ffffffffffffffff161015611988576040517f08c379a000000000000000000000000000000000000000000000000000000000815260040161197f9061281d565b60405180910390fd5b81841461199c5761199b86858588611adc565b5b505050505050565b6000600360009054906101000a900473ffffffffffffffffffffffffffffffffffffffff1690508073ffffffffffffffffffffffffffffffffffffffff1663d8add41b868686866040518563ffffffff1660e01b8152600401611a0a94939291906125b8565b600060405180830381600087803b158015611a2457600080fd5b505af1158015611a38573d6000803e3d6000fd5b505050505050505050565b6000600260009054906101000a900473ffffffffffffffffffffffffffffffffffffffff1690508073ffffffffffffffffffffffffffffffffffffffff1663c9254f6f84846040518363ffffffff1660e01b8152600401611aa59291906126b0565b600060405180830381600087803b158015611abf57600080fd5b505af1158015611ad3573d6000803e3d6000fd5b50505050505050565b6000600260009054906101000a900473ffffffffffffffffffffffffffffffffffffffff1690508073ffffffffffffffffffffffffffffffffffffffff166335e73df4868686866040518563ffffffff1660e01b8152600401611b429493929190612634565b600060405180830381600087803b158015611b5c57600080fd5b505af1158015611b70573d6000803e3d6000fd5b505050505050505050565b6000611b8e611b89846128d8565b6128b3565b905082815260208101848484011115611ba657600080fd5b611bb1848285612aea565b509392505050565b600081359050611bc881612e0c565b92915050565b600081519050611bdd81612e0c565b92915050565b60008083601f840112611bf557600080fd5b8235905067ffffffffffffffff811115611c0e57600080fd5b602083019150836020820283011115611c2657600080fd5b9250929050565b600081359050611c3c81612e23565b92915050565b600081519050611c5181612e23565b92915050565b60008083601f840112611c6957600080fd5b8235905067ffffffffffffffff811115611c8257600080fd5b602083019150836001820283011115611c9a57600080fd5b9250929050565b600082601f830112611cb257600080fd5b8135611cc2848260208601611b7b565b91505092915050565b600081359050611cda81612e3a565b92915050565b600081519050611cef81612e3a565b92915050565b600081359050611d0481612e51565b92915050565b600081519050611d1981612e51565b92915050565b600081359050611d2e81612e68565b92915050565b600060208284031215611d4657600080fd5b6000611d5484828501611bb9565b91505092915050565b600060208284031215611d6f57600080fd5b6000611d7d84828501611bce565b91505092915050565b60008060408385031215611d9957600080fd5b6000611da785828601611bb9565b9250506020611db885828601611bb9565b9150509250929050565b60008060008060008060008060008060006101008c8e031215611de457600080fd5b6000611df28e828f01611bb9565b9b50506020611e038e828f01611bb9565b9a50506040611e148e828f01611cf5565b9950506060611e258e828f01611c2d565b9850506080611e368e828f01611d1f565b97505060a08c013567ffffffffffffffff811115611e5357600080fd5b611e5f8e828f01611c57565b965096505060c08c013567ffffffffffffffff811115611e7e57600080fd5b611e8a8e828f01611c57565b945094505060e08c013567ffffffffffffffff811115611ea957600080fd5b611eb58e828f01611be3565b92509250509295989b509295989b9093969950565b600080600080600060808688031215611ee257600080fd5b6000611ef088828901611bb9565b955050602086013567ffffffffffffffff811115611f0d57600080fd5b611f1988828901611c57565b94509450506040611f2c88828901611cf5565b9250506060611f3d88828901611ccb565b9150509295509295909350565b600080600060608486031215611f5f57600080fd5b6000611f6d86828701611bb9565b935050602084013567ffffffffffffffff811115611f8a57600080fd5b611f9686828701611ca1565b925050604084013567ffffffffffffffff811115611fb357600080fd5b611fbf86828701611ca1565b9150509250925092565b60008060408385031215611fdc57600080fd5b6000611fea85828601611bb9565b9250506020611ffb85828601611ccb565b9150509250929050565b60008060008060008060008060008060e08b8d03121561202457600080fd5b60006120328d828e01611bb9565b9a505060206120438d828e01611cf5565b99505060406120548d828e01611c2d565b98505060606120658d828e01611d1f565b97505060808b013567ffffffffffffffff81111561208257600080fd5b61208e8d828e01611c57565b965096505060a08b013567ffffffffffffffff8111156120ad57600080fd5b6120b98d828e01611c57565b945094505060c08b013567ffffffffffffffff8111156120d857600080fd5b6120e48d828e01611be3565b92509250509295989b9194979a5092959850565b60006020828403121561210a57600080fd5b600061211884828501611c42565b91505092915050565b60008060006040848603121561213657600080fd5b600061214486828701611c2d565b935050602084013567ffffffffffffffff81111561216157600080fd5b61216d86828701611be3565b92509250509250925092565b6000806040838503121561218c57600080fd5b600061219a85828601611c42565b92505060206121ab85828601611ce0565b9150509250929050565b6000602082840312156121c757600080fd5b60006121d584828501611ccb565b91505092915050565b6000602082840312156121f057600080fd5b60006121fe84828501611ce0565b91505092915050565b6000806040838503121561221a57600080fd5b600061222885828601611ccb565b925050602061223985828601611ccb565b9150509250929050565b60006020828403121561225557600080fd5b600061226384828501611cf5565b91505092915050565b60006020828403121561227e57600080fd5b600061228c84828501611d0a565b91505092915050565b61229e81612a67565b82525050565b6122b56122b082612a67565b612b8a565b82525050565b6122c481612a79565b82525050565b6122d381612a85565b82525050565b6122ea6122e582612a85565b612b9c565b82525050565b60006122fc8385612914565b9350612309838584612aea565b82840190509392505050565b600061232082612909565b61232a8185612914565b935061233a818560208601612af9565b80840191505092915050565b6000612353601f8361291f565b915061235e82612c9e565b602082019050919050565b600061237660238361291f565b915061238182612cc7565b604082019050919050565b600061239960158361291f565b91506123a482612d16565b602082019050919050565b60006123bc60148361291f565b91506123c782612d3f565b602082019050919050565b60006123df600d8361291f565b91506123ea82612d68565b602082019050919050565b600061240260118361291f565b915061240d82612d91565b602082019050919050565b600061242560118361291f565b915061243082612dba565b602082019050919050565b6000612448600f8361291f565b915061245382612de3565b602082019050919050565b61246781612aaf565b82525050565b61247e61247982612aaf565b612bb8565b82525050565b61248d81612ab9565b82525050565b61249c81612ac9565b82525050565b6124ab81612add565b82525050565b60006124bd82856122d9565b6020820191506124cd82846122d9565b6020820191508190509392505050565b60006124e982856122d9565b6020820191506124f9828461246d565b6020820191508190509392505050565b60006125168284866122f0565b91508190509392505050565b600061252f8286886122f0565b915061253b82856122a4565b60148201915061254b82846122d9565b60208201915081905095945050505050565b60006125698284612315565b915081905092915050565b60006020820190506125896000830184612295565b92915050565b60006040820190506125a46000830185612295565b6125b16020830184612295565b9392505050565b60006080820190506125cd6000830187612295565b6125da6020830186612295565b6125e76040830185612295565b6125f4606083018461245e565b95945050505050565b60006060820190506126126000830186612295565b61261f6020830185612295565b61262c604083018461245e565b949350505050565b60006080820190506126496000830187612295565b61265660208301866122ca565b6126636040830185612493565b6126706060830184612295565b95945050505050565b600060608201905061268e6000830186612295565b61269b602083018561245e565b6126a8604083018461245e565b949350505050565b60006040820190506126c56000830185612295565b6126d26020830184612484565b9392505050565b60006020820190506126ee60008301846122bb565b92915050565b600060208201905061270960008301846122ca565b92915050565b600060408201905061272460008301856122ca565b612731602083018461245e565b9392505050565b600060808201905061274d60008301876122ca565b61275a60208301866124a2565b61276760408301856122ca565b61277460608301846122ca565b95945050505050565b6000602082019050818103600083015261279681612346565b9050919050565b600060208201905081810360008301526127b681612369565b9050919050565b600060208201905081810360008301526127d68161238c565b9050919050565b600060208201905081810360008301526127f6816123af565b9050919050565b60006020820190508181036000830152612816816123d2565b9050919050565b60006020820190508181036000830152612836816123f5565b9050919050565b6000602082019050818103600083015261285681612418565b9050919050565b600060208201905081810360008301526128768161243b565b9050919050565b6000602082019050612892600083018461245e565b92915050565b60006020820190506128ad6000830184612484565b92915050565b60006128bd6128ce565b90506128c98282612b2c565b919050565b6000604051905090565b600067ffffffffffffffff8211156128f3576128f2612c51565b5b6128fc82612c80565b9050602081019050919050565b600081519050919050565b600081905092915050565b600082825260208201905092915050565b600061293b82612ab9565b915061294683612ab9565b92508263ffffffff0382111561295f5761295e612bf3565b5b828201905092915050565b600061297582612aaf565b915061298083612aaf565b9250826129905761298f612c22565b5b828204905092915050565b60006129a682612aaf565b91506129b183612aaf565b9250817fffffffffffffffffffffffffffffffffffffffffffffffffffffffffffffffff04831182151516156129ea576129e9612bf3565b5b828202905092915050565b6000612a0082612ab9565b9150612a0b83612ab9565b92508163ffffffff0483118215151615612a2857612a27612bf3565b5b828202905092915050565b6000612a3e82612aaf565b9150612a4983612aaf565b925082821015612a5c57612a5b612bf3565b5b828203905092915050565b6000612a7282612a8f565b9050919050565b60008115159050919050565b6000819050919050565b600073ffffffffffffffffffffffffffffffffffffffff82169050919050565b6000819050919050565b600063ffffffff82169050919050565b600067ffffffffffffffff82169050919050565b600060ff82169050919050565b82818337600083830152505050565b60005b83811015612b17578082015181840152602081019050612afc565b83811115612b26576000848401525b50505050565b612b3582612c80565b810181811067ffffffffffffffff82111715612b5457612b53612c51565b5b80604052505050565b6000612b6882612ab9565b915063ffffffff821415612b7f57612b7e612bf3565b5b600182019050919050565b6000612b9582612ba6565b9050919050565b6000819050919050565b6000612bb182612c91565b9050919050565b6000819050919050565b6000612bcd82612aaf565b9150612bd883612aaf565b925082612be857612be7612c22565b5b828206905092915050565b7f4e487b7100000000000000000000000000000000000000000000000000000000600052601160045260246000fd5b7f4e487b7100000000000000000000000000000000000000000000000000000000600052601260045260246000fd5b7f4e487b7100000000000000000000000000000000000000000000000000000000600052604160045260246000fd5b6000601f19601f8301169050919050565b60008160601b9050919050565b7f45434453413a20696e76616c6964207369676e6174757265206c656e67746800600082015250565b7f6e6f7420666f756e64205f66696c655f6861736820696e206d65726b6c65507260008201527f6f6f660000000000000000000000000000000000000000000000000000000000602082015250565b7f616464726573732063616e2774206265207a65726f0000000000000000000000600082015250565b7f4e6f74206d6174636820646966666963756c7479000000000000000000000000600082015250565b7f546f6f206f6c642070726f6f6600000000000000000000000000000000000000600082015250565b7f546f6f206f6c6420726f6f742068617368000000000000000000000000000000600082015250565b7f57726f6e67206d65726b6c6550726f6f66000000000000000000000000000000600082015250565b7f77726f6e67207369676e61747572650000000000000000000000000000000000600082015250565b612e1581612a67565b8114612e2057600080fd5b50565b612e2c81612a85565b8114612e3757600080fd5b50565b612e4381612aaf565b8114612e4e57600080fd5b50565b612e5a81612ab9565b8114612e6557600080fd5b50565b612e7181612ac9565b8114612e7c57600080fd5b5056fea2646970667358221220fd1104e7935cfeb1567b159530aaf2ee029ea11580d3dc502cf87bf3014e089564736f6c63430008010033",
			"opcodes": "PUSH1 0x80 PUSH1 0x40 MSTORE PUSH1 0x64 PUSH1 0x4 SSTORE CALLVALUE DUP1 ISZERO PUSH3 0x16 JUMPI PUSH1 0x0 DUP1 REVERT JUMPDEST POP PUSH1 0x40 MLOAD PUSH3 0x30CB CODESIZE SUB DUP1 PUSH3 0x30CB DUP4 CODECOPY DUP2 DUP2 ADD PUSH1 0x40 MSTORE DUP2 ADD SWAP1 PUSH3 0x3C SWAP2 SWAP1 PUSH3 0x13E JUMP JUMPDEST DUP1 CALLER PUSH1 0x0 DUP1 PUSH2 0x100 EXP DUP2 SLOAD DUP2 PUSH20 0xFFFFFFFFFFFFFFFFFFFFFFFFFFFFFFFFFFFFFFFF MUL NOT AND SWAP1 DUP4 PUSH20 0xFFFFFFFFFFFFFFFFFFFFFFFFFFFFFFFFFFFFFFFF AND MUL OR SWAP1 SSTORE POP DUP1 PUSH1 0x1 DUP2 SWAP1 SSTORE POP POP DUP3 PUSH1 0x2 PUSH1 0x0 PUSH2 0x100 EXP DUP2 SLOAD DUP2 PUSH20 0xFFFFFFFFFFFFFFFFFFFFFFFFFFFFFFFFFFFFFFFF MUL NOT AND SWAP1 DUP4 PUSH20 0xFFFFFFFFFFFFFFFFFFFFFFFFFFFFFFFFFFFFFFFF AND MUL OR SWAP1 SSTORE POP DUP2 PUSH1 0x3 PUSH1 0x0 PUSH2 0x100 EXP DUP2 SLOAD DUP2 PUSH20 0xFFFFFFFFFFFFFFFFFFFFFFFFFFFFFFFFFFFFFFFF MUL NOT AND SWAP1 DUP4 PUSH20 0xFFFFFFFFFFFFFFFFFFFFFFFFFFFFFFFFFFFFFFFF AND MUL OR SWAP1 SSTORE POP POP POP POP PUSH3 0x206 JUMP JUMPDEST PUSH1 0x0 DUP2 MLOAD SWAP1 POP PUSH3 0x121 DUP2 PUSH3 0x1D2 JUMP JUMPDEST SWAP3 SWAP2 POP POP JUMP JUMPDEST PUSH1 0x0 DUP2 MLOAD SWAP1 POP PUSH3 0x138 DUP2 PUSH3 0x1EC JUMP JUMPDEST SWAP3 SWAP2 POP POP JUMP JUMPDEST PUSH1 0x0 DUP1 PUSH1 0x0 PUSH1 0x60 DUP5 DUP7 SUB SLT ISZERO PUSH3 0x154 JUMPI PUSH1 0x0 DUP1 REVERT JUMPDEST PUSH1 0x0 PUSH3 0x164 DUP7 DUP3 DUP8 ADD PUSH3 0x110 JUMP JUMPDEST SWAP4 POP POP PUSH1 0x20 PUSH3 0x177 DUP7 DUP3 DUP8 ADD PUSH3 0x110 JUMP JUMPDEST SWAP3 POP POP PUSH1 0x40 PUSH3 0x18A DUP7 DUP3 DUP8 ADD PUSH3 0x127 JUMP JUMPDEST SWAP2 POP POP SWAP3 POP SWAP3 POP SWAP3 JUMP JUMPDEST PUSH1 0x0 PUSH3 0x1A1 DUP3 PUSH3 0x1A8 JUMP JUMPDEST SWAP1 POP SWAP2 SWAP1 POP JUMP JUMPDEST PUSH1 0x0 PUSH20 0xFFFFFFFFFFFFFFFFFFFFFFFFFFFFFFFFFFFFFFFF DUP3 AND SWAP1 POP SWAP2 SWAP1 POP JUMP JUMPDEST PUSH1 0x0 DUP2 SWAP1 POP SWAP2 SWAP1 POP JUMP JUMPDEST PUSH3 0x1DD DUP2 PUSH3 0x194 JUMP JUMPDEST DUP2 EQ PUSH3 0x1E9 JUMPI PUSH1 0x0 DUP1 REVERT JUMPDEST POP JUMP JUMPDEST PUSH3 0x1F7 DUP2 PUSH3 0x1C8 JUMP JUMPDEST DUP2 EQ PUSH3 0x203 JUMPI PUSH1 0x0 DUP1 REVERT JUMPDEST POP JUMP JUMPDEST PUSH2 0x2EB5 DUP1 PUSH3 0x216 PUSH1 0x0 CODECOPY PUSH1 0x0 RETURN INVALID PUSH1 0x80 PUSH1 0x40 MSTORE CALLVALUE DUP1 ISZERO PUSH2 0x10 JUMPI PUSH1 0x0 DUP1 REVERT JUMPDEST POP PUSH1 0x4 CALLDATASIZE LT PUSH2 0x12C JUMPI PUSH1 0x0 CALLDATALOAD PUSH1 0xE0 SHR DUP1 PUSH4 0x8DA5CB5B GT PUSH2 0xAD JUMPI DUP1 PUSH4 0xDC8D0A40 GT PUSH2 0x71 JUMPI DUP1 PUSH4 0xDC8D0A40 EQ PUSH2 0x359 JUMPI DUP1 PUSH4 0xE067AE4C EQ PUSH2 0x375 JUMPI DUP1 PUSH4 0xEB5439DC EQ PUSH2 0x391 JUMPI DUP1 PUSH4 0xF2FDE38B EQ PUSH2 0x3AD JUMPI DUP1 PUSH4 0xF9A76FDE EQ PUSH2 0x3C9 JUMPI PUSH2 0x12C JUMP JUMPDEST DUP1 PUSH4 0x8DA5CB5B EQ PUSH2 0x2B5 JUMPI DUP1 PUSH4 0x95747678 EQ PUSH2 0x2D3 JUMPI DUP1 PUSH4 0xB5C6DA27 EQ PUSH2 0x2F1 JUMPI DUP1 PUSH4 0xBF5D0A00 EQ PUSH2 0x30D JUMPI DUP1 PUSH4 0xD2B210A1 EQ PUSH2 0x329 JUMPI PUSH2 0x12C JUMP JUMPDEST DUP1 PUSH4 0x42CBB15C GT PUSH2 0xF4 JUMPI DUP1 PUSH4 0x42CBB15C EQ PUSH2 0x1FD JUMPI DUP1 PUSH4 0x46F03DD5 EQ PUSH2 0x21B JUMPI DUP1 PUSH4 0x69517310 EQ PUSH2 0x237 JUMPI DUP1 PUSH4 0x74556CA9 EQ PUSH2 0x269 JUMPI DUP1 PUSH4 0x812ADBD8 EQ PUSH2 0x285 JUMPI PUSH2 0x12C JUMP JUMPDEST DUP1 PUSH4 0x59DBB30 EQ PUSH2 0x131 JUMPI DUP1 PUSH4 0x1079A326 EQ PUSH2 0x161 JUMPI DUP1 PUSH4 0x16ECC0E6 EQ PUSH2 0x17F JUMPI DUP1 PUSH4 0x1D285F0A EQ PUSH2 0x1AF JUMPI DUP1 PUSH4 0x2D36DE7A EQ PUSH2 0x1DF JUMPI JUMPDEST PUSH1 0x0 DUP1 REVERT JUMPDEST PUSH2 0x14B PUSH1 0x4 DUP1 CALLDATASIZE SUB DUP2 ADD SWAP1 PUSH2 0x146 SWAP2 SWAP1 PUSH2 0x2121 JUMP JUMPDEST PUSH2 0x3FA JUMP JUMPDEST PUSH1 0x40 MLOAD PUSH2 0x158 SWAP2 SWAP1 PUSH2 0x26D9 JUMP JUMPDEST PUSH1 0x40 MLOAD DUP1 SWAP2 SUB SWAP1 RETURN JUMPDEST PUSH2 0x169 PUSH2 0x71B JUMP JUMPDEST PUSH1 0x40 MLOAD PUSH2 0x176 SWAP2 SWAP1 PUSH2 0x2574 JUMP JUMPDEST PUSH1 0x40 MLOAD DUP1 SWAP2 SUB SWAP1 RETURN JUMPDEST PUSH2 0x199 PUSH1 0x4 DUP1 CALLDATASIZE SUB DUP2 ADD SWAP1 PUSH2 0x194 SWAP2 SWAP1 PUSH2 0x1F4A JUMP JUMPDEST PUSH2 0x741 JUMP JUMPDEST PUSH1 0x40 MLOAD PUSH2 0x1A6 SWAP2 SWAP1 PUSH2 0x26D9 JUMP JUMPDEST PUSH1 0x40 MLOAD DUP1 SWAP2 SUB SWAP1 RETURN JUMPDEST PUSH2 0x1C9 PUSH1 0x4 DUP1 CALLDATASIZE SUB DUP2 ADD SWAP1 PUSH2 0x1C4 SWAP2 SWAP1 PUSH2 0x1ECA JUMP JUMPDEST PUSH2 0x8CC JUMP JUMPDEST PUSH1 0x40 MLOAD PUSH2 0x1D6 SWAP2 SWAP1 PUSH2 0x26D9 JUMP JUMPDEST PUSH1 0x40 MLOAD DUP1 SWAP2 SUB SWAP1 RETURN JUMPDEST PUSH2 0x1E7 PUSH2 0x966 JUMP JUMPDEST PUSH1 0x40 MLOAD PUSH2 0x1F4 SWAP2 SWAP1 PUSH2 0x287D JUMP JUMPDEST PUSH1 0x40 MLOAD DUP1 SWAP2 SUB SWAP1 RETURN JUMPDEST PUSH2 0x205 PUSH2 0x96C JUMP JUMPDEST PUSH1 0x40 MLOAD PUSH2 0x212 SWAP2 SWAP1 PUSH2 0x2898 JUMP JUMPDEST PUSH1 0x40 MLOAD DUP1 SWAP2 SUB SWAP1 RETURN JUMPDEST PUSH2 0x235 PUSH1 0x4 DUP1 CALLDATASIZE SUB DUP2 ADD SWAP1 PUSH2 0x230 SWAP2 SWAP1 PUSH2 0x1DC2 JUMP JUMPDEST PUSH2 0x974 JUMP JUMPDEST STOP JUMPDEST PUSH2 0x251 PUSH1 0x4 DUP1 CALLDATASIZE SUB DUP2 ADD SWAP1 PUSH2 0x24C SWAP2 SWAP1 PUSH2 0x1D34 JUMP JUMPDEST PUSH2 0xABC JUMP JUMPDEST PUSH1 0x40 MLOAD PUSH2 0x260 SWAP4 SWAP3 SWAP2 SWAP1 PUSH2 0x2679 JUMP JUMPDEST PUSH1 0x40 MLOAD DUP1 SWAP2 SUB SWAP1 RETURN JUMPDEST PUSH2 0x283 PUSH1 0x4 DUP1 CALLDATASIZE SUB DUP2 ADD SWAP1 PUSH2 0x27E SWAP2 SWAP1 PUSH2 0x2005 JUMP JUMPDEST PUSH2 0xD17 JUMP JUMPDEST STOP JUMPDEST PUSH2 0x29F PUSH1 0x4 DUP1 CALLDATASIZE SUB DUP2 ADD SWAP1 PUSH2 0x29A SWAP2 SWAP1 PUSH2 0x2207 JUMP JUMPDEST PUSH2 0xE5E JUMP JUMPDEST PUSH1 0x40 MLOAD PUSH2 0x2AC SWAP2 SWAP1 PUSH2 0x26D9 JUMP JUMPDEST PUSH1 0x40 MLOAD DUP1 SWAP2 SUB SWAP1 RETURN JUMPDEST PUSH2 0x2BD PUSH2 0xE89 JUMP JUMPDEST PUSH1 0x40 MLOAD PUSH2 0x2CA SWAP2 SWAP1 PUSH2 0x2574 JUMP JUMPDEST PUSH1 0x40 MLOAD DUP1 SWAP2 SUB SWAP1 RETURN JUMPDEST PUSH2 0x2DB PUSH2 0xEAD JUMP JUMPDEST PUSH1 0x40 MLOAD PUSH2 0x2E8 SWAP2 SWAP1 PUSH2 0x2574 JUMP JUMPDEST PUSH1 0x40 MLOAD DUP1 SWAP2 SUB SWAP1 RETURN JUMPDEST PUSH2 0x30B PUSH1 0x4 DUP1 CALLDATASIZE SUB DUP2 ADD SWAP1 PUSH2 0x306 SWAP2 SWAP1 PUSH2 0x21B5 JUMP JUMPDEST PUSH2 0xED3 JUMP JUMPDEST STOP JUMPDEST PUSH2 0x327 PUSH1 0x4 DUP1 CALLDATASIZE SUB DUP2 ADD SWAP1 PUSH2 0x322 SWAP2 SWAP1 PUSH2 0x1FC9 JUMP JUMPDEST PUSH2 0xF35 JUMP JUMPDEST STOP JUMPDEST PUSH2 0x343 PUSH1 0x4 DUP1 CALLDATASIZE SUB DUP2 ADD SWAP1 PUSH2 0x33E SWAP2 SWAP1 PUSH2 0x2243 JUMP JUMPDEST PUSH2 0xFD0 JUMP JUMPDEST PUSH1 0x40 MLOAD PUSH2 0x350 SWAP2 SWAP1 PUSH2 0x26F4 JUMP JUMPDEST PUSH1 0x40 MLOAD DUP1 SWAP2 SUB SWAP1 RETURN JUMPDEST PUSH2 0x373 PUSH1 0x4 DUP1 CALLDATASIZE SUB DUP2 ADD SWAP1 PUSH2 0x36E SWAP2 SWAP1 PUSH2 0x1D34 JUMP JUMPDEST PUSH2 0xFE1 JUMP JUMPDEST STOP JUMPDEST PUSH2 0x38F PUSH1 0x4 DUP1 CALLDATASIZE SUB DUP2 ADD SWAP1 PUSH2 0x38A SWAP2 SWAP1 PUSH2 0x1D34 JUMP JUMPDEST PUSH2 0x1079 JUMP JUMPDEST STOP JUMPDEST PUSH2 0x3AB PUSH1 0x4 DUP1 CALLDATASIZE SUB DUP2 ADD SWAP1 PUSH2 0x3A6 SWAP2 SWAP1 PUSH2 0x1D86 JUMP JUMPDEST PUSH2 0x1111 JUMP JUMPDEST STOP JUMPDEST PUSH2 0x3C7 PUSH1 0x4 DUP1 CALLDATASIZE SUB DUP2 ADD SWAP1 PUSH2 0x3C2 SWAP2 SWAP1 PUSH2 0x1D34 JUMP JUMPDEST PUSH2 0x11EF JUMP JUMPDEST STOP JUMPDEST PUSH2 0x3E3 PUSH1 0x4 DUP1 CALLDATASIZE SUB DUP2 ADD SWAP1 PUSH2 0x3DE SWAP2 SWAP1 PUSH2 0x1D34 JUMP JUMPDEST PUSH2 0x133E JUMP JUMPDEST PUSH1 0x40 MLOAD PUSH2 0x3F1 SWAP3 SWAP2 SWAP1 PUSH2 0x270F JUMP JUMPDEST PUSH1 0x40 MLOAD DUP1 SWAP2 SUB SWAP1 RETURN JUMPDEST PUSH1 0x0 DUP1 PUSH1 0x0 DUP1 SHL SWAP1 POP PUSH1 0x0 JUMPDEST PUSH1 0x2 DUP6 DUP6 SWAP1 POP PUSH2 0x416 SWAP2 SWAP1 PUSH2 0x296A JUMP JUMPDEST DUP2 PUSH4 0xFFFFFFFF AND LT ISZERO PUSH2 0x70C JUMPI PUSH1 0x2 DUP6 DUP6 PUSH1 0x2 DUP5 PUSH2 0x434 SWAP2 SWAP1 PUSH2 0x29F5 JUMP JUMPDEST PUSH4 0xFFFFFFFF AND DUP2 DUP2 LT PUSH2 0x470 JUMPI PUSH32 0x4E487B7100000000000000000000000000000000000000000000000000000000 PUSH1 0x0 MSTORE PUSH1 0x32 PUSH1 0x4 MSTORE PUSH1 0x24 PUSH1 0x0 REVERT JUMPDEST SWAP1 POP PUSH1 0x20 MUL ADD CALLDATALOAD DUP7 DUP7 PUSH1 0x1 PUSH1 0x2 DUP7 PUSH2 0x488 SWAP2 SWAP1 PUSH2 0x29F5 JUMP JUMPDEST PUSH2 0x492 SWAP2 SWAP1 PUSH2 0x2930 JUMP JUMPDEST PUSH4 0xFFFFFFFF AND DUP2 DUP2 LT PUSH2 0x4CE JUMPI PUSH32 0x4E487B7100000000000000000000000000000000000000000000000000000000 PUSH1 0x0 MSTORE PUSH1 0x32 PUSH1 0x4 MSTORE PUSH1 0x24 PUSH1 0x0 REVERT JUMPDEST SWAP1 POP PUSH1 0x20 MUL ADD CALLDATALOAD PUSH1 0x40 MLOAD PUSH1 0x20 ADD PUSH2 0x4E6 SWAP3 SWAP2 SWAP1 PUSH2 0x24B1 JUMP JUMPDEST PUSH1 0x40 MLOAD PUSH1 0x20 DUP2 DUP4 SUB SUB DUP2 MSTORE SWAP1 PUSH1 0x40 MSTORE PUSH1 0x40 MLOAD PUSH2 0x502 SWAP2 SWAP1 PUSH2 0x255D JUMP JUMPDEST PUSH1 0x20 PUSH1 0x40 MLOAD DUP1 DUP4 SUB DUP2 DUP6 GAS STATICCALL ISZERO DUP1 ISZERO PUSH2 0x51F JUMPI RETURNDATASIZE PUSH1 0x0 DUP1 RETURNDATACOPY RETURNDATASIZE PUSH1 0x0 REVERT JUMPDEST POP POP POP PUSH1 0x40 MLOAD RETURNDATASIZE PUSH1 0x1F NOT PUSH1 0x1F DUP3 ADD AND DUP3 ADD DUP1 PUSH1 0x40 MSTORE POP DUP2 ADD SWAP1 PUSH2 0x542 SWAP2 SWAP1 PUSH2 0x20F8 JUMP JUMPDEST SWAP2 POP PUSH1 0x3 PUSH1 0x2 DUP3 PUSH2 0x553 SWAP2 SWAP1 PUSH2 0x29F5 JUMP JUMPDEST PUSH2 0x55D SWAP2 SWAP1 PUSH2 0x2930 JUMP JUMPDEST PUSH4 0xFFFFFFFF AND PUSH1 0x1 DUP7 DUP7 SWAP1 POP PUSH2 0x573 SWAP2 SWAP1 PUSH2 0x2A33 JUMP JUMPDEST GT ISZERO PUSH2 0x655 JUMPI DUP2 DUP6 DUP6 PUSH1 0x2 DUP1 DUP6 PUSH2 0x58A SWAP2 SWAP1 PUSH2 0x29F5 JUMP JUMPDEST PUSH2 0x594 SWAP2 SWAP1 PUSH2 0x2930 JUMP JUMPDEST PUSH4 0xFFFFFFFF AND DUP2 DUP2 LT PUSH2 0x5D0 JUMPI PUSH32 0x4E487B7100000000000000000000000000000000000000000000000000000000 PUSH1 0x0 MSTORE PUSH1 0x32 PUSH1 0x4 MSTORE PUSH1 0x24 PUSH1 0x0 REVERT JUMPDEST SWAP1 POP PUSH1 0x20 MUL ADD CALLDATALOAD EQ DUP1 ISZERO PUSH2 0x640 JUMPI POP DUP2 DUP6 DUP6 PUSH1 0x3 PUSH1 0x2 DUP6 PUSH2 0x5F1 SWAP2 SWAP1 PUSH2 0x29F5 JUMP JUMPDEST PUSH2 0x5FB SWAP2 SWAP1 PUSH2 0x2930 JUMP JUMPDEST PUSH4 0xFFFFFFFF AND DUP2 DUP2 LT PUSH2 0x637 JUMPI PUSH32 0x4E487B7100000000000000000000000000000000000000000000000000000000 PUSH1 0x0 MSTORE PUSH1 0x32 PUSH1 0x4 MSTORE PUSH1 0x24 PUSH1 0x0 REVERT JUMPDEST SWAP1 POP PUSH1 0x20 MUL ADD CALLDATALOAD EQ JUMPDEST ISZERO PUSH2 0x650 JUMPI PUSH1 0x0 SWAP3 POP POP POP PUSH2 0x714 JUMP JUMPDEST PUSH2 0x6F9 JUMP JUMPDEST PUSH1 0x2 DUP1 DUP3 PUSH2 0x663 SWAP2 SWAP1 PUSH2 0x29F5 JUMP JUMPDEST PUSH2 0x66D SWAP2 SWAP1 PUSH2 0x2930 JUMP JUMPDEST PUSH4 0xFFFFFFFF AND PUSH1 0x1 DUP7 DUP7 SWAP1 POP PUSH2 0x683 SWAP2 SWAP1 PUSH2 0x2A33 JUMP JUMPDEST GT ISZERO PUSH2 0x6F8 JUMPI DUP2 DUP6 DUP6 PUSH1 0x2 DUP1 DUP6 PUSH2 0x69A SWAP2 SWAP1 PUSH2 0x29F5 JUMP JUMPDEST PUSH2 0x6A4 SWAP2 SWAP1 PUSH2 0x2930 JUMP JUMPDEST PUSH4 0xFFFFFFFF AND DUP2 DUP2 LT PUSH2 0x6E0 JUMPI PUSH32 0x4E487B7100000000000000000000000000000000000000000000000000000000 PUSH1 0x0 MSTORE PUSH1 0x32 PUSH1 0x4 MSTORE PUSH1 0x24 PUSH1 0x0 REVERT JUMPDEST SWAP1 POP PUSH1 0x20 MUL ADD CALLDATALOAD EQ PUSH2 0x6F7 JUMPI PUSH1 0x0 SWAP3 POP POP POP PUSH2 0x714 JUMP JUMPDEST JUMPDEST JUMPDEST DUP1 DUP1 PUSH2 0x704 SWAP1 PUSH2 0x2B5D JUMP JUMPDEST SWAP2 POP POP PUSH2 0x406 JUMP JUMPDEST POP DUP1 DUP6 EQ SWAP2 POP POP JUMPDEST SWAP4 SWAP3 POP POP POP JUMP JUMPDEST PUSH1 0x2 PUSH1 0x0 SWAP1 SLOAD SWAP1 PUSH2 0x100 EXP SWAP1 DIV PUSH20 0xFFFFFFFFFFFFFFFFFFFFFFFFFFFFFFFFFFFFFFFF AND DUP2 JUMP JUMPDEST PUSH1 0x0 DUP1 PUSH1 0x0 DUP1 PUSH1 0x41 DUP6 MLOAD EQ ISZERO PUSH2 0x76E JUMPI PUSH1 0x20 DUP6 ADD MLOAD SWAP3 POP PUSH1 0x40 DUP6 ADD MLOAD SWAP2 POP PUSH1 0x60 DUP6 ADD MLOAD PUSH1 0x0 BYTE SWAP1 POP PUSH2 0x7F4 JUMP JUMPDEST PUSH1 0x40 DUP6 MLOAD EQ ISZERO PUSH2 0x7B8 JUMPI PUSH1 0x40 DUP6 ADD MLOAD PUSH1 0x20 DUP7 ADD MLOAD SWAP4 POP PUSH32 0x7FFFFFFFFFFFFFFFFFFFFFFFFFFFFFFFFFFFFFFFFFFFFFFFFFFFFFFFFFFFFFFF DUP2 AND SWAP3 POP PUSH1 0x1B DUP2 PUSH1 0xFF SHR ADD SWAP2 POP POP PUSH2 0x7F3 JUMP JUMPDEST PUSH1 0x40 MLOAD PUSH32 0x8C379A000000000000000000000000000000000000000000000000000000000 DUP2 MSTORE PUSH1 0x4 ADD PUSH2 0x7EA SWAP1 PUSH2 0x277D JUMP JUMPDEST PUSH1 0x40 MLOAD DUP1 SWAP2 SUB SWAP1 REVERT JUMPDEST JUMPDEST PUSH1 0x1 PUSH1 0x2 DUP8 PUSH1 0x40 MLOAD PUSH2 0x806 SWAP2 SWAP1 PUSH2 0x255D JUMP JUMPDEST PUSH1 0x20 PUSH1 0x40 MLOAD DUP1 DUP4 SUB DUP2 DUP6 GAS STATICCALL ISZERO DUP1 ISZERO PUSH2 0x823 JUMPI RETURNDATASIZE PUSH1 0x0 DUP1 RETURNDATACOPY RETURNDATASIZE PUSH1 0x0 REVERT JUMPDEST POP POP POP PUSH1 0x40 MLOAD RETURNDATASIZE PUSH1 0x1F NOT PUSH1 0x1F DUP3 ADD AND DUP3 ADD DUP1 PUSH1 0x40 MSTORE POP DUP2 ADD SWAP1 PUSH2 0x846 SWAP2 SWAP1 PUSH2 0x20F8 JUMP JUMPDEST DUP3 DUP6 DUP6 PUSH1 0x40 MLOAD PUSH1 0x0 DUP2 MSTORE PUSH1 0x20 ADD PUSH1 0x40 MSTORE PUSH1 0x40 MLOAD PUSH2 0x866 SWAP5 SWAP4 SWAP3 SWAP2 SWAP1 PUSH2 0x2738 JUMP JUMPDEST PUSH1 0x20 PUSH1 0x40 MLOAD PUSH1 0x20 DUP2 SUB SWAP1 DUP1 DUP5 SUB SWAP1 DUP6 GAS STATICCALL ISZERO DUP1 ISZERO PUSH2 0x888 JUMPI RETURNDATASIZE PUSH1 0x0 DUP1 RETURNDATACOPY RETURNDATASIZE PUSH1 0x0 REVERT JUMPDEST POP POP POP PUSH1 0x20 PUSH1 0x40 MLOAD SUB MLOAD PUSH20 0xFFFFFFFFFFFFFFFFFFFFFFFFFFFFFFFFFFFFFFFF AND DUP8 PUSH20 0xFFFFFFFFFFFFFFFFFFFFFFFFFFFFFFFFFFFFFFFF AND EQ SWAP4 POP POP POP POP SWAP4 SWAP3 POP POP POP JUMP JUMPDEST PUSH1 0x0 DUP1 PUSH1 0x2 DUP7 DUP7 DUP10 DUP8 PUSH4 0xFFFFFFFF AND BLOCKHASH PUSH1 0x40 MLOAD PUSH1 0x20 ADD PUSH2 0x8EF SWAP5 SWAP4 SWAP3 SWAP2 SWAP1 PUSH2 0x2522 JUMP JUMPDEST PUSH1 0x40 MLOAD PUSH1 0x20 DUP2 DUP4 SUB SUB DUP2 MSTORE SWAP1 PUSH1 0x40 MSTORE PUSH1 0x40 MLOAD PUSH2 0x90B SWAP2 SWAP1 PUSH2 0x255D JUMP JUMPDEST PUSH1 0x20 PUSH1 0x40 MLOAD DUP1 DUP4 SUB DUP2 DUP6 GAS STATICCALL ISZERO DUP1 ISZERO PUSH2 0x928 JUMPI RETURNDATASIZE PUSH1 0x0 DUP1 RETURNDATACOPY RETURNDATASIZE PUSH1 0x0 REVERT JUMPDEST POP POP POP PUSH1 0x40 MLOAD RETURNDATASIZE PUSH1 0x1F NOT PUSH1 0x1F DUP3 ADD AND DUP3 ADD DUP1 PUSH1 0x40 MSTORE POP DUP2 ADD SWAP1 PUSH2 0x94B SWAP2 SWAP1 PUSH2 0x20F8 JUMP JUMPDEST SWAP1 POP PUSH2 0x95A DUP2 PUSH1 0x0 SHR DUP5 PUSH2 0xE5E JUMP JUMPDEST SWAP2 POP POP SWAP6 SWAP5 POP POP POP POP POP JUMP JUMPDEST PUSH1 0x1 SLOAD DUP2 JUMP JUMPDEST PUSH1 0x0 NUMBER SWAP1 POP SWAP1 JUMP JUMPDEST PUSH1 0x0 PUSH1 0x40 MLOAD DUP1 PUSH1 0x40 ADD PUSH1 0x40 MSTORE DUP1 DUP14 PUSH20 0xFFFFFFFFFFFFFFFFFFFFFFFFFFFFFFFFFFFFFFFF AND PUSH20 0xFFFFFFFFFFFFFFFFFFFFFFFFFFFFFFFFFFFFFFFF AND DUP2 MSTORE PUSH1 0x20 ADD DUP13 PUSH20 0xFFFFFFFFFFFFFFFFFFFFFFFFFFFFFFFFFFFFFFFF AND PUSH20 0xFFFFFFFFFFFFFFFFFFFFFFFFFFFFFFFFFFFFFFFF AND DUP2 MSTORE POP SWAP1 POP PUSH2 0xA5F DUP12 DUP11 DUP11 PUSH8 0xFFFFFFFFFFFFFFFF AND PUSH1 0x40 MLOAD PUSH1 0x20 ADD PUSH2 0xA06 SWAP3 SWAP2 SWAP1 PUSH2 0x24DD JUMP JUMPDEST PUSH1 0x40 MLOAD PUSH1 0x20 DUP2 DUP4 SUB SUB DUP2 MSTORE SWAP1 PUSH1 0x40 MSTORE DUP10 DUP10 DUP1 DUP1 PUSH1 0x1F ADD PUSH1 0x20 DUP1 SWAP2 DIV MUL PUSH1 0x20 ADD PUSH1 0x40 MLOAD SWAP1 DUP2 ADD PUSH1 0x40 MSTORE DUP1 SWAP4 SWAP3 SWAP2 SWAP1 DUP2 DUP2 MSTORE PUSH1 0x20 ADD DUP4 DUP4 DUP1 DUP3 DUP5 CALLDATACOPY PUSH1 0x0 DUP2 DUP5 ADD MSTORE PUSH1 0x1F NOT PUSH1 0x1F DUP3 ADD AND SWAP1 POP DUP1 DUP4 ADD SWAP3 POP POP POP POP POP POP POP PUSH2 0x741 JUMP JUMPDEST PUSH2 0xA9E JUMPI PUSH1 0x40 MLOAD PUSH32 0x8C379A000000000000000000000000000000000000000000000000000000000 DUP2 MSTORE PUSH1 0x4 ADD PUSH2 0xA95 SWAP1 PUSH2 0x285D JUMP JUMPDEST PUSH1 0x40 MLOAD DUP1 SWAP2 SUB SWAP1 REVERT JUMPDEST PUSH2 0xAAE DUP2 DUP12 DUP12 DUP12 DUP10 DUP10 DUP10 DUP10 PUSH2 0x13FA JUMP JUMPDEST POP POP POP POP POP POP POP POP POP POP POP POP JUMP JUMPDEST PUSH1 0x0 DUP1 PUSH1 0x0 DUP1 PUSH1 0x3 PUSH1 0x0 SWAP1 SLOAD SWAP1 PUSH2 0x100 EXP SWAP1 DIV PUSH20 0xFFFFFFFFFFFFFFFFFFFFFFFFFFFFFFFFFFFFFFFF AND SWAP1 POP PUSH1 0x0 PUSH1 0x2 PUSH1 0x0 SWAP1 SLOAD SWAP1 PUSH2 0x100 EXP SWAP1 DIV PUSH20 0xFFFFFFFFFFFFFFFFFFFFFFFFFFFFFFFFFFFFFFFF AND SWAP1 POP PUSH1 0x0 DUP2 PUSH20 0xFFFFFFFFFFFFFFFFFFFFFFFFFFFFFFFFFFFFFFFF AND PUSH4 0xB8190977 DUP9 PUSH1 0x40 MLOAD DUP3 PUSH4 0xFFFFFFFF AND PUSH1 0xE0 SHL DUP2 MSTORE PUSH1 0x4 ADD PUSH2 0xB49 SWAP2 SWAP1 PUSH2 0x2574 JUMP JUMPDEST PUSH1 0x20 PUSH1 0x40 MLOAD DUP1 DUP4 SUB DUP2 DUP7 DUP1 EXTCODESIZE ISZERO DUP1 ISZERO PUSH2 0xB61 JUMPI PUSH1 0x0 DUP1 REVERT JUMPDEST POP GAS STATICCALL ISZERO DUP1 ISZERO PUSH2 0xB75 JUMPI RETURNDATASIZE PUSH1 0x0 DUP1 RETURNDATACOPY RETURNDATASIZE PUSH1 0x0 REVERT JUMPDEST POP POP POP POP PUSH1 0x40 MLOAD RETURNDATASIZE PUSH1 0x1F NOT PUSH1 0x1F DUP3 ADD AND DUP3 ADD DUP1 PUSH1 0x40 MSTORE POP DUP2 ADD SWAP1 PUSH2 0xB99 SWAP2 SWAP1 PUSH2 0x1D5D JUMP JUMPDEST SWAP1 POP PUSH1 0x0 DUP4 PUSH20 0xFFFFFFFFFFFFFFFFFFFFFFFFFFFFFFFFFFFFFFFF AND PUSH4 0xD4FAC45D DUP4 DUP11 PUSH1 0x40 MLOAD DUP4 PUSH4 0xFFFFFFFF AND PUSH1 0xE0 SHL DUP2 MSTORE PUSH1 0x4 ADD PUSH2 0xBD8 SWAP3 SWAP2 SWAP1 PUSH2 0x258F JUMP JUMPDEST PUSH1 0x20 PUSH1 0x40 MLOAD DUP1 DUP4 SUB DUP2 DUP7 DUP1 EXTCODESIZE ISZERO DUP1 ISZERO PUSH2 0xBF0 JUMPI PUSH1 0x0 DUP1 REVERT JUMPDEST POP GAS STATICCALL ISZERO DUP1 ISZERO PUSH2 0xC04 JUMPI RETURNDATASIZE PUSH1 0x0 DUP1 RETURNDATACOPY RETURNDATASIZE PUSH1 0x0 REVERT JUMPDEST POP POP POP POP PUSH1 0x40 MLOAD RETURNDATASIZE PUSH1 0x1F NOT PUSH1 0x1F DUP3 ADD AND DUP3 ADD DUP1 PUSH1 0x40 MSTORE POP DUP2 ADD SWAP1 PUSH2 0xC28 SWAP2 SWAP1 PUSH2 0x21DE JUMP JUMPDEST SWAP1 POP PUSH1 0x0 PUSH3 0x201480 DUP3 PUSH2 0xC3B SWAP2 SWAP1 PUSH2 0x296A JUMP JUMPDEST SWAP1 POP PUSH1 0x0 DUP5 PUSH20 0xFFFFFFFFFFFFFFFFFFFFFFFFFFFFFFFFFFFFFFFF AND PUSH4 0x84C706B8 DUP12 PUSH1 0x40 MLOAD DUP3 PUSH4 0xFFFFFFFF AND PUSH1 0xE0 SHL DUP2 MSTORE PUSH1 0x4 ADD PUSH2 0xC78 SWAP2 SWAP1 PUSH2 0x2574 JUMP JUMPDEST PUSH1 0x20 PUSH1 0x40 MLOAD DUP1 DUP4 SUB DUP2 DUP7 DUP1 EXTCODESIZE ISZERO DUP1 ISZERO PUSH2 0xC90 JUMPI PUSH1 0x0 DUP1 REVERT JUMPDEST POP GAS STATICCALL ISZERO DUP1 ISZERO PUSH2 0xCA4 JUMPI RETURNDATASIZE PUSH1 0x0 DUP1 RETURNDATACOPY RETURNDATASIZE PUSH1 0x0 REVERT JUMPDEST POP POP POP POP PUSH1 0x40 MLOAD RETURNDATASIZE PUSH1 0x1F NOT PUSH1 0x1F DUP3 ADD AND DUP3 ADD DUP1 PUSH1 0x40 MSTORE POP DUP2 ADD SWAP1 PUSH2 0xCC8 SWAP2 SWAP1 PUSH2 0x226C JUMP JUMPDEST SWAP1 POP PUSH1 0x0 DUP2 PUSH4 0xFFFFFFFF AND NUMBER PUSH2 0xCDE SWAP2 SWAP1 PUSH2 0x2A33 JUMP JUMPDEST SWAP1 POP PUSH1 0x0 DUP4 DUP3 PUSH4 0xFFFFFFFF AND PUSH2 0xCF4 SWAP2 SWAP1 PUSH2 0x299B JUMP JUMPDEST SWAP1 POP DUP6 DUP2 DUP4 DUP1 PUSH4 0xFFFFFFFF AND SWAP1 POP SWAP11 POP SWAP11 POP SWAP11 POP POP POP POP POP POP POP POP POP SWAP2 SWAP4 SWAP1 SWAP3 POP JUMP JUMPDEST PUSH1 0x0 PUSH1 0x40 MLOAD DUP1 PUSH1 0x40 ADD PUSH1 0x40 MSTORE DUP1 CALLER PUSH20 0xFFFFFFFFFFFFFFFFFFFFFFFFFFFFFFFFFFFFFFFF AND PUSH20 0xFFFFFFFFFFFFFFFFFFFFFFFFFFFFFFFFFFFFFFFF AND DUP2 MSTORE PUSH1 0x20 ADD DUP13 PUSH20 0xFFFFFFFFFFFFFFFFFFFFFFFFFFFFFFFFFFFFFFFF AND PUSH20 0xFFFFFFFFFFFFFFFFFFFFFFFFFFFFFFFFFFFFFFFF AND DUP2 MSTORE POP SWAP1 POP PUSH2 0xE02 DUP12 DUP11 DUP11 PUSH8 0xFFFFFFFFFFFFFFFF AND PUSH1 0x40 MLOAD PUSH1 0x20 ADD PUSH2 0xDA9 SWAP3 SWAP2 SWAP1 PUSH2 0x24DD JUMP JUMPDEST PUSH1 0x40 MLOAD PUSH1 0x20 DUP2 DUP4 SUB SUB DUP2 MSTORE SWAP1 PUSH1 0x40 MSTORE DUP10 DUP10 DUP1 DUP1 PUSH1 0x1F ADD PUSH1 0x20 DUP1 SWAP2 DIV MUL PUSH1 0x20 ADD PUSH1 0x40 MLOAD SWAP1 DUP2 ADD PUSH1 0x40 MSTORE DUP1 SWAP4 SWAP3 SWAP2 SWAP1 DUP2 DUP2 MSTORE PUSH1 0x20 ADD DUP4 DUP4 DUP1 DUP3 DUP5 CALLDATACOPY PUSH1 0x0 DUP2 DUP5 ADD MSTORE PUSH1 0x1F NOT PUSH1 0x1F DUP3 ADD AND SWAP1 POP DUP1 DUP4 ADD SWAP3 POP POP POP POP POP POP POP PUSH2 0x741 JUMP JUMPDEST PUSH2 0xE41 JUMPI PUSH1 0x40 MLOAD PUSH32 0x8C379A000000000000000000000000000000000000000000000000000000000 DUP2 MSTORE PUSH1 0x4 ADD PUSH2 0xE38 SWAP1 PUSH2 0x285D JUMP JUMPDEST PUSH1 0x40 MLOAD DUP1 SWAP2 SUB SWAP1 REVERT JUMPDEST PUSH2 0xE51 DUP2 DUP12 DUP12 DUP12 DUP10 DUP10 DUP10 DUP10 PUSH2 0x13FA JUMP JUMPDEST POP POP POP POP POP POP POP POP POP POP POP JUMP JUMPDEST PUSH1 0x0 DUP2 PUSH1 0x1 SLOAD DUP5 PUSH2 0xE6F SWAP2 SWAP1 PUSH2 0x2BC2 JUMP JUMPDEST LT ISZERO PUSH2 0xE7E JUMPI PUSH1 0x1 SWAP1 POP PUSH2 0xE83 JUMP JUMPDEST PUSH1 0x0 SWAP1 POP JUMPDEST SWAP3 SWAP2 POP POP JUMP JUMPDEST PUSH1 0x0 DUP1 SLOAD SWAP1 PUSH2 0x100 EXP SWAP1 DIV PUSH20 0xFFFFFFFFFFFFFFFFFFFFFFFFFFFFFFFFFFFFFFFF AND DUP2 JUMP JUMPDEST PUSH1 0x3 PUSH1 0x0 SWAP1 SLOAD SWAP1 PUSH2 0x100 EXP SWAP1 DIV PUSH20 0xFFFFFFFFFFFFFFFFFFFFFFFFFFFFFFFFFFFFFFFF AND DUP2 JUMP JUMPDEST PUSH1 0x0 DUP1 SLOAD SWAP1 PUSH2 0x100 EXP SWAP1 DIV PUSH20 0xFFFFFFFFFFFFFFFFFFFFFFFFFFFFFFFFFFFFFFFF AND PUSH20 0xFFFFFFFFFFFFFFFFFFFFFFFFFFFFFFFFFFFFFFFF AND CALLER PUSH20 0xFFFFFFFFFFFFFFFFFFFFFFFFFFFFFFFFFFFFFFFF AND EQ PUSH2 0xF2B JUMPI PUSH1 0x0 DUP1 REVERT JUMPDEST DUP1 PUSH1 0x1 DUP2 SWAP1 SSTORE POP POP JUMP JUMPDEST PUSH1 0x0 PUSH1 0x3 PUSH1 0x0 SWAP1 SLOAD SWAP1 PUSH2 0x100 EXP SWAP1 DIV PUSH20 0xFFFFFFFFFFFFFFFFFFFFFFFFFFFFFFFFFFFFFFFF AND SWAP1 POP DUP1 PUSH20 0xFFFFFFFFFFFFFFFFFFFFFFFFFFFFFFFFFFFFFFFF AND PUSH4 0x7673FA98 CALLER DUP6 DUP6 PUSH1 0x40 MLOAD DUP5 PUSH4 0xFFFFFFFF AND PUSH1 0xE0 SHL DUP2 MSTORE PUSH1 0x4 ADD PUSH2 0xF99 SWAP4 SWAP3 SWAP2 SWAP1 PUSH2 0x25FD JUMP JUMPDEST PUSH1 0x0 PUSH1 0x40 MLOAD DUP1 DUP4 SUB DUP2 PUSH1 0x0 DUP8 DUP1 EXTCODESIZE ISZERO DUP1 ISZERO PUSH2 0xFB3 JUMPI PUSH1 0x0 DUP1 REVERT JUMPDEST POP GAS CALL ISZERO DUP1 ISZERO PUSH2 0xFC7 JUMPI RETURNDATASIZE PUSH1 0x0 DUP1 RETURNDATACOPY RETURNDATASIZE PUSH1 0x0 REVERT JUMPDEST POP POP POP POP POP POP POP JUMP JUMPDEST PUSH1 0x0 DUP2 PUSH4 0xFFFFFFFF AND BLOCKHASH SWAP1 POP SWAP2 SWAP1 POP JUMP JUMPDEST PUSH1 0x0 PUSH1 0x3 PUSH1 0x0 SWAP1 SLOAD SWAP1 PUSH2 0x100 EXP SWAP1 DIV PUSH20 0xFFFFFFFFFFFFFFFFFFFFFFFFFFFFFFFFFFFFFFFF AND SWAP1 POP DUP1 PUSH20 0xFFFFFFFFFFFFFFFFFFFFFFFFFFFFFFFFFFFFFFFF AND PUSH4 0xE19AE7C3 CALLER DUP5 PUSH1 0x40 MLOAD DUP4 PUSH4 0xFFFFFFFF AND PUSH1 0xE0 SHL DUP2 MSTORE PUSH1 0x4 ADD PUSH2 0x1043 SWAP3 SWAP2 SWAP1 PUSH2 0x258F JUMP JUMPDEST PUSH1 0x0 PUSH1 0x40 MLOAD DUP1 DUP4 SUB DUP2 PUSH1 0x0 DUP8 DUP1 EXTCODESIZE ISZERO DUP1 ISZERO PUSH2 0x105D JUMPI PUSH1 0x0 DUP1 REVERT JUMPDEST POP GAS CALL ISZERO DUP1 ISZERO PUSH2 0x1071 JUMPI RETURNDATASIZE PUSH1 0x0 DUP1 RETURNDATACOPY RETURNDATASIZE PUSH1 0x0 REVERT JUMPDEST POP POP POP POP POP POP JUMP JUMPDEST PUSH1 0x0 PUSH1 0x2 PUSH1 0x0 SWAP1 SLOAD SWAP1 PUSH2 0x100 EXP SWAP1 DIV PUSH20 0xFFFFFFFFFFFFFFFFFFFFFFFFFFFFFFFFFFFFFFFF AND SWAP1 POP DUP1 PUSH20 0xFFFFFFFFFFFFFFFFFFFFFFFFFFFFFFFFFFFFFFFF AND PUSH4 0xEAC47636 CALLER DUP5 PUSH1 0x40 MLOAD DUP4 PUSH4 0xFFFFFFFF AND PUSH1 0xE0 SHL DUP2 MSTORE PUSH1 0x4 ADD PUSH2 0x10DB SWAP3 SWAP2 SWAP1 PUSH2 0x258F JUMP JUMPDEST PUSH1 0x0 PUSH1 0x40 MLOAD DUP1 DUP4 SUB DUP2 PUSH1 0x0 DUP8 DUP1 EXTCODESIZE ISZERO DUP1 ISZERO PUSH2 0x10F5 JUMPI PUSH1 0x0 DUP1 REVERT JUMPDEST POP GAS CALL ISZERO DUP1 ISZERO PUSH2 0x1109 JUMPI RETURNDATASIZE PUSH1 0x0 DUP1 RETURNDATACOPY RETURNDATASIZE PUSH1 0x0 REVERT JUMPDEST POP POP POP POP POP POP JUMP JUMPDEST PUSH1 0x0 DUP1 SLOAD SWAP1 PUSH2 0x100 EXP SWAP1 DIV PUSH20 0xFFFFFFFFFFFFFFFFFFFFFFFFFFFFFFFFFFFFFFFF AND PUSH20 0xFFFFFFFFFFFFFFFFFFFFFFFFFFFFFFFFFFFFFFFF AND CALLER PUSH20 0xFFFFFFFFFFFFFFFFFFFFFFFFFFFFFFFFFFFFFFFF AND EQ PUSH2 0x1169 JUMPI PUSH1 0x0 DUP1 REVERT JUMPDEST DUP2 PUSH1 0x2 PUSH1 0x0 PUSH2 0x100 EXP DUP2 SLOAD DUP2 PUSH20 0xFFFFFFFFFFFFFFFFFFFFFFFFFFFFFFFFFFFFFFFF MUL NOT AND SWAP1 DUP4 PUSH20 0xFFFFFFFFFFFFFFFFFFFFFFFFFFFFFFFFFFFFFFFF AND MUL OR SWAP1 SSTORE POP DUP1 PUSH1 0x3 PUSH1 0x0 PUSH2 0x100 EXP DUP2 SLOAD DUP2 PUSH20 0xFFFFFFFFFFFFFFFFFFFFFFFFFFFFFFFFFFFFFFFF MUL NOT AND SWAP1 DUP4 PUSH20 0xFFFFFFFFFFFFFFFFFFFFFFFFFFFFFFFFFFFFFFFF AND MUL OR SWAP1 SSTORE POP POP POP JUMP JUMPDEST PUSH1 0x0 DUP1 SLOAD SWAP1 PUSH2 0x100 EXP SWAP1 DIV PUSH20 0xFFFFFFFFFFFFFFFFFFFFFFFFFFFFFFFFFFFFFFFF AND PUSH20 0xFFFFFFFFFFFFFFFFFFFFFFFFFFFFFFFFFFFFFFFF AND CALLER PUSH20 0xFFFFFFFFFFFFFFFFFFFFFFFFFFFFFFFFFFFFFFFF AND EQ PUSH2 0x1247 JUMPI PUSH1 0x0 DUP1 REVERT JUMPDEST PUSH1 0x0 PUSH20 0xFFFFFFFFFFFFFFFFFFFFFFFFFFFFFFFFFFFFFFFF AND DUP2 PUSH20 0xFFFFFFFFFFFFFFFFFFFFFFFFFFFFFFFFFFFFFFFF AND EQ ISZERO PUSH2 0x1281 JUMPI PUSH1 0x0 DUP1 REVERT JUMPDEST DUP1 PUSH20 0xFFFFFFFFFFFFFFFFFFFFFFFFFFFFFFFFFFFFFFFF AND PUSH1 0x0 DUP1 SLOAD SWAP1 PUSH2 0x100 EXP SWAP1 DIV PUSH20 0xFFFFFFFFFFFFFFFFFFFFFFFFFFFFFFFFFFFFFFFF AND PUSH20 0xFFFFFFFFFFFFFFFFFFFFFFFFFFFFFFFFFFFFFFFF AND PUSH32 0x8BE0079C531659141344CD1FD0A4F28419497F9722A3DAAFE3B4186F6B6457E0 PUSH1 0x40 MLOAD PUSH1 0x40 MLOAD DUP1 SWAP2 SUB SWAP1 LOG3 DUP1 PUSH1 0x0 DUP1 PUSH2 0x100 EXP DUP2 SLOAD DUP2 PUSH20 0xFFFFFFFFFFFFFFFFFFFFFFFFFFFFFFFFFFFFFFFF MUL NOT AND SWAP1 DUP4 PUSH20 0xFFFFFFFFFFFFFFFFFFFFFFFFFFFFFFFFFFFFFFFF AND MUL OR SWAP1 SSTORE POP POP JUMP JUMPDEST PUSH1 0x0 DUP1 PUSH1 0x0 PUSH1 0x2 PUSH1 0x0 SWAP1 SLOAD SWAP1 PUSH2 0x100 EXP SWAP1 DIV PUSH20 0xFFFFFFFFFFFFFFFFFFFFFFFFFFFFFFFFFFFFFFFF AND SWAP1 POP DUP1 PUSH20 0xFFFFFFFFFFFFFFFFFFFFFFFFFFFFFFFFFFFFFFFF AND PUSH4 0xBCE6325A DUP6 PUSH1 0x40 MLOAD DUP3 PUSH4 0xFFFFFFFF AND PUSH1 0xE0 SHL DUP2 MSTORE PUSH1 0x4 ADD PUSH2 0x13A1 SWAP2 SWAP1 PUSH2 0x2574 JUMP JUMPDEST PUSH1 0x40 DUP1 MLOAD DUP1 DUP4 SUB DUP2 DUP7 DUP1 EXTCODESIZE ISZERO DUP1 ISZERO PUSH2 0x13B8 JUMPI PUSH1 0x0 DUP1 REVERT JUMPDEST POP GAS STATICCALL ISZERO DUP1 ISZERO PUSH2 0x13CC JUMPI RETURNDATASIZE PUSH1 0x0 DUP1 RETURNDATACOPY RETURNDATASIZE PUSH1 0x0 REVERT JUMPDEST POP POP POP POP PUSH1 0x40 MLOAD RETURNDATASIZE PUSH1 0x1F NOT PUSH1 0x1F DUP3 ADD AND DUP3 ADD DUP1 PUSH1 0x40 MSTORE POP DUP2 ADD SWAP1 PUSH2 0x13F0 SWAP2 SWAP1 PUSH2 0x2179 JUMP JUMPDEST SWAP3 POP SWAP3 POP POP SWAP2 POP SWAP2 JUMP JUMPDEST PUSH1 0x0 PUSH20 0xFFFFFFFFFFFFFFFFFFFFFFFFFFFFFFFFFFFFFFFF AND DUP9 PUSH1 0x0 PUSH1 0x2 DUP2 LT PUSH2 0x144C JUMPI PUSH32 0x4E487B7100000000000000000000000000000000000000000000000000000000 PUSH1 0x0 MSTORE PUSH1 0x32 PUSH1 0x4 MSTORE PUSH1 0x24 PUSH1 0x0 REVERT JUMPDEST PUSH1 0x20 MUL ADD MLOAD PUSH20 0xFFFFFFFFFFFFFFFFFFFFFFFFFFFFFFFFFFFFFFFF AND EQ ISZERO DUP1 ISZERO PUSH2 0x14E0 JUMPI POP PUSH1 0x0 PUSH20 0xFFFFFFFFFFFFFFFFFFFFFFFFFFFFFFFFFFFFFFFF AND DUP9 PUSH1 0x1 PUSH1 0x2 DUP2 LT PUSH2 0x14C2 JUMPI PUSH32 0x4E487B7100000000000000000000000000000000000000000000000000000000 PUSH1 0x0 MSTORE PUSH1 0x32 PUSH1 0x4 MSTORE PUSH1 0x24 PUSH1 0x0 REVERT JUMPDEST PUSH1 0x20 MUL ADD MLOAD PUSH20 0xFFFFFFFFFFFFFFFFFFFFFFFFFFFFFFFFFFFFFFFF AND EQ ISZERO JUMPDEST PUSH2 0x151F JUMPI PUSH1 0x40 MLOAD PUSH32 0x8C379A000000000000000000000000000000000000000000000000000000000 DUP2 MSTORE PUSH1 0x4 ADD PUSH2 0x1516 SWAP1 PUSH2 0x27BD JUMP JUMPDEST PUSH1 0x40 MLOAD DUP1 SWAP2 SUB SWAP1 REVERT JUMPDEST PUSH2 0x15A7 DUP9 PUSH1 0x1 PUSH1 0x2 DUP2 LT PUSH2 0x155C JUMPI PUSH32 0x4E487B7100000000000000000000000000000000000000000000000000000000 PUSH1 0x0 MSTORE PUSH1 0x32 PUSH1 0x4 MSTORE PUSH1 0x24 PUSH1 0x0 REVERT JUMPDEST PUSH1 0x20 MUL ADD MLOAD DUP10 PUSH1 0x0 PUSH1 0x2 DUP2 LT PUSH2 0x159B JUMPI PUSH32 0x4E487B7100000000000000000000000000000000000000000000000000000000 PUSH1 0x0 MSTORE PUSH1 0x32 PUSH1 0x4 MSTORE PUSH1 0x24 PUSH1 0x0 REVERT JUMPDEST PUSH1 0x20 MUL ADD MLOAD DUP9 DUP9 PUSH2 0x1927 JUMP JUMPDEST PUSH1 0x0 DUP1 PUSH1 0x0 DUP1 PUSH1 0x2 DUP9 DUP9 PUSH1 0x40 MLOAD PUSH2 0x15BF SWAP3 SWAP2 SWAP1 PUSH2 0x2509 JUMP JUMPDEST PUSH1 0x20 PUSH1 0x40 MLOAD DUP1 DUP4 SUB DUP2 DUP6 GAS STATICCALL ISZERO DUP1 ISZERO PUSH2 0x15DC JUMPI RETURNDATASIZE PUSH1 0x0 DUP1 RETURNDATACOPY RETURNDATASIZE PUSH1 0x0 REVERT JUMPDEST POP POP POP PUSH1 0x40 MLOAD RETURNDATASIZE PUSH1 0x1F NOT PUSH1 0x1F DUP3 ADD AND DUP3 ADD DUP1 PUSH1 0x40 MSTORE POP DUP2 ADD SWAP1 PUSH2 0x15FF SWAP2 SWAP1 PUSH2 0x20F8 JUMP JUMPDEST SWAP1 POP PUSH2 0x1648 DUP13 PUSH1 0x1 PUSH1 0x2 DUP2 LT PUSH2 0x163E JUMPI PUSH32 0x4E487B7100000000000000000000000000000000000000000000000000000000 PUSH1 0x0 MSTORE PUSH1 0x32 PUSH1 0x4 MSTORE PUSH1 0x24 PUSH1 0x0 REVERT JUMPDEST PUSH1 0x20 MUL ADD MLOAD PUSH2 0xABC JUMP JUMPDEST DUP1 SWAP5 POP DUP2 SWAP6 POP DUP3 SWAP7 POP POP POP POP PUSH1 0x4 SLOAD NUMBER PUSH2 0x1662 SWAP2 SWAP1 PUSH2 0x2A33 JUMP JUMPDEST DUP12 PUSH4 0xFFFFFFFF AND GT PUSH2 0x16A9 JUMPI PUSH1 0x40 MLOAD PUSH32 0x8C379A000000000000000000000000000000000000000000000000000000000 DUP2 MSTORE PUSH1 0x4 ADD PUSH2 0x16A0 SWAP1 PUSH2 0x27FD JUMP JUMPDEST PUSH1 0x40 MLOAD DUP1 SWAP2 SUB SWAP1 REVERT JUMPDEST PUSH2 0x16B4 DUP11 DUP8 DUP8 PUSH2 0x3FA JUMP JUMPDEST PUSH2 0x16F3 JUMPI PUSH1 0x40 MLOAD PUSH32 0x8C379A000000000000000000000000000000000000000000000000000000000 DUP2 MSTORE PUSH1 0x4 ADD PUSH2 0x16EA SWAP1 PUSH2 0x283D JUMP JUMPDEST PUSH1 0x40 MLOAD DUP1 SWAP2 SUB SWAP1 REVERT JUMPDEST PUSH2 0x173E DUP13 PUSH1 0x0 PUSH1 0x2 DUP2 LT PUSH2 0x1730 JUMPI PUSH32 0x4E487B7100000000000000000000000000000000000000000000000000000000 PUSH1 0x0 MSTORE PUSH1 0x32 PUSH1 0x4 MSTORE PUSH1 0x24 PUSH1 0x0 REVERT JUMPDEST PUSH1 0x20 MUL ADD MLOAD DUP10 DUP10 DUP15 DUP7 PUSH2 0x8CC JUMP JUMPDEST PUSH2 0x177D JUMPI PUSH1 0x40 MLOAD PUSH32 0x8C379A000000000000000000000000000000000000000000000000000000000 DUP2 MSTORE PUSH1 0x4 ADD PUSH2 0x1774 SWAP1 PUSH2 0x27DD JUMP JUMPDEST PUSH1 0x40 MLOAD DUP1 SWAP2 SUB SWAP1 REVERT JUMPDEST DUP6 DUP6 PUSH1 0x0 DUP2 DUP2 LT PUSH2 0x17B7 JUMPI PUSH32 0x4E487B7100000000000000000000000000000000000000000000000000000000 PUSH1 0x0 MSTORE PUSH1 0x32 PUSH1 0x4 MSTORE PUSH1 0x24 PUSH1 0x0 REVERT JUMPDEST SWAP1 POP PUSH1 0x20 MUL ADD CALLDATALOAD DUP2 EQ DUP1 PUSH2 0x180A JUMPI POP DUP6 DUP6 PUSH1 0x1 DUP2 DUP2 LT PUSH2 0x1800 JUMPI PUSH32 0x4E487B7100000000000000000000000000000000000000000000000000000000 PUSH1 0x0 MSTORE PUSH1 0x32 PUSH1 0x4 MSTORE PUSH1 0x24 PUSH1 0x0 REVERT JUMPDEST SWAP1 POP PUSH1 0x20 MUL ADD CALLDATALOAD DUP2 EQ JUMPDEST PUSH2 0x1849 JUMPI PUSH1 0x40 MLOAD PUSH32 0x8C379A000000000000000000000000000000000000000000000000000000000 DUP2 MSTORE PUSH1 0x4 ADD PUSH2 0x1840 SWAP1 PUSH2 0x279D JUMP JUMPDEST PUSH1 0x40 MLOAD DUP1 SWAP2 SUB SWAP1 REVERT JUMPDEST PUSH2 0x18D1 DUP5 DUP14 PUSH1 0x1 PUSH1 0x2 DUP2 LT PUSH2 0x1887 JUMPI PUSH32 0x4E487B7100000000000000000000000000000000000000000000000000000000 PUSH1 0x0 MSTORE PUSH1 0x32 PUSH1 0x4 MSTORE PUSH1 0x24 PUSH1 0x0 REVERT JUMPDEST PUSH1 0x20 MUL ADD MLOAD DUP15 PUSH1 0x0 PUSH1 0x2 DUP2 LT PUSH2 0x18C6 JUMPI PUSH32 0x4E487B7100000000000000000000000000000000000000000000000000000000 PUSH1 0x0 MSTORE PUSH1 0x32 PUSH1 0x4 MSTORE PUSH1 0x24 PUSH1 0x0 REVERT JUMPDEST PUSH1 0x20 MUL ADD MLOAD DUP7 PUSH2 0x19A4 JUMP JUMPDEST PUSH2 0x1919 DUP13 PUSH1 0x1 PUSH1 0x2 DUP2 LT PUSH2 0x190E JUMPI PUSH32 0x4E487B7100000000000000000000000000000000000000000000000000000000 PUSH1 0x0 MSTORE PUSH1 0x32 PUSH1 0x4 MSTORE PUSH1 0x24 PUSH1 0x0 REVERT JUMPDEST PUSH1 0x20 MUL ADD MLOAD NUMBER PUSH2 0x1A43 JUMP JUMPDEST POP POP POP POP POP POP POP POP POP POP POP POP JUMP JUMPDEST PUSH1 0x0 DUP1 PUSH2 0x1933 DUP7 PUSH2 0x133E JUMP JUMPDEST DUP1 SWAP3 POP DUP2 SWAP4 POP POP POP DUP1 DUP4 PUSH8 0xFFFFFFFFFFFFFFFF AND LT ISZERO PUSH2 0x1988 JUMPI PUSH1 0x40 MLOAD PUSH32 0x8C379A000000000000000000000000000000000000000000000000000000000 DUP2 MSTORE PUSH1 0x4 ADD PUSH2 0x197F SWAP1 PUSH2 0x281D JUMP JUMPDEST PUSH1 0x40 MLOAD DUP1 SWAP2 SUB SWAP1 REVERT JUMPDEST DUP2 DUP5 EQ PUSH2 0x199C JUMPI PUSH2 0x199B DUP7 DUP6 DUP6 DUP9 PUSH2 0x1ADC JUMP JUMPDEST JUMPDEST POP POP POP POP POP POP JUMP JUMPDEST PUSH1 0x0 PUSH1 0x3 PUSH1 0x0 SWAP1 SLOAD SWAP1 PUSH2 0x100 EXP SWAP1 DIV PUSH20 0xFFFFFFFFFFFFFFFFFFFFFFFFFFFFFFFFFFFFFFFF AND SWAP1 POP DUP1 PUSH20 0xFFFFFFFFFFFFFFFFFFFFFFFFFFFFFFFFFFFFFFFF AND PUSH4 0xD8ADD41B DUP7 DUP7 DUP7 DUP7 PUSH1 0x40 MLOAD DUP6 PUSH4 0xFFFFFFFF AND PUSH1 0xE0 SHL DUP2 MSTORE PUSH1 0x4 ADD PUSH2 0x1A0A SWAP5 SWAP4 SWAP3 SWAP2 SWAP1 PUSH2 0x25B8 JUMP JUMPDEST PUSH1 0x0 PUSH1 0x40 MLOAD DUP1 DUP4 SUB DUP2 PUSH1 0x0 DUP8 DUP1 EXTCODESIZE ISZERO DUP1 ISZERO PUSH2 0x1A24 JUMPI PUSH1 0x0 DUP1 REVERT JUMPDEST POP GAS CALL ISZERO DUP1 ISZERO PUSH2 0x1A38 JUMPI RETURNDATASIZE PUSH1 0x0 DUP1 RETURNDATACOPY RETURNDATASIZE PUSH1 0x0 REVERT JUMPDEST POP POP POP POP POP POP POP POP POP JUMP JUMPDEST PUSH1 0x0 PUSH1 0x2 PUSH1 0x0 SWAP1 SLOAD SWAP1 PUSH2 0x100 EXP SWAP1 DIV PUSH20 0xFFFFFFFFFFFFFFFFFFFFFFFFFFFFFFFFFFFFFFFF AND SWAP1 POP DUP1 PUSH20 0xFFFFFFFFFFFFFFFFFFFFFFFFFFFFFFFFFFFFFFFF AND PUSH4 0xC9254F6F DUP5 DUP5 PUSH1 0x40 MLOAD DUP4 PUSH4 0xFFFFFFFF AND PUSH1 0xE0 SHL DUP2 MSTORE PUSH1 0x4 ADD PUSH2 0x1AA5 SWAP3 SWAP2 SWAP1 PUSH2 0x26B0 JUMP JUMPDEST PUSH1 0x0 PUSH1 0x40 MLOAD DUP1 DUP4 SUB DUP2 PUSH1 0x0 DUP8 DUP1 EXTCODESIZE ISZERO DUP1 ISZERO PUSH2 0x1ABF JUMPI PUSH1 0x0 DUP1 REVERT JUMPDEST POP GAS CALL ISZERO DUP1 ISZERO PUSH2 0x1AD3 JUMPI RETURNDATASIZE PUSH1 0x0 DUP1 RETURNDATACOPY RETURNDATASIZE PUSH1 0x0 REVERT JUMPDEST POP POP POP POP POP POP POP JUMP JUMPDEST PUSH1 0x0 PUSH1 0x2 PUSH1 0x0 SWAP1 SLOAD SWAP1 PUSH2 0x100 EXP SWAP1 DIV PUSH20 0xFFFFFFFFFFFFFFFFFFFFFFFFFFFFFFFFFFFFFFFF AND SWAP1 POP DUP1 PUSH20 0xFFFFFFFFFFFFFFFFFFFFFFFFFFFFFFFFFFFFFFFF AND PUSH4 0x35E73DF4 DUP7 DUP7 DUP7 DUP7 PUSH1 0x40 MLOAD DUP6 PUSH4 0xFFFFFFFF AND PUSH1 0xE0 SHL DUP2 MSTORE PUSH1 0x4 ADD PUSH2 0x1B42 SWAP5 SWAP4 SWAP3 SWAP2 SWAP1 PUSH2 0x2634 JUMP JUMPDEST PUSH1 0x0 PUSH1 0x40 MLOAD DUP1 DUP4 SUB DUP2 PUSH1 0x0 DUP8 DUP1 EXTCODESIZE ISZERO DUP1 ISZERO PUSH2 0x1B5C JUMPI PUSH1 0x0 DUP1 REVERT JUMPDEST POP GAS CALL ISZERO DUP1 ISZERO PUSH2 0x1B70 JUMPI RETURNDATASIZE PUSH1 0x0 DUP1 RETURNDATACOPY RETURNDATASIZE PUSH1 0x0 REVERT JUMPDEST POP POP POP POP POP POP POP POP POP JUMP JUMPDEST PUSH1 0x0 PUSH2 0x1B8E PUSH2 0x1B89 DUP5 PUSH2 0x28D8 JUMP JUMPDEST PUSH2 0x28B3 JUMP JUMPDEST SWAP1 POP DUP3 DUP2 MSTORE PUSH1 0x20 DUP2 ADD DUP5 DUP5 DUP5 ADD GT ISZERO PUSH2 0x1BA6 JUMPI PUSH1 0x0 DUP1 REVERT JUMPDEST PUSH2 0x1BB1 DUP5 DUP3 DUP6 PUSH2 0x2AEA JUMP JUMPDEST POP SWAP4 SWAP3 POP POP POP JUMP JUMPDEST PUSH1 0x0 DUP2 CALLDATALOAD SWAP1 POP PUSH2 0x1BC8 DUP2 PUSH2 0x2E0C JUMP JUMPDEST SWAP3 SWAP2 POP POP JUMP JUMPDEST PUSH1 0x0 DUP2 MLOAD SWAP1 POP PUSH2 0x1BDD DUP2 PUSH2 0x2E0C JUMP JUMPDEST SWAP3 SWAP2 POP POP JUMP JUMPDEST PUSH1 0x0 DUP1 DUP4 PUSH1 0x1F DUP5 ADD SLT PUSH2 0x1BF5 JUMPI PUSH1 0x0 DUP1 REVERT JUMPDEST DUP3 CALLDATALOAD SWAP1 POP PUSH8 0xFFFFFFFFFFFFFFFF DUP2 GT ISZERO PUSH2 0x1C0E JUMPI PUSH1 0x0 DUP1 REVERT JUMPDEST PUSH1 0x20 DUP4 ADD SWAP2 POP DUP4 PUSH1 0x20 DUP3 MUL DUP4 ADD GT ISZERO PUSH2 0x1C26 JUMPI PUSH1 0x0 DUP1 REVERT JUMPDEST SWAP3 POP SWAP3 SWAP1 POP JUMP JUMPDEST PUSH1 0x0 DUP2 CALLDATALOAD SWAP1 POP PUSH2 0x1C3C DUP2 PUSH2 0x2E23 JUMP JUMPDEST SWAP3 SWAP2 POP POP JUMP JUMPDEST PUSH1 0x0 DUP2 MLOAD SWAP1 POP PUSH2 0x1C51 DUP2 PUSH2 0x2E23 JUMP JUMPDEST SWAP3 SWAP2 POP POP JUMP JUMPDEST PUSH1 0x0 DUP1 DUP4 PUSH1 0x1F DUP5 ADD SLT PUSH2 0x1C69 JUMPI PUSH1 0x0 DUP1 REVERT JUMPDEST DUP3 CALLDATALOAD SWAP1 POP PUSH8 0xFFFFFFFFFFFFFFFF DUP2 GT ISZERO PUSH2 0x1C82 JUMPI PUSH1 0x0 DUP1 REVERT JUMPDEST PUSH1 0x20 DUP4 ADD SWAP2 POP DUP4 PUSH1 0x1 DUP3 MUL DUP4 ADD GT ISZERO PUSH2 0x1C9A JUMPI PUSH1 0x0 DUP1 REVERT JUMPDEST SWAP3 POP SWAP3 SWAP1 POP JUMP JUMPDEST PUSH1 0x0 DUP3 PUSH1 0x1F DUP4 ADD SLT PUSH2 0x1CB2 JUMPI PUSH1 0x0 DUP1 REVERT JUMPDEST DUP2 CALLDATALOAD PUSH2 0x1CC2 DUP5 DUP3 PUSH1 0x20 DUP7 ADD PUSH2 0x1B7B JUMP JUMPDEST SWAP2 POP POP SWAP3 SWAP2 POP POP JUMP JUMPDEST PUSH1 0x0 DUP2 CALLDATALOAD SWAP1 POP PUSH2 0x1CDA DUP2 PUSH2 0x2E3A JUMP JUMPDEST SWAP3 SWAP2 POP POP JUMP JUMPDEST PUSH1 0x0 DUP2 MLOAD SWAP1 POP PUSH2 0x1CEF DUP2 PUSH2 0x2E3A JUMP JUMPDEST SWAP3 SWAP2 POP POP JUMP JUMPDEST PUSH1 0x0 DUP2 CALLDATALOAD SWAP1 POP PUSH2 0x1D04 DUP2 PUSH2 0x2E51 JUMP JUMPDEST SWAP3 SWAP2 POP POP JUMP JUMPDEST PUSH1 0x0 DUP2 MLOAD SWAP1 POP PUSH2 0x1D19 DUP2 PUSH2 0x2E51 JUMP JUMPDEST SWAP3 SWAP2 POP POP JUMP JUMPDEST PUSH1 0x0 DUP2 CALLDATALOAD SWAP1 POP PUSH2 0x1D2E DUP2 PUSH2 0x2E68 JUMP JUMPDEST SWAP3 SWAP2 POP POP JUMP JUMPDEST PUSH1 0x0 PUSH1 0x20 DUP3 DUP5 SUB SLT ISZERO PUSH2 0x1D46 JUMPI PUSH1 0x0 DUP1 REVERT JUMPDEST PUSH1 0x0 PUSH2 0x1D54 DUP5 DUP3 DUP6 ADD PUSH2 0x1BB9 JUMP JUMPDEST SWAP2 POP POP SWAP3 SWAP2 POP POP JUMP JUMPDEST PUSH1 0x0 PUSH1 0x20 DUP3 DUP5 SUB SLT ISZERO PUSH2 0x1D6F JUMPI PUSH1 0x0 DUP1 REVERT JUMPDEST PUSH1 0x0 PUSH2 0x1D7D DUP5 DUP3 DUP6 ADD PUSH2 0x1BCE JUMP JUMPDEST SWAP2 POP POP SWAP3 SWAP2 POP POP JUMP JUMPDEST PUSH1 0x0 DUP1 PUSH1 0x40 DUP4 DUP6 SUB SLT ISZERO PUSH2 0x1D99 JUMPI PUSH1 0x0 DUP1 REVERT JUMPDEST PUSH1 0x0 PUSH2 0x1DA7 DUP6 DUP3 DUP7 ADD PUSH2 0x1BB9 JUMP JUMPDEST SWAP3 POP POP PUSH1 0x20 PUSH2 0x1DB8 DUP6 DUP3 DUP7 ADD PUSH2 0x1BB9 JUMP JUMPDEST SWAP2 POP POP SWAP3 POP SWAP3 SWAP1 POP JUMP JUMPDEST PUSH1 0x0 DUP1 PUSH1 0x0 DUP1 PUSH1 0x0 DUP1 PUSH1 0x0 DUP1 PUSH1 0x0 DUP1 PUSH1 0x0 PUSH2 0x100 DUP13 DUP15 SUB SLT ISZERO PUSH2 0x1DE4 JUMPI PUSH1 0x0 DUP1 REVERT JUMPDEST PUSH1 0x0 PUSH2 0x1DF2 DUP15 DUP3 DUP16 ADD PUSH2 0x1BB9 JUMP JUMPDEST SWAP12 POP POP PUSH1 0x20 PUSH2 0x1E03 DUP15 DUP3 DUP16 ADD PUSH2 0x1BB9 JUMP JUMPDEST SWAP11 POP POP PUSH1 0x40 PUSH2 0x1E14 DUP15 DUP3 DUP16 ADD PUSH2 0x1CF5 JUMP JUMPDEST SWAP10 POP POP PUSH1 0x60 PUSH2 0x1E25 DUP15 DUP3 DUP16 ADD PUSH2 0x1C2D JUMP JUMPDEST SWAP9 POP POP PUSH1 0x80 PUSH2 0x1E36 DUP15 DUP3 DUP16 ADD PUSH2 0x1D1F JUMP JUMPDEST SWAP8 POP POP PUSH1 0xA0 DUP13 ADD CALLDATALOAD PUSH8 0xFFFFFFFFFFFFFFFF DUP2 GT ISZERO PUSH2 0x1E53 JUMPI PUSH1 0x0 DUP1 REVERT JUMPDEST PUSH2 0x1E5F DUP15 DUP3 DUP16 ADD PUSH2 0x1C57 JUMP JUMPDEST SWAP7 POP SWAP7 POP POP PUSH1 0xC0 DUP13 ADD CALLDATALOAD PUSH8 0xFFFFFFFFFFFFFFFF DUP2 GT ISZERO PUSH2 0x1E7E JUMPI PUSH1 0x0 DUP1 REVERT JUMPDEST PUSH2 0x1E8A DUP15 DUP3 DUP16 ADD PUSH2 0x1C57 JUMP JUMPDEST SWAP5 POP SWAP5 POP POP PUSH1 0xE0 DUP13 ADD CALLDATALOAD PUSH8 0xFFFFFFFFFFFFFFFF DUP2 GT ISZERO PUSH2 0x1EA9 JUMPI PUSH1 0x0 DUP1 REVERT JUMPDEST PUSH2 0x1EB5 DUP15 DUP3 DUP16 ADD PUSH2 0x1BE3 JUMP JUMPDEST SWAP3 POP SWAP3 POP POP SWAP3 SWAP6 SWAP9 SWAP12 POP SWAP3 SWAP6 SWAP9 SWAP12 SWAP1 SWAP4 SWAP7 SWAP10 POP JUMP JUMPDEST PUSH1 0x0 DUP1 PUSH1 0x0 DUP1 PUSH1 0x0 PUSH1 0x80 DUP7 DUP9 SUB SLT ISZERO PUSH2 0x1EE2 JUMPI PUSH1 0x0 DUP1 REVERT JUMPDEST PUSH1 0x0 PUSH2 0x1EF0 DUP9 DUP3 DUP10 ADD PUSH2 0x1BB9 JUMP JUMPDEST SWAP6 POP POP PUSH1 0x20 DUP7 ADD CALLDATALOAD PUSH8 0xFFFFFFFFFFFFFFFF DUP2 GT ISZERO PUSH2 0x1F0D JUMPI PUSH1 0x0 DUP1 REVERT JUMPDEST PUSH2 0x1F19 DUP9 DUP3 DUP10 ADD PUSH2 0x1C57 JUMP JUMPDEST SWAP5 POP SWAP5 POP POP PUSH1 0x40 PUSH2 0x1F2C DUP9 DUP3 DUP10 ADD PUSH2 0x1CF5 JUMP JUMPDEST SWAP3 POP POP PUSH1 0x60 PUSH2 0x1F3D DUP9 DUP3 DUP10 ADD PUSH2 0x1CCB JUMP JUMPDEST SWAP2 POP POP SWAP3 SWAP6 POP SWAP3 SWAP6 SWAP1 SWAP4 POP JUMP JUMPDEST PUSH1 0x0 DUP1 PUSH1 0x0 PUSH1 0x60 DUP5 DUP7 SUB SLT ISZERO PUSH2 0x1F5F JUMPI PUSH1 0x0 DUP1 REVERT JUMPDEST PUSH1 0x0 PUSH2 0x1F6D DUP7 DUP3 DUP8 ADD PUSH2 0x1BB9 JUMP JUMPDEST SWAP4 POP POP PUSH1 0x20 DUP5 ADD CALLDATALOAD PUSH8 0xFFFFFFFFFFFFFFFF DUP2 GT ISZERO PUSH2 0x1F8A JUMPI PUSH1 0x0 DUP1 REVERT JUMPDEST PUSH2 0x1F96 DUP7 DUP3 DUP8 ADD PUSH2 0x1CA1 JUMP JUMPDEST SWAP3 POP POP PUSH1 0x40 DUP5 ADD CALLDATALOAD PUSH8 0xFFFFFFFFFFFFFFFF DUP2 GT ISZERO PUSH2 0x1FB3 JUMPI PUSH1 0x0 DUP1 REVERT JUMPDEST PUSH2 0x1FBF DUP7 DUP3 DUP8 ADD PUSH2 0x1CA1 JUMP JUMPDEST SWAP2 POP POP SWAP3 POP SWAP3 POP SWAP3 JUMP JUMPDEST PUSH1 0x0 DUP1 PUSH1 0x40 DUP4 DUP6 SUB SLT ISZERO PUSH2 0x1FDC JUMPI PUSH1 0x0 DUP1 REVERT JUMPDEST PUSH1 0x0 PUSH2 0x1FEA DUP6 DUP3 DUP7 ADD PUSH2 0x1BB9 JUMP JUMPDEST SWAP3 POP POP PUSH1 0x20 PUSH2 0x1FFB DUP6 DUP3 DUP7 ADD PUSH2 0x1CCB JUMP JUMPDEST SWAP2 POP POP SWAP3 POP SWAP3 SWAP1 POP JUMP JUMPDEST PUSH1 0x0 DUP1 PUSH1 0x0 DUP1 PUSH1 0x0 DUP1 PUSH1 0x0 DUP1 PUSH1 0x0 DUP1 PUSH1 0xE0 DUP12 DUP14 SUB SLT ISZERO PUSH2 0x2024 JUMPI PUSH1 0x0 DUP1 REVERT JUMPDEST PUSH1 0x0 PUSH2 0x2032 DUP14 DUP3 DUP15 ADD PUSH2 0x1BB9 JUMP JUMPDEST SWAP11 POP POP PUSH1 0x20 PUSH2 0x2043 DUP14 DUP3 DUP15 ADD PUSH2 0x1CF5 JUMP JUMPDEST SWAP10 POP POP PUSH1 0x40 PUSH2 0x2054 DUP14 DUP3 DUP15 ADD PUSH2 0x1C2D JUMP JUMPDEST SWAP9 POP POP PUSH1 0x60 PUSH2 0x2065 DUP14 DUP3 DUP15 ADD PUSH2 0x1D1F JUMP JUMPDEST SWAP8 POP POP PUSH1 0x80 DUP12 ADD CALLDATALOAD PUSH8 0xFFFFFFFFFFFFFFFF DUP2 GT ISZERO PUSH2 0x2082 JUMPI PUSH1 0x0 DUP1 REVERT JUMPDEST PUSH2 0x208E DUP14 DUP3 DUP15 ADD PUSH2 0x1C57 JUMP JUMPDEST SWAP7 POP SWAP7 POP POP PUSH1 0xA0 DUP12 ADD CALLDATALOAD PUSH8 0xFFFFFFFFFFFFFFFF DUP2 GT ISZERO PUSH2 0x20AD JUMPI PUSH1 0x0 DUP1 REVERT JUMPDEST PUSH2 0x20B9 DUP14 DUP3 DUP15 ADD PUSH2 0x1C57 JUMP JUMPDEST SWAP5 POP SWAP5 POP POP PUSH1 0xC0 DUP12 ADD CALLDATALOAD PUSH8 0xFFFFFFFFFFFFFFFF DUP2 GT ISZERO PUSH2 0x20D8 JUMPI PUSH1 0x0 DUP1 REVERT JUMPDEST PUSH2 0x20E4 DUP14 DUP3 DUP15 ADD PUSH2 0x1BE3 JUMP JUMPDEST SWAP3 POP SWAP3 POP POP SWAP3 SWAP6 SWAP9 SWAP12 SWAP2 SWAP5 SWAP8 SWAP11 POP SWAP3 SWAP6 SWAP9 POP JUMP JUMPDEST PUSH1 0x0 PUSH1 0x20 DUP3 DUP5 SUB SLT ISZERO PUSH2 0x210A JUMPI PUSH1 0x0 DUP1 REVERT JUMPDEST PUSH1 0x0 PUSH2 0x2118 DUP5 DUP3 DUP6 ADD PUSH2 0x1C42 JUMP JUMPDEST SWAP2 POP POP SWAP3 SWAP2 POP POP JUMP JUMPDEST PUSH1 0x0 DUP1 PUSH1 0x0 PUSH1 0x40 DUP5 DUP7 SUB SLT ISZERO PUSH2 0x2136 JUMPI PUSH1 0x0 DUP1 REVERT JUMPDEST PUSH1 0x0 PUSH2 0x2144 DUP7 DUP3 DUP8 ADD PUSH2 0x1C2D JUMP JUMPDEST SWAP4 POP POP PUSH1 0x20 DUP5 ADD CALLDATALOAD PUSH8 0xFFFFFFFFFFFFFFFF DUP2 GT ISZERO PUSH2 0x2161 JUMPI PUSH1 0x0 DUP1 REVERT JUMPDEST PUSH2 0x216D DUP7 DUP3 DUP8 ADD PUSH2 0x1BE3 JUMP JUMPDEST SWAP3 POP SWAP3 POP POP SWAP3 POP SWAP3 POP SWAP3 JUMP JUMPDEST PUSH1 0x0 DUP1 PUSH1 0x40 DUP4 DUP6 SUB SLT ISZERO PUSH2 0x218C JUMPI PUSH1 0x0 DUP1 REVERT JUMPDEST PUSH1 0x0 PUSH2 0x219A DUP6 DUP3 DUP7 ADD PUSH2 0x1C42 JUMP JUMPDEST SWAP3 POP POP PUSH1 0x20 PUSH2 0x21AB DUP6 DUP3 DUP7 ADD PUSH2 0x1CE0 JUMP JUMPDEST SWAP2 POP POP SWAP3 POP SWAP3 SWAP1 POP JUMP JUMPDEST PUSH1 0x0 PUSH1 0x20 DUP3 DUP5 SUB SLT ISZERO PUSH2 0x21C7 JUMPI PUSH1 0x0 DUP1 REVERT JUMPDEST PUSH1 0x0 PUSH2 0x21D5 DUP5 DUP3 DUP6 ADD PUSH2 0x1CCB JUMP JUMPDEST SWAP2 POP POP SWAP3 SWAP2 POP POP JUMP JUMPDEST PUSH1 0x0 PUSH1 0x20 DUP3 DUP5 SUB SLT ISZERO PUSH2 0x21F0 JUMPI PUSH1 0x0 DUP1 REVERT JUMPDEST PUSH1 0x0 PUSH2 0x21FE DUP5 DUP3 DUP6 ADD PUSH2 0x1CE0 JUMP JUMPDEST SWAP2 POP POP SWAP3 SWAP2 POP POP JUMP JUMPDEST PUSH1 0x0 DUP1 PUSH1 0x40 DUP4 DUP6 SUB SLT ISZERO PUSH2 0x221A JUMPI PUSH1 0x0 DUP1 REVERT JUMPDEST PUSH1 0x0 PUSH2 0x2228 DUP6 DUP3 DUP7 ADD PUSH2 0x1CCB JUMP JUMPDEST SWAP3 POP POP PUSH1 0x20 PUSH2 0x2239 DUP6 DUP3 DUP7 ADD PUSH2 0x1CCB JUMP JUMPDEST SWAP2 POP POP SWAP3 POP SWAP3 SWAP1 POP JUMP JUMPDEST PUSH1 0x0 PUSH1 0x20 DUP3 DUP5 SUB SLT ISZERO PUSH2 0x2255 JUMPI PUSH1 0x0 DUP1 REVERT JUMPDEST PUSH1 0x0 PUSH2 0x2263 DUP5 DUP3 DUP6 ADD PUSH2 0x1CF5 JUMP JUMPDEST SWAP2 POP POP SWAP3 SWAP2 POP POP JUMP JUMPDEST PUSH1 0x0 PUSH1 0x20 DUP3 DUP5 SUB SLT ISZERO PUSH2 0x227E JUMPI PUSH1 0x0 DUP1 REVERT JUMPDEST PUSH1 0x0 PUSH2 0x228C DUP5 DUP3 DUP6 ADD PUSH2 0x1D0A JUMP JUMPDEST SWAP2 POP POP SWAP3 SWAP2 POP POP JUMP JUMPDEST PUSH2 0x229E DUP2 PUSH2 0x2A67 JUMP JUMPDEST DUP3 MSTORE POP POP JUMP JUMPDEST PUSH2 0x22B5 PUSH2 0x22B0 DUP3 PUSH2 0x2A67 JUMP JUMPDEST PUSH2 0x2B8A JUMP JUMPDEST DUP3 MSTORE POP POP JUMP JUMPDEST PUSH2 0x22C4 DUP2 PUSH2 0x2A79 JUMP JUMPDEST DUP3 MSTORE POP POP JUMP JUMPDEST PUSH2 0x22D3 DUP2 PUSH2 0x2A85 JUMP JUMPDEST DUP3 MSTORE POP POP JUMP JUMPDEST PUSH2 0x22EA PUSH2 0x22E5 DUP3 PUSH2 0x2A85 JUMP JUMPDEST PUSH2 0x2B9C JUMP JUMPDEST DUP3 MSTORE POP POP JUMP JUMPDEST PUSH1 0x0 PUSH2 0x22FC DUP4 DUP6 PUSH2 0x2914 JUMP JUMPDEST SWAP4 POP PUSH2 0x2309 DUP4 DUP6 DUP5 PUSH2 0x2AEA JUMP JUMPDEST DUP3 DUP5 ADD SWAP1 POP SWAP4 SWAP3 POP POP POP JUMP JUMPDEST PUSH1 0x0 PUSH2 0x2320 DUP3 PUSH2 0x2909 JUMP JUMPDEST PUSH2 0x232A DUP2 DUP6 PUSH2 0x2914 JUMP JUMPDEST SWAP4 POP PUSH2 0x233A DUP2 DUP6 PUSH1 0x20 DUP7 ADD PUSH2 0x2AF9 JUMP JUMPDEST DUP1 DUP5 ADD SWAP2 POP POP SWAP3 SWAP2 POP POP JUMP JUMPDEST PUSH1 0x0 PUSH2 0x2353 PUSH1 0x1F DUP4 PUSH2 0x291F JUMP JUMPDEST SWAP2 POP PUSH2 0x235E DUP3 PUSH2 0x2C9E JUMP JUMPDEST PUSH1 0x20 DUP3 ADD SWAP1 POP SWAP2 SWAP1 POP JUMP JUMPDEST PUSH1 0x0 PUSH2 0x2376 PUSH1 0x23 DUP4 PUSH2 0x291F JUMP JUMPDEST SWAP2 POP PUSH2 0x2381 DUP3 PUSH2 0x2CC7 JUMP JUMPDEST PUSH1 0x40 DUP3 ADD SWAP1 POP SWAP2 SWAP1 POP JUMP JUMPDEST PUSH1 0x0 PUSH2 0x2399 PUSH1 0x15 DUP4 PUSH2 0x291F JUMP JUMPDEST SWAP2 POP PUSH2 0x23A4 DUP3 PUSH2 0x2D16 JUMP JUMPDEST PUSH1 0x20 DUP3 ADD SWAP1 POP SWAP2 SWAP1 POP JUMP JUMPDEST PUSH1 0x0 PUSH2 0x23BC PUSH1 0x14 DUP4 PUSH2 0x291F JUMP JUMPDEST SWAP2 POP PUSH2 0x23C7 DUP3 PUSH2 0x2D3F JUMP JUMPDEST PUSH1 0x20 DUP3 ADD SWAP1 POP SWAP2 SWAP1 POP JUMP JUMPDEST PUSH1 0x0 PUSH2 0x23DF PUSH1 0xD DUP4 PUSH2 0x291F JUMP JUMPDEST SWAP2 POP PUSH2 0x23EA DUP3 PUSH2 0x2D68 JUMP JUMPDEST PUSH1 0x20 DUP3 ADD SWAP1 POP SWAP2 SWAP1 POP JUMP JUMPDEST PUSH1 0x0 PUSH2 0x2402 PUSH1 0x11 DUP4 PUSH2 0x291F JUMP JUMPDEST SWAP2 POP PUSH2 0x240D DUP3 PUSH2 0x2D91 JUMP JUMPDEST PUSH1 0x20 DUP3 ADD SWAP1 POP SWAP2 SWAP1 POP JUMP JUMPDEST PUSH1 0x0 PUSH2 0x2425 PUSH1 0x11 DUP4 PUSH2 0x291F JUMP JUMPDEST SWAP2 POP PUSH2 0x2430 DUP3 PUSH2 0x2DBA JUMP JUMPDEST PUSH1 0x20 DUP3 ADD SWAP1 POP SWAP2 SWAP1 POP JUMP JUMPDEST PUSH1 0x0 PUSH2 0x2448 PUSH1 0xF DUP4 PUSH2 0x291F JUMP JUMPDEST SWAP2 POP PUSH2 0x2453 DUP3 PUSH2 0x2DE3 JUMP JUMPDEST PUSH1 0x20 DUP3 ADD SWAP1 POP SWAP2 SWAP1 POP JUMP JUMPDEST PUSH2 0x2467 DUP2 PUSH2 0x2AAF JUMP JUMPDEST DUP3 MSTORE POP POP JUMP JUMPDEST PUSH2 0x247E PUSH2 0x2479 DUP3 PUSH2 0x2AAF JUMP JUMPDEST PUSH2 0x2BB8 JUMP JUMPDEST DUP3 MSTORE POP POP JUMP JUMPDEST PUSH2 0x248D DUP2 PUSH2 0x2AB9 JUMP JUMPDEST DUP3 MSTORE POP POP JUMP JUMPDEST PUSH2 0x249C DUP2 PUSH2 0x2AC9 JUMP JUMPDEST DUP3 MSTORE POP POP JUMP JUMPDEST PUSH2 0x24AB DUP2 PUSH2 0x2ADD JUMP JUMPDEST DUP3 MSTORE POP POP JUMP JUMPDEST PUSH1 0x0 PUSH2 0x24BD DUP3 DUP6 PUSH2 0x22D9 JUMP JUMPDEST PUSH1 0x20 DUP3 ADD SWAP2 POP PUSH2 0x24CD DUP3 DUP5 PUSH2 0x22D9 JUMP JUMPDEST PUSH1 0x20 DUP3 ADD SWAP2 POP DUP2 SWAP1 POP SWAP4 SWAP3 POP POP POP JUMP JUMPDEST PUSH1 0x0 PUSH2 0x24E9 DUP3 DUP6 PUSH2 0x22D9 JUMP JUMPDEST PUSH1 0x20 DUP3 ADD SWAP2 POP PUSH2 0x24F9 DUP3 DUP5 PUSH2 0x246D JUMP JUMPDEST PUSH1 0x20 DUP3 ADD SWAP2 POP DUP2 SWAP1 POP SWAP4 SWAP3 POP POP POP JUMP JUMPDEST PUSH1 0x0 PUSH2 0x2516 DUP3 DUP5 DUP7 PUSH2 0x22F0 JUMP JUMPDEST SWAP2 POP DUP2 SWAP1 POP SWAP4 SWAP3 POP POP POP JUMP JUMPDEST PUSH1 0x0 PUSH2 0x252F DUP3 DUP7 DUP9 PUSH2 0x22F0 JUMP JUMPDEST SWAP2 POP PUSH2 0x253B DUP3 DUP6 PUSH2 0x22A4 JUMP JUMPDEST PUSH1 0x14 DUP3 ADD SWAP2 POP PUSH2 0x254B DUP3 DUP5 PUSH2 0x22D9 JUMP JUMPDEST PUSH1 0x20 DUP3 ADD SWAP2 POP DUP2 SWAP1 POP SWAP6 SWAP5 POP POP POP POP POP JUMP JUMPDEST PUSH1 0x0 PUSH2 0x2569 DUP3 DUP5 PUSH2 0x2315 JUMP JUMPDEST SWAP2 POP DUP2 SWAP1 POP SWAP3 SWAP2 POP POP JUMP JUMPDEST PUSH1 0x0 PUSH1 0x20 DUP3 ADD SWAP1 POP PUSH2 0x2589 PUSH1 0x0 DUP4 ADD DUP5 PUSH2 0x2295 JUMP JUMPDEST SWAP3 SWAP2 POP POP JUMP JUMPDEST PUSH1 0x0 PUSH1 0x40 DUP3 ADD SWAP1 POP PUSH2 0x25A4 PUSH1 0x0 DUP4 ADD DUP6 PUSH2 0x2295 JUMP JUMPDEST PUSH2 0x25B1 PUSH1 0x20 DUP4 ADD DUP5 PUSH2 0x2295 JUMP JUMPDEST SWAP4 SWAP3 POP POP POP JUMP JUMPDEST PUSH1 0x0 PUSH1 0x80 DUP3 ADD SWAP1 POP PUSH2 0x25CD PUSH1 0x0 DUP4 ADD DUP8 PUSH2 0x2295 JUMP JUMPDEST PUSH2 0x25DA PUSH1 0x20 DUP4 ADD DUP7 PUSH2 0x2295 JUMP JUMPDEST PUSH2 0x25E7 PUSH1 0x40 DUP4 ADD DUP6 PUSH2 0x2295 JUMP JUMPDEST PUSH2 0x25F4 PUSH1 0x60 DUP4 ADD DUP5 PUSH2 0x245E JUMP JUMPDEST SWAP6 SWAP5 POP POP POP POP POP JUMP JUMPDEST PUSH1 0x0 PUSH1 0x60 DUP3 ADD SWAP1 POP PUSH2 0x2612 PUSH1 0x0 DUP4 ADD DUP7 PUSH2 0x2295 JUMP JUMPDEST PUSH2 0x261F PUSH1 0x20 DUP4 ADD DUP6 PUSH2 0x2295 JUMP JUMPDEST PUSH2 0x262C PUSH1 0x40 DUP4 ADD DUP5 PUSH2 0x245E JUMP JUMPDEST SWAP5 SWAP4 POP POP POP POP JUMP JUMPDEST PUSH1 0x0 PUSH1 0x80 DUP3 ADD SWAP1 POP PUSH2 0x2649 PUSH1 0x0 DUP4 ADD DUP8 PUSH2 0x2295 JUMP JUMPDEST PUSH2 0x2656 PUSH1 0x20 DUP4 ADD DUP7 PUSH2 0x22CA JUMP JUMPDEST PUSH2 0x2663 PUSH1 0x40 DUP4 ADD DUP6 PUSH2 0x2493 JUMP JUMPDEST PUSH2 0x2670 PUSH1 0x60 DUP4 ADD DUP5 PUSH2 0x2295 JUMP JUMPDEST SWAP6 SWAP5 POP POP POP POP POP JUMP JUMPDEST PUSH1 0x0 PUSH1 0x60 DUP3 ADD SWAP1 POP PUSH2 0x268E PUSH1 0x0 DUP4 ADD DUP7 PUSH2 0x2295 JUMP JUMPDEST PUSH2 0x269B PUSH1 0x20 DUP4 ADD DUP6 PUSH2 0x245E JUMP JUMPDEST PUSH2 0x26A8 PUSH1 0x40 DUP4 ADD DUP5 PUSH2 0x245E JUMP JUMPDEST SWAP5 SWAP4 POP POP POP POP JUMP JUMPDEST PUSH1 0x0 PUSH1 0x40 DUP3 ADD SWAP1 POP PUSH2 0x26C5 PUSH1 0x0 DUP4 ADD DUP6 PUSH2 0x2295 JUMP JUMPDEST PUSH2 0x26D2 PUSH1 0x20 DUP4 ADD DUP5 PUSH2 0x2484 JUMP JUMPDEST SWAP4 SWAP3 POP POP POP JUMP JUMPDEST PUSH1 0x0 PUSH1 0x20 DUP3 ADD SWAP1 POP PUSH2 0x26EE PUSH1 0x0 DUP4 ADD DUP5 PUSH2 0x22BB JUMP JUMPDEST SWAP3 SWAP2 POP POP JUMP JUMPDEST PUSH1 0x0 PUSH1 0x20 DUP3 ADD SWAP1 POP PUSH2 0x2709 PUSH1 0x0 DUP4 ADD DUP5 PUSH2 0x22CA JUMP JUMPDEST SWAP3 SWAP2 POP POP JUMP JUMPDEST PUSH1 0x0 PUSH1 0x40 DUP3 ADD SWAP1 POP PUSH2 0x2724 PUSH1 0x0 DUP4 ADD DUP6 PUSH2 0x22CA JUMP JUMPDEST PUSH2 0x2731 PUSH1 0x20 DUP4 ADD DUP5 PUSH2 0x245E JUMP JUMPDEST SWAP4 SWAP3 POP POP POP JUMP JUMPDEST PUSH1 0x0 PUSH1 0x80 DUP3 ADD SWAP1 POP PUSH2 0x274D PUSH1 0x0 DUP4 ADD DUP8 PUSH2 0x22CA JUMP JUMPDEST PUSH2 0x275A PUSH1 0x20 DUP4 ADD DUP7 PUSH2 0x24A2 JUMP JUMPDEST PUSH2 0x2767 PUSH1 0x40 DUP4 ADD DUP6 PUSH2 0x22CA JUMP JUMPDEST PUSH2 0x2774 PUSH1 0x60 DUP4 ADD DUP5 PUSH2 0x22CA JUMP JUMPDEST SWAP6 SWAP5 POP POP POP POP POP JUMP JUMPDEST PUSH1 0x0 PUSH1 0x20 DUP3 ADD SWAP1 POP DUP2 DUP2 SUB PUSH1 0x0 DUP4 ADD MSTORE PUSH2 0x2796 DUP2 PUSH2 0x2346 JUMP JUMPDEST SWAP1 POP SWAP2 SWAP1 POP JUMP JUMPDEST PUSH1 0x0 PUSH1 0x20 DUP3 ADD SWAP1 POP DUP2 DUP2 SUB PUSH1 0x0 DUP4 ADD MSTORE PUSH2 0x27B6 DUP2 PUSH2 0x2369 JUMP JUMPDEST SWAP1 POP SWAP2 SWAP1 POP JUMP JUMPDEST PUSH1 0x0 PUSH1 0x20 DUP3 ADD SWAP1 POP DUP2 DUP2 SUB PUSH1 0x0 DUP4 ADD MSTORE PUSH2 0x27D6 DUP2 PUSH2 0x238C JUMP JUMPDEST SWAP1 POP SWAP2 SWAP1 POP JUMP JUMPDEST PUSH1 0x0 PUSH1 0x20 DUP3 ADD SWAP1 POP DUP2 DUP2 SUB PUSH1 0x0 DUP4 ADD MSTORE PUSH2 0x27F6 DUP2 PUSH2 0x23AF JUMP JUMPDEST SWAP1 POP SWAP2 SWAP1 POP JUMP JUMPDEST PUSH1 0x0 PUSH1 0x20 DUP3 ADD SWAP1 POP DUP2 DUP2 SUB PUSH1 0x0 DUP4 ADD MSTORE PUSH2 0x2816 DUP2 PUSH2 0x23D2 JUMP JUMPDEST SWAP1 POP SWAP2 SWAP1 POP JUMP JUMPDEST PUSH1 0x0 PUSH1 0x20 DUP3 ADD SWAP1 POP DUP2 DUP2 SUB PUSH1 0x0 DUP4 ADD MSTORE PUSH2 0x2836 DUP2 PUSH2 0x23F5 JUMP JUMPDEST SWAP1 POP SWAP2 SWAP1 POP JUMP JUMPDEST PUSH1 0x0 PUSH1 0x20 DUP3 ADD SWAP1 POP DUP2 DUP2 SUB PUSH1 0x0 DUP4 ADD MSTORE PUSH2 0x2856 DUP2 PUSH2 0x2418 JUMP JUMPDEST SWAP1 POP SWAP2 SWAP1 POP JUMP JUMPDEST PUSH1 0x0 PUSH1 0x20 DUP3 ADD SWAP1 POP DUP2 DUP2 SUB PUSH1 0x0 DUP4 ADD MSTORE PUSH2 0x2876 DUP2 PUSH2 0x243B JUMP JUMPDEST SWAP1 POP SWAP2 SWAP1 POP JUMP JUMPDEST PUSH1 0x0 PUSH1 0x20 DUP3 ADD SWAP1 POP PUSH2 0x2892 PUSH1 0x0 DUP4 ADD DUP5 PUSH2 0x245E JUMP JUMPDEST SWAP3 SWAP2 POP POP JUMP JUMPDEST PUSH1 0x0 PUSH1 0x20 DUP3 ADD SWAP1 POP PUSH2 0x28AD PUSH1 0x0 DUP4 ADD DUP5 PUSH2 0x2484 JUMP JUMPDEST SWAP3 SWAP2 POP POP JUMP JUMPDEST PUSH1 0x0 PUSH2 0x28BD PUSH2 0x28CE JUMP JUMPDEST SWAP1 POP PUSH2 0x28C9 DUP3 DUP3 PUSH2 0x2B2C JUMP JUMPDEST SWAP2 SWAP1 POP JUMP JUMPDEST PUSH1 0x0 PUSH1 0x40 MLOAD SWAP1 POP SWAP1 JUMP JUMPDEST PUSH1 0x0 PUSH8 0xFFFFFFFFFFFFFFFF DUP3 GT ISZERO PUSH2 0x28F3 JUMPI PUSH2 0x28F2 PUSH2 0x2C51 JUMP JUMPDEST JUMPDEST PUSH2 0x28FC DUP3 PUSH2 0x2C80 JUMP JUMPDEST SWAP1 POP PUSH1 0x20 DUP2 ADD SWAP1 POP SWAP2 SWAP1 POP JUMP JUMPDEST PUSH1 0x0 DUP2 MLOAD SWAP1 POP SWAP2 SWAP1 POP JUMP JUMPDEST PUSH1 0x0 DUP2 SWAP1 POP SWAP3 SWAP2 POP POP JUMP JUMPDEST PUSH1 0x0 DUP3 DUP3 MSTORE PUSH1 0x20 DUP3 ADD SWAP1 POP SWAP3 SWAP2 POP POP JUMP JUMPDEST PUSH1 0x0 PUSH2 0x293B DUP3 PUSH2 0x2AB9 JUMP JUMPDEST SWAP2 POP PUSH2 0x2946 DUP4 PUSH2 0x2AB9 JUMP JUMPDEST SWAP3 POP DUP3 PUSH4 0xFFFFFFFF SUB DUP3 GT ISZERO PUSH2 0x295F JUMPI PUSH2 0x295E PUSH2 0x2BF3 JUMP JUMPDEST JUMPDEST DUP3 DUP3 ADD SWAP1 POP SWAP3 SWAP2 POP POP JUMP JUMPDEST PUSH1 0x0 PUSH2 0x2975 DUP3 PUSH2 0x2AAF JUMP JUMPDEST SWAP2 POP PUSH2 0x2980 DUP4 PUSH2 0x2AAF JUMP JUMPDEST SWAP3 POP DUP3 PUSH2 0x2990 JUMPI PUSH2 0x298F PUSH2 0x2C22 JUMP JUMPDEST JUMPDEST DUP3 DUP3 DIV SWAP1 POP SWAP3 SWAP2 POP POP JUMP JUMPDEST PUSH1 0x0 PUSH2 0x29A6 DUP3 PUSH2 0x2AAF JUMP JUMPDEST SWAP2 POP PUSH2 0x29B1 DUP4 PUSH2 0x2AAF JUMP JUMPDEST SWAP3 POP DUP2 PUSH32 0xFFFFFFFFFFFFFFFFFFFFFFFFFFFFFFFFFFFFFFFFFFFFFFFFFFFFFFFFFFFFFFFF DIV DUP4 GT DUP3 ISZERO ISZERO AND ISZERO PUSH2 0x29EA JUMPI PUSH2 0x29E9 PUSH2 0x2BF3 JUMP JUMPDEST JUMPDEST DUP3 DUP3 MUL SWAP1 POP SWAP3 SWAP2 POP POP JUMP JUMPDEST PUSH1 0x0 PUSH2 0x2A00 DUP3 PUSH2 0x2AB9 JUMP JUMPDEST SWAP2 POP PUSH2 0x2A0B DUP4 PUSH2 0x2AB9 JUMP JUMPDEST SWAP3 POP DUP2 PUSH4 0xFFFFFFFF DIV DUP4 GT DUP3 ISZERO ISZERO AND ISZERO PUSH2 0x2A28 JUMPI PUSH2 0x2A27 PUSH2 0x2BF3 JUMP JUMPDEST JUMPDEST DUP3 DUP3 MUL SWAP1 POP SWAP3 SWAP2 POP POP JUMP JUMPDEST PUSH1 0x0 PUSH2 0x2A3E DUP3 PUSH2 0x2AAF JUMP JUMPDEST SWAP2 POP PUSH2 0x2A49 DUP4 PUSH2 0x2AAF JUMP JUMPDEST SWAP3 POP DUP3 DUP3 LT ISZERO PUSH2 0x2A5C JUMPI PUSH2 0x2A5B PUSH2 0x2BF3 JUMP JUMPDEST JUMPDEST DUP3 DUP3 SUB SWAP1 POP SWAP3 SWAP2 POP POP JUMP JUMPDEST PUSH1 0x0 PUSH2 0x2A72 DUP3 PUSH2 0x2A8F JUMP JUMPDEST SWAP1 POP SWAP2 SWAP1 POP JUMP JUMPDEST PUSH1 0x0 DUP2 ISZERO ISZERO SWAP1 POP SWAP2 SWAP1 POP JUMP JUMPDEST PUSH1 0x0 DUP2 SWAP1 POP SWAP2 SWAP1 POP JUMP JUMPDEST PUSH1 0x0 PUSH20 0xFFFFFFFFFFFFFFFFFFFFFFFFFFFFFFFFFFFFFFFF DUP3 AND SWAP1 POP SWAP2 SWAP1 POP JUMP JUMPDEST PUSH1 0x0 DUP2 SWAP1 POP SWAP2 SWAP1 POP JUMP JUMPDEST PUSH1 0x0 PUSH4 0xFFFFFFFF DUP3 AND SWAP1 POP SWAP2 SWAP1 POP JUMP JUMPDEST PUSH1 0x0 PUSH8 0xFFFFFFFFFFFFFFFF DUP3 AND SWAP1 POP SWAP2 SWAP1 POP JUMP JUMPDEST PUSH1 0x0 PUSH1 0xFF DUP3 AND SWAP1 POP SWAP2 SWAP1 POP JUMP JUMPDEST DUP3 DUP2 DUP4 CALLDATACOPY PUSH1 0x0 DUP4 DUP4 ADD MSTORE POP POP POP JUMP JUMPDEST PUSH1 0x0 JUMPDEST DUP4 DUP2 LT ISZERO PUSH2 0x2B17 JUMPI DUP1 DUP3 ADD MLOAD DUP2 DUP5 ADD MSTORE PUSH1 0x20 DUP2 ADD SWAP1 POP PUSH2 0x2AFC JUMP JUMPDEST DUP4 DUP2 GT ISZERO PUSH2 0x2B26 JUMPI PUSH1 0x0 DUP5 DUP5 ADD MSTORE JUMPDEST POP POP POP POP JUMP JUMPDEST PUSH2 0x2B35 DUP3 PUSH2 0x2C80 JUMP JUMPDEST DUP2 ADD DUP2 DUP2 LT PUSH8 0xFFFFFFFFFFFFFFFF DUP3 GT OR ISZERO PUSH2 0x2B54 JUMPI PUSH2 0x2B53 PUSH2 0x2C51 JUMP JUMPDEST JUMPDEST DUP1 PUSH1 0x40 MSTORE POP POP POP JUMP JUMPDEST PUSH1 0x0 PUSH2 0x2B68 DUP3 PUSH2 0x2AB9 JUMP JUMPDEST SWAP2 POP PUSH4 0xFFFFFFFF DUP3 EQ ISZERO PUSH2 0x2B7F JUMPI PUSH2 0x2B7E PUSH2 0x2BF3 JUMP JUMPDEST JUMPDEST PUSH1 0x1 DUP3 ADD SWAP1 POP SWAP2 SWAP1 POP JUMP JUMPDEST PUSH1 0x0 PUSH2 0x2B95 DUP3 PUSH2 0x2BA6 JUMP JUMPDEST SWAP1 POP SWAP2 SWAP1 POP JUMP JUMPDEST PUSH1 0x0 DUP2 SWAP1 POP SWAP2 SWAP1 POP JUMP JUMPDEST PUSH1 0x0 PUSH2 0x2BB1 DUP3 PUSH2 0x2C91 JUMP JUMPDEST SWAP1 POP SWAP2 SWAP1 POP JUMP JUMPDEST PUSH1 0x0 DUP2 SWAP1 POP SWAP2 SWAP1 POP JUMP JUMPDEST PUSH1 0x0 PUSH2 0x2BCD DUP3 PUSH2 0x2AAF JUMP JUMPDEST SWAP2 POP PUSH2 0x2BD8 DUP4 PUSH2 0x2AAF JUMP JUMPDEST SWAP3 POP DUP3 PUSH2 0x2BE8 JUMPI PUSH2 0x2BE7 PUSH2 0x2C22 JUMP JUMPDEST JUMPDEST DUP3 DUP3 MOD SWAP1 POP SWAP3 SWAP2 POP POP JUMP JUMPDEST PUSH32 0x4E487B7100000000000000000000000000000000000000000000000000000000 PUSH1 0x0 MSTORE PUSH1 0x11 PUSH1 0x4 MSTORE PUSH1 0x24 PUSH1 0x0 REVERT JUMPDEST PUSH32 0x4E487B7100000000000000000000000000000000000000000000000000000000 PUSH1 0x0 MSTORE PUSH1 0x12 PUSH1 0x4 MSTORE PUSH1 0x24 PUSH1 0x0 REVERT JUMPDEST PUSH32 0x4E487B7100000000000000000000000000000000000000000000000000000000 PUSH1 0x0 MSTORE PUSH1 0x41 PUSH1 0x4 MSTORE PUSH1 0x24 PUSH1 0x0 REVERT JUMPDEST PUSH1 0x0 PUSH1 0x1F NOT PUSH1 0x1F DUP4 ADD AND SWAP1 POP SWAP2 SWAP1 POP JUMP JUMPDEST PUSH1 0x0 DUP2 PUSH1 0x60 SHL SWAP1 POP SWAP2 SWAP1 POP JUMP JUMPDEST PUSH32 0x45434453413A20696E76616C6964207369676E6174757265206C656E67746800 PUSH1 0x0 DUP3 ADD MSTORE POP JUMP JUMPDEST PUSH32 0x6E6F7420666F756E64205F66696C655F6861736820696E206D65726B6C655072 PUSH1 0x0 DUP3 ADD MSTORE PUSH32 0x6F6F660000000000000000000000000000000000000000000000000000000000 PUSH1 0x20 DUP3 ADD MSTORE POP JUMP JUMPDEST PUSH32 0x616464726573732063616E2774206265207A65726F0000000000000000000000 PUSH1 0x0 DUP3 ADD MSTORE POP JUMP JUMPDEST PUSH32 0x4E6F74206D6174636820646966666963756C7479000000000000000000000000 PUSH1 0x0 DUP3 ADD MSTORE POP JUMP JUMPDEST PUSH32 0x546F6F206F6C642070726F6F6600000000000000000000000000000000000000 PUSH1 0x0 DUP3 ADD MSTORE POP JUMP JUMPDEST PUSH32 0x546F6F206F6C6420726F6F742068617368000000000000000000000000000000 PUSH1 0x0 DUP3 ADD MSTORE POP JUMP JUMPDEST PUSH32 0x57726F6E67206D65726B6C6550726F6F66000000000000000000000000000000 PUSH1 0x0 DUP3 ADD MSTORE POP JUMP JUMPDEST PUSH32 0x77726F6E67207369676E61747572650000000000000000000000000000000000 PUSH1 0x0 DUP3 ADD MSTORE POP JUMP JUMPDEST PUSH2 0x2E15 DUP2 PUSH2 0x2A67 JUMP JUMPDEST DUP2 EQ PUSH2 0x2E20 JUMPI PUSH1 0x0 DUP1 REVERT JUMPDEST POP JUMP JUMPDEST PUSH2 0x2E2C DUP2 PUSH2 0x2A85 JUMP JUMPDEST DUP2 EQ PUSH2 0x2E37 JUMPI PUSH1 0x0 DUP1 REVERT JUMPDEST POP JUMP JUMPDEST PUSH2 0x2E43 DUP2 PUSH2 0x2AAF JUMP JUMPDEST DUP2 EQ PUSH2 0x2E4E JUMPI PUSH1 0x0 DUP1 REVERT JUMPDEST POP JUMP JUMPDEST PUSH2 0x2E5A DUP2 PUSH2 0x2AB9 JUMP JUMPDEST DUP2 EQ PUSH2 0x2E65 JUMPI PUSH1 0x0 DUP1 REVERT JUMPDEST POP JUMP JUMPDEST PUSH2 0x2E71 DUP2 PUSH2 0x2AC9 JUMP JUMPDEST DUP2 EQ PUSH2 0x2E7C JUMPI PUSH1 0x0 DUP1 REVERT JUMPDEST POP JUMP INVALID LOG2 PUSH5 0x6970667358 0x22 SLT KECCAK256 REVERT GT DIV 0xE7 SWAP4 0x5C INVALID 0xB1 JUMP PUSH28 0x159530AAF2EE029EA11580D3DC502CF87BF3014E089564736F6C6343 STOP ADDMOD ADD STOP CALLER "
		},
		"gasEstimates": {
			"creation": {
				"codeDepositCost": "2391400",
				"executionCost": "infinite",
				"totalCost": "infinite"
			},
			"external": {
				"base_difficulty()": "1241",
				"changeSystemAddresses(address,address)": "infinite",
				"closeDeposit(address)": "infinite",
				"getBlockHash(uint32)": "745",
				"getBlockNumber()": "365",
				"getUserRewardInfo(address)": "infinite",
				"getUserRootHash(address)": "infinite",
				"isMatchDifficulty(uint256,uint256)": "infinite",
				"isValidMerkleTreeProof(bytes32,bytes32[])": "infinite",
				"isValidSign(address,bytes,bytes)": "infinite",
				"makeDeposit(address,uint256)": "infinite",
				"owner()": "1234",
				"payments_address()": "1259",
				"sendProof(address,uint32,bytes32,uint64,bytes,bytes,bytes32[])": "infinite",
				"sendProofFrom(address,address,uint32,bytes32,uint64,bytes,bytes,bytes32[])": "infinite",
				"setUserPlan(address)": "infinite",
				"transferOwnership(address)": "24693",
				"updateBaseDifficulty(uint256)": "21354",
				"user_storage_address()": "1260",
				"verifyFileProof(address,bytes,uint32,uint256)": "infinite"
			},
			"internal": {
				"UpdateLastBlockNumber(address,uint32)": "infinite",
				"UpdateLastRootHash(address,bytes32,uint64,address)": "infinite",
				"_sendProofFrom(address[2] memory,uint32,bytes32,uint64,bytes calldata,bytes32[] calldata)": "infinite",
				"_updateRootHash(address,address,bytes32,uint64)": "infinite",
				"takePay(address,address,address,uint256)": "infinite"
			}
		},
		"methodIdentifiers": {
			"base_difficulty()": "2d36de7a",
			"changeSystemAddresses(address,address)": "eb5439dc",
			"closeDeposit(address)": "dc8d0a40",
			"getBlockHash(uint32)": "d2b210a1",
			"getBlockNumber()": "42cbb15c",
			"getUserRewardInfo(address)": "69517310",
			"getUserRootHash(address)": "f9a76fde",
			"isMatchDifficulty(uint256,uint256)": "812adbd8",
			"isValidMerkleTreeProof(bytes32,bytes32[])": "059dbb30",
			"isValidSign(address,bytes,bytes)": "16ecc0e6",
			"makeDeposit(address,uint256)": "bf5d0a00",
			"owner()": "8da5cb5b",
			"payments_address()": "95747678",
			"sendProof(address,uint32,bytes32,uint64,bytes,bytes,bytes32[])": "74556ca9",
			"sendProofFrom(address,address,uint32,bytes32,uint64,bytes,bytes,bytes32[])": "46f03dd5",
			"setUserPlan(address)": "e067ae4c",
			"transferOwnership(address)": "f2fde38b",
			"updateBaseDifficulty(uint256)": "b5c6da27",
			"user_storage_address()": "1079a326",
			"verifyFileProof(address,bytes,uint32,uint256)": "1d285f0a"
		}
	},
	"abi": [
		{
			"inputs": [
				{
					"internalType": "address",
					"name": "_storage_address",
					"type": "address"
				},
				{
					"internalType": "address",
					"name": "_payments_address",
					"type": "address"
				},
				{
					"internalType": "uint256",
					"name": "_baseDifficulty",
					"type": "uint256"
				}
			],
			"stateMutability": "nonpayable",
			"type": "constructor"
		},
		{
			"anonymous": false,
			"inputs": [
				{
					"indexed": true,
					"internalType": "address",
					"name": "previousOwner",
					"type": "address"
				},
				{
					"indexed": true,
					"internalType": "address",
					"name": "newOwner",
					"type": "address"
				}
			],
			"name": "OwnershipTransferred",
			"type": "event"
		},
		{
			"anonymous": false,
			"inputs": [
				{
					"indexed": false,
					"internalType": "bytes32",
					"name": "wrong_hash",
					"type": "bytes32"
				}
			],
			"name": "wrongError",
			"type": "event"
		},
		{
			"inputs": [],
			"name": "base_difficulty",
			"outputs": [
				{
					"internalType": "uint256",
					"name": "",
					"type": "uint256"
				}
			],
			"stateMutability": "view",
			"type": "function"
		},
		{
			"inputs": [
				{
					"internalType": "address",
					"name": "_storage_address",
					"type": "address"
				},
				{
					"internalType": "address",
					"name": "_payments_address",
					"type": "address"
				}
			],
			"name": "changeSystemAddresses",
			"outputs": [],
			"stateMutability": "nonpayable",
			"type": "function"
		},
		{
			"inputs": [
				{
					"internalType": "address",
					"name": "_token",
					"type": "address"
				}
			],
			"name": "closeDeposit",
			"outputs": [],
			"stateMutability": "nonpayable",
			"type": "function"
		},
		{
			"inputs": [
				{
					"internalType": "uint32",
					"name": "_n",
					"type": "uint32"
				}
			],
			"name": "getBlockHash",
			"outputs": [
				{
					"internalType": "bytes32",
					"name": "",
					"type": "bytes32"
				}
			],
			"stateMutability": "view",
			"type": "function"
		},
		{
			"inputs": [],
			"name": "getBlockNumber",
			"outputs": [
				{
					"internalType": "uint32",
					"name": "",
					"type": "uint32"
				}
			],
			"stateMutability": "view",
			"type": "function"
		},
		{
			"inputs": [
				{
					"internalType": "address",
					"name": "_user",
					"type": "address"
				}
			],
			"name": "getUserRewardInfo",
			"outputs": [
				{
					"internalType": "address",
					"name": "",
					"type": "address"
				},
				{
					"internalType": "uint256",
					"name": "",
					"type": "uint256"
				},
				{
					"internalType": "uint256",
					"name": "",
					"type": "uint256"
				}
			],
			"stateMutability": "view",
			"type": "function"
		},
		{
			"inputs": [
				{
					"internalType": "address",
					"name": "_user",
					"type": "address"
				}
			],
			"name": "getUserRootHash",
			"outputs": [
				{
					"internalType": "bytes32",
					"name": "",
					"type": "bytes32"
				},
				{
					"internalType": "uint256",
					"name": "",
					"type": "uint256"
				}
			],
			"stateMutability": "view",
			"type": "function"
		},
		{
			"inputs": [
				{
					"internalType": "uint256",
					"name": "_proof",
					"type": "uint256"
				},
				{
					"internalType": "uint256",
					"name": "_targetDifficulty",
					"type": "uint256"
				}
			],
			"name": "isMatchDifficulty",
			"outputs": [
				{
					"internalType": "bool",
					"name": "",
					"type": "bool"
				}
			],
			"stateMutability": "view",
			"type": "function"
		},
		{
			"inputs": [
				{
					"internalType": "bytes32",
					"name": "_root_hash",
					"type": "bytes32"
				},
				{
					"internalType": "bytes32[]",
					"name": "proof",
					"type": "bytes32[]"
				}
			],
			"name": "isValidMerkleTreeProof",
			"outputs": [
				{
					"internalType": "bool",
					"name": "",
					"type": "bool"
				}
			],
			"stateMutability": "pure",
			"type": "function"
		},
		{
			"inputs": [
				{
					"internalType": "address",
					"name": "_signer",
					"type": "address"
				},
				{
					"internalType": "bytes",
					"name": "message",
					"type": "bytes"
				},
				{
					"internalType": "bytes",
					"name": "signature",
					"type": "bytes"
				}
			],
			"name": "isValidSign",
			"outputs": [
				{
					"internalType": "bool",
					"name": "",
					"type": "bool"
				}
			],
			"stateMutability": "pure",
			"type": "function"
		},
		{
			"inputs": [
				{
					"internalType": "address",
					"name": "_token",
					"type": "address"
				},
				{
					"internalType": "uint256",
					"name": "_amount",
					"type": "uint256"
				}
			],
			"name": "makeDeposit",
			"outputs": [],
			"stateMutability": "nonpayable",
			"type": "function"
		},
		{
			"inputs": [],
			"name": "owner",
			"outputs": [
				{
					"internalType": "address",
					"name": "",
					"type": "address"
				}
			],
			"stateMutability": "view",
			"type": "function"
		},
		{
			"inputs": [],
			"name": "payments_address",
			"outputs": [
				{
					"internalType": "address",
					"name": "",
					"type": "address"
				}
			],
			"stateMutability": "view",
			"type": "function"
		},
		{
			"inputs": [
				{
					"internalType": "address",
					"name": "_user_address",
					"type": "address"
				},
				{
					"internalType": "uint32",
					"name": "_block_number",
					"type": "uint32"
				},
				{
					"internalType": "bytes32",
					"name": "_user_root_hash",
					"type": "bytes32"
				},
				{
					"internalType": "uint64",
					"name": "_user_root_hash_nonce",
					"type": "uint64"
				},
				{
					"internalType": "bytes",
					"name": "_user_signature",
					"type": "bytes"
				},
				{
					"internalType": "bytes",
					"name": "_file",
					"type": "bytes"
				},
				{
					"internalType": "bytes32[]",
					"name": "merkleProof",
					"type": "bytes32[]"
				}
			],
			"name": "sendProof",
			"outputs": [],
			"stateMutability": "nonpayable",
			"type": "function"
		},
		{
			"inputs": [
				{
					"internalType": "address",
					"name": "_node_address",
					"type": "address"
				},
				{
					"internalType": "address",
					"name": "_user_address",
					"type": "address"
				},
				{
					"internalType": "uint32",
					"name": "_block_number",
					"type": "uint32"
				},
				{
					"internalType": "bytes32",
					"name": "_user_root_hash",
					"type": "bytes32"
				},
				{
					"internalType": "uint64",
					"name": "_user_root_hash_nonce",
					"type": "uint64"
				},
				{
					"internalType": "bytes",
					"name": "_user_signature",
					"type": "bytes"
				},
				{
					"internalType": "bytes",
					"name": "_file",
					"type": "bytes"
				},
				{
					"internalType": "bytes32[]",
					"name": "merkleProof",
					"type": "bytes32[]"
				}
			],
			"name": "sendProofFrom",
			"outputs": [],
			"stateMutability": "nonpayable",
			"type": "function"
		},
		{
			"inputs": [
				{
					"internalType": "address",
					"name": "_token",
					"type": "address"
				}
			],
			"name": "setUserPlan",
			"outputs": [],
			"stateMutability": "nonpayable",
			"type": "function"
		},
		{
			"inputs": [
				{
					"internalType": "address",
					"name": "newOwner",
					"type": "address"
				}
			],
			"name": "transferOwnership",
			"outputs": [],
			"stateMutability": "nonpayable",
			"type": "function"
		},
		{
			"inputs": [
				{
					"internalType": "uint256",
					"name": "_new_difficulty",
					"type": "uint256"
				}
			],
			"name": "updateBaseDifficulty",
			"outputs": [],
			"stateMutability": "nonpayable",
			"type": "function"
		},
		{
			"inputs": [],
			"name": "user_storage_address",
			"outputs": [
				{
					"internalType": "address",
					"name": "",
					"type": "address"
				}
			],
			"stateMutability": "view",
			"type": "function"
		},
		{
			"inputs": [
				{
					"internalType": "address",
					"name": "_sender",
					"type": "address"
				},
				{
					"internalType": "bytes",
					"name": "_file",
					"type": "bytes"
				},
				{
					"internalType": "uint32",
					"name": "_block_number",
					"type": "uint32"
				},
				{
					"internalType": "uint256",
					"name": "_blocks_complited",
					"type": "uint256"
				}
			],
			"name": "verifyFileProof",
			"outputs": [
				{
					"internalType": "bool",
					"name": "",
					"type": "bool"
				}
			],
			"stateMutability": "view",
			"type": "function"
		}
	]
}